{
  "_format": "hh-sol-artifact-1",
  "contractName": "EticaRelease",
  "sourceName": "contracts/EticaRelease.sol",
  "abi": [
    {
      "inputs": [
        {
          "internalType": "uint256",
          "name": "x",
          "type": "uint256"
        },
        {
          "internalType": "uint256",
          "name": "y",
          "type": "uint256"
        }
      ],
      "name": "PRBMath_MulDiv18_Overflow",
      "type": "error"
    },
    {
      "inputs": [
        {
          "internalType": "UD60x18",
          "name": "x",
          "type": "uint256"
        }
      ],
      "name": "PRBMath_UD60x18_Exp2_InputTooBig",
      "type": "error"
    },
    {
      "inputs": [
        {
          "internalType": "UD60x18",
          "name": "x",
          "type": "uint256"
        }
      ],
      "name": "PRBMath_UD60x18_Log_InputTooSmall",
      "type": "error"
    },
    {
      "anonymous": false,
      "inputs": [
        {
          "indexed": true,
          "internalType": "address",
          "name": "tokenOwner",
          "type": "address"
        },
        {
          "indexed": true,
          "internalType": "address",
          "name": "spender",
          "type": "address"
        },
        {
          "indexed": false,
          "internalType": "uint256",
          "name": "tokens",
          "type": "uint256"
        }
      ],
      "name": "Approval",
      "type": "event"
    },
    {
      "anonymous": false,
      "inputs": [
        {
          "indexed": true,
          "internalType": "uint256",
          "name": "period_id",
          "type": "uint256"
        },
        {
          "indexed": false,
          "internalType": "uint256",
          "name": "interval",
          "type": "uint256"
        }
      ],
      "name": "CreatedPeriod",
      "type": "event"
    },
    {
      "anonymous": false,
      "inputs": [
        {
          "indexed": true,
          "internalType": "address",
          "name": "from",
          "type": "address"
        },
        {
          "indexed": false,
          "internalType": "uint256",
          "name": "blockreward",
          "type": "uint256"
        },
        {
          "indexed": false,
          "internalType": "uint256",
          "name": "epochCount",
          "type": "uint256"
        },
        {
          "indexed": false,
          "internalType": "bytes32",
          "name": "newChallengeNumber",
          "type": "bytes32"
        }
      ],
      "name": "Mint",
      "type": "event"
    },
    {
      "anonymous": false,
      "inputs": [
        {
          "indexed": true,
          "internalType": "uint256",
          "name": "chunkid",
          "type": "uint256"
        },
        {
          "indexed": true,
          "internalType": "bytes32",
          "name": "diseasehash",
          "type": "bytes32"
        }
      ],
      "name": "NewChunk",
      "type": "event"
    },
    {
      "anonymous": false,
      "inputs": [
        {
          "indexed": true,
          "internalType": "address",
          "name": "_voter",
          "type": "address"
        },
        {
          "indexed": false,
          "internalType": "bytes32",
          "name": "votehash",
          "type": "bytes32"
        },
        {
          "indexed": false,
          "internalType": "uint256",
          "name": "amount",
          "type": "uint256"
        }
      ],
      "name": "NewCommit",
      "type": "event"
    },
    {
      "anonymous": false,
      "inputs": [
        {
          "indexed": true,
          "internalType": "uint256",
          "name": "diseaseindex",
          "type": "uint256"
        },
        {
          "indexed": false,
          "internalType": "string",
          "name": "title",
          "type": "string"
        }
      ],
      "name": "NewDisease",
      "type": "event"
    },
    {
      "anonymous": false,
      "inputs": [
        {
          "indexed": true,
          "internalType": "address",
          "name": "voter",
          "type": "address"
        },
        {
          "indexed": false,
          "internalType": "uint256",
          "name": "fee",
          "type": "uint256"
        },
        {
          "indexed": false,
          "internalType": "bytes32",
          "name": "proposal_hash",
          "type": "bytes32"
        }
      ],
      "name": "NewFee",
      "type": "event"
    },
    {
      "anonymous": false,
      "inputs": [
        {
          "indexed": false,
          "internalType": "bytes32",
          "name": "proposed_release_hash",
          "type": "bytes32"
        },
        {
          "indexed": true,
          "internalType": "address",
          "name": "_proposer",
          "type": "address"
        },
        {
          "indexed": true,
          "internalType": "bytes32",
          "name": "diseasehash",
          "type": "bytes32"
        },
        {
          "indexed": true,
          "internalType": "uint256",
          "name": "chunkid",
          "type": "uint256"
        }
      ],
      "name": "NewProposal",
      "type": "event"
    },
    {
      "anonymous": false,
      "inputs": [
        {
          "indexed": true,
          "internalType": "address",
          "name": "_voter",
          "type": "address"
        },
        {
          "indexed": true,
          "internalType": "bytes32",
          "name": "_proposal",
          "type": "bytes32"
        },
        {
          "indexed": false,
          "internalType": "uint256",
          "name": "amount",
          "type": "uint256"
        }
      ],
      "name": "NewRecover",
      "type": "event"
    },
    {
      "anonymous": false,
      "inputs": [
        {
          "indexed": true,
          "internalType": "address",
          "name": "_voter",
          "type": "address"
        },
        {
          "indexed": true,
          "internalType": "bytes32",
          "name": "_proposal",
          "type": "bytes32"
        },
        {
          "indexed": false,
          "internalType": "uint256",
          "name": "amount",
          "type": "uint256"
        }
      ],
      "name": "NewReveal",
      "type": "event"
    },
    {
      "anonymous": false,
      "inputs": [
        {
          "indexed": true,
          "internalType": "address",
          "name": "voter",
          "type": "address"
        },
        {
          "indexed": false,
          "internalType": "uint256",
          "name": "amount",
          "type": "uint256"
        },
        {
          "indexed": false,
          "internalType": "bytes32",
          "name": "proposal_hash",
          "type": "bytes32"
        },
        {
          "indexed": false,
          "internalType": "uint256",
          "name": "duration",
          "type": "uint256"
        }
      ],
      "name": "NewSlash",
      "type": "event"
    },
    {
      "anonymous": false,
      "inputs": [
        {
          "indexed": true,
          "internalType": "address",
          "name": "staker",
          "type": "address"
        },
        {
          "indexed": false,
          "internalType": "uint256",
          "name": "amount",
          "type": "uint256"
        }
      ],
      "name": "NewStake",
      "type": "event"
    },
    {
      "anonymous": false,
      "inputs": [
        {
          "indexed": true,
          "internalType": "address",
          "name": "staker",
          "type": "address"
        },
        {
          "indexed": false,
          "internalType": "uint256",
          "name": "endtime",
          "type": "uint256"
        },
        {
          "indexed": false,
          "internalType": "uint256",
          "name": "minlimit",
          "type": "uint256"
        }
      ],
      "name": "NewStakescsldt",
      "type": "event"
    },
    {
      "anonymous": false,
      "inputs": [
        {
          "indexed": true,
          "internalType": "address",
          "name": "staker",
          "type": "address"
        },
        {
          "indexed": false,
          "internalType": "uint256",
          "name": "snapamount",
          "type": "uint256"
        }
      ],
      "name": "NewStakesnap",
      "type": "event"
    },
    {
      "anonymous": false,
      "inputs": [
        {
          "indexed": true,
          "internalType": "address",
          "name": "voter",
          "type": "address"
        },
        {
          "indexed": false,
          "internalType": "uint256",
          "name": "amount",
          "type": "uint256"
        },
        {
          "indexed": false,
          "internalType": "bytes32",
          "name": "proposal_hash",
          "type": "bytes32"
        }
      ],
      "name": "RewardClaimed",
      "type": "event"
    },
    {
      "anonymous": false,
      "inputs": [
        {
          "indexed": true,
          "internalType": "address",
          "name": "staker",
          "type": "address"
        },
        {
          "indexed": false,
          "internalType": "uint256",
          "name": "stakeamount",
          "type": "uint256"
        }
      ],
      "name": "StakeClaimed",
      "type": "event"
    },
    {
      "anonymous": false,
      "inputs": [
        {
          "indexed": true,
          "internalType": "address",
          "name": "voter",
          "type": "address"
        },
        {
          "indexed": false,
          "internalType": "bytes32",
          "name": "proposal_hash",
          "type": "bytes32"
        }
      ],
      "name": "TieClaimed",
      "type": "event"
    },
    {
      "anonymous": false,
      "inputs": [
        {
          "indexed": true,
          "internalType": "address",
          "name": "from",
          "type": "address"
        },
        {
          "indexed": true,
          "internalType": "address",
          "name": "to",
          "type": "address"
        },
        {
          "indexed": false,
          "internalType": "uint256",
          "name": "tokens",
          "type": "uint256"
        }
      ],
      "name": "Transfer",
      "type": "event"
    },
    {
      "inputs": [],
      "name": "APPROVAL_THRESHOLD",
      "outputs": [
        {
          "internalType": "uint256",
          "name": "",
          "type": "uint256"
        }
      ],
      "stateMutability": "view",
      "type": "function"
    },
    {
      "inputs": [],
      "name": "DEFAULT_EXTRA_TIME",
      "outputs": [
        {
          "internalType": "uint256",
          "name": "",
          "type": "uint256"
        }
      ],
      "stateMutability": "view",
      "type": "function"
    },
    {
      "inputs": [],
      "name": "DEFAULT_REVEALING_TIME",
      "outputs": [
        {
          "internalType": "uint256",
          "name": "",
          "type": "uint256"
        }
      ],
      "stateMutability": "view",
      "type": "function"
    },
    {
      "inputs": [],
      "name": "DEFAULT_VOTING_TIME",
      "outputs": [
        {
          "internalType": "uint256",
          "name": "",
          "type": "uint256"
        }
      ],
      "stateMutability": "view",
      "type": "function"
    },
    {
      "inputs": [],
      "name": "DISEASE_CREATION_AMOUNT",
      "outputs": [
        {
          "internalType": "uint256",
          "name": "",
          "type": "uint256"
        }
      ],
      "stateMutability": "view",
      "type": "function"
    },
    {
      "inputs": [
        {
          "internalType": "uint256",
          "name": "",
          "type": "uint256"
        }
      ],
      "name": "IntervalsPeriods",
      "outputs": [
        {
          "internalType": "uint256",
          "name": "",
          "type": "uint256"
        }
      ],
      "stateMutability": "view",
      "type": "function"
    },
    {
      "inputs": [],
      "name": "IntervalsPeriodsCounter",
      "outputs": [
        {
          "internalType": "uint256",
          "name": "",
          "type": "uint256"
        }
      ],
      "stateMutability": "view",
      "type": "function"
    },
    {
      "inputs": [],
      "name": "LAST_PERIOD_COST_UPDATE",
      "outputs": [
        {
          "internalType": "uint256",
          "name": "",
          "type": "uint256"
        }
      ],
      "stateMutability": "view",
      "type": "function"
    },
    {
      "inputs": [],
      "name": "PERIODS_PER_THRESHOLD",
      "outputs": [
        {
          "internalType": "uint256",
          "name": "",
          "type": "uint256"
        }
      ],
      "stateMutability": "view",
      "type": "function"
    },
    {
      "inputs": [],
      "name": "PERIOD_CURATION_REWARD_RATIO",
      "outputs": [
        {
          "internalType": "uint256",
          "name": "",
          "type": "uint256"
        }
      ],
      "stateMutability": "view",
      "type": "function"
    },
    {
      "inputs": [],
      "name": "PERIOD_EDITOR_REWARD_RATIO",
      "outputs": [
        {
          "internalType": "uint256",
          "name": "",
          "type": "uint256"
        }
      ],
      "stateMutability": "view",
      "type": "function"
    },
    {
      "inputs": [],
      "name": "PROPOSAL_DEFAULT_VOTE",
      "outputs": [
        {
          "internalType": "uint256",
          "name": "",
          "type": "uint256"
        }
      ],
      "stateMutability": "view",
      "type": "function"
    },
    {
      "inputs": [],
      "name": "PROPOSERS_INCREASER",
      "outputs": [
        {
          "internalType": "uint256",
          "name": "",
          "type": "uint256"
        }
      ],
      "stateMutability": "view",
      "type": "function"
    },
    {
      "inputs": [],
      "name": "PROTOCOL_RATIO_TARGET",
      "outputs": [
        {
          "internalType": "uint256",
          "name": "",
          "type": "uint256"
        }
      ],
      "stateMutability": "view",
      "type": "function"
    },
    {
      "inputs": [
        {
          "internalType": "uint256",
          "name": "",
          "type": "uint256"
        }
      ],
      "name": "PeriodsIssued",
      "outputs": [
        {
          "internalType": "uint256",
          "name": "",
          "type": "uint256"
        }
      ],
      "stateMutability": "view",
      "type": "function"
    },
    {
      "inputs": [],
      "name": "PeriodsIssuedCounter",
      "outputs": [
        {
          "internalType": "uint256",
          "name": "",
          "type": "uint256"
        }
      ],
      "stateMutability": "view",
      "type": "function"
    },
    {
      "inputs": [],
      "name": "REWARD_INTERVAL",
      "outputs": [
        {
          "internalType": "uint256",
          "name": "",
          "type": "uint256"
        }
      ],
      "stateMutability": "view",
      "type": "function"
    },
    {
      "inputs": [],
      "name": "SEEDHASH_EPOCH_BLOCKS",
      "outputs": [
        {
          "internalType": "uint256",
          "name": "",
          "type": "uint256"
        }
      ],
      "stateMutability": "view",
      "type": "function"
    },
    {
      "inputs": [],
      "name": "SEVERITY_LEVEL",
      "outputs": [
        {
          "internalType": "uint256",
          "name": "",
          "type": "uint256"
        }
      ],
      "stateMutability": "view",
      "type": "function"
    },
    {
      "inputs": [],
      "name": "STAKING_DURATION",
      "outputs": [
        {
          "internalType": "uint256",
          "name": "",
          "type": "uint256"
        }
      ],
      "stateMutability": "view",
      "type": "function"
    },
    {
      "inputs": [],
      "name": "UNRECOVERABLE_ETI",
      "outputs": [
        {
          "internalType": "uint256",
          "name": "",
          "type": "uint256"
        }
      ],
      "stateMutability": "view",
      "type": "function"
    },
    {
      "inputs": [],
      "name": "UPDATEDV2",
      "outputs": [
        {
          "internalType": "bool",
          "name": "",
          "type": "bool"
        }
      ],
      "stateMutability": "view",
      "type": "function"
    },
    {
      "inputs": [],
      "name": "UPDATEDV3",
      "outputs": [
        {
          "internalType": "bool",
          "name": "",
          "type": "bool"
        }
      ],
      "stateMutability": "view",
      "type": "function"
    },
    {
      "inputs": [],
      "name": "_BLOCKS_PER_READJUSTMENT",
      "outputs": [
        {
          "internalType": "uint256",
          "name": "",
          "type": "uint256"
        }
      ],
      "stateMutability": "view",
      "type": "function"
    },
    {
      "inputs": [],
      "name": "_MAXIMUM_TARGET",
      "outputs": [
        {
          "internalType": "uint256",
          "name": "",
          "type": "uint256"
        }
      ],
      "stateMutability": "view",
      "type": "function"
    },
    {
      "inputs": [],
      "name": "_MINIMUM_TARGET",
      "outputs": [
        {
          "internalType": "uint256",
          "name": "",
          "type": "uint256"
        }
      ],
      "stateMutability": "view",
      "type": "function"
    },
    {
      "inputs": [],
      "name": "_totalMiningSupply",
      "outputs": [
        {
          "internalType": "uint256",
          "name": "",
          "type": "uint256"
        }
      ],
      "stateMutability": "view",
      "type": "function"
    },
    {
      "inputs": [],
      "name": "accessibleSupply",
      "outputs": [
        {
          "internalType": "uint256",
          "name": "",
          "type": "uint256"
        }
      ],
      "stateMutability": "view",
      "type": "function"
    },
    {
      "inputs": [
        {
          "internalType": "address",
          "name": "tokenOwner",
          "type": "address"
        },
        {
          "internalType": "address",
          "name": "spender",
          "type": "address"
        }
      ],
      "name": "allowance",
      "outputs": [
        {
          "internalType": "uint256",
          "name": "",
          "type": "uint256"
        }
      ],
      "stateMutability": "view",
      "type": "function"
    },
    {
      "inputs": [
        {
          "internalType": "address",
          "name": "spender",
          "type": "address"
        },
        {
          "internalType": "uint256",
          "name": "tokens",
          "type": "uint256"
        }
      ],
      "name": "approve",
      "outputs": [
        {
          "internalType": "bool",
          "name": "",
          "type": "bool"
        }
      ],
      "stateMutability": "nonpayable",
      "type": "function"
    },
    {
      "inputs": [
        {
          "internalType": "address",
          "name": "tokenOwner",
          "type": "address"
        }
      ],
      "name": "balanceOf",
      "outputs": [
        {
          "internalType": "uint256",
          "name": "balance",
          "type": "uint256"
        }
      ],
      "stateMutability": "view",
      "type": "function"
    },
    {
      "inputs": [
        {
          "internalType": "address",
          "name": "",
          "type": "address"
        }
      ],
      "name": "balances",
      "outputs": [
        {
          "internalType": "uint256",
          "name": "",
          "type": "uint256"
        }
      ],
      "stateMutability": "view",
      "type": "function"
    },
    {
      "inputs": [
        {
          "internalType": "address",
          "name": "",
          "type": "address"
        }
      ],
      "name": "blockedeticas",
      "outputs": [
        {
          "internalType": "uint256",
          "name": "",
          "type": "uint256"
        }
      ],
      "stateMutability": "view",
      "type": "function"
    },
    {
      "inputs": [],
      "name": "blockreward",
      "outputs": [
        {
          "internalType": "uint256",
          "name": "",
          "type": "uint256"
        }
      ],
      "stateMutability": "view",
      "type": "function"
    },
    {
      "inputs": [
        {
          "internalType": "address",
          "name": "",
          "type": "address"
        }
      ],
      "name": "bosoms",
      "outputs": [
        {
          "internalType": "uint256",
          "name": "",
          "type": "uint256"
        }
      ],
      "stateMutability": "view",
      "type": "function"
    },
    {
      "inputs": [
        {
          "internalType": "address",
          "name": "tokenOwner",
          "type": "address"
        }
      ],
      "name": "bosomsOf",
      "outputs": [
        {
          "internalType": "uint256",
          "name": "_bosoms",
          "type": "uint256"
        }
      ],
      "stateMutability": "view",
      "type": "function"
    },
    {
      "inputs": [],
      "name": "challengeNumber",
      "outputs": [
        {
          "internalType": "bytes32",
          "name": "",
          "type": "bytes32"
        }
      ],
      "stateMutability": "view",
      "type": "function"
    },
    {
      "inputs": [
        {
          "internalType": "bytes",
          "name": "blockHeader",
          "type": "bytes"
        },
        {
          "internalType": "bytes32",
          "name": "currentChallenge",
          "type": "bytes32"
        },
        {
          "internalType": "uint256",
          "name": "claimedTarget",
          "type": "uint256"
        },
        {
          "internalType": "bytes",
          "name": "seedHash",
          "type": "bytes"
        }
      ],
      "name": "checkMintRandomxInputs",
      "outputs": [
        {
          "internalType": "bool",
          "name": "isValid",
          "type": "bool"
        },
        {
          "internalType": "string",
          "name": "errorMessage",
          "type": "string"
        }
      ],
      "stateMutability": "view",
      "type": "function"
    },
    {
      "inputs": [
        {
          "internalType": "uint256",
          "name": "nonce",
          "type": "uint256"
        },
        {
          "internalType": "bytes32",
          "name": "challenge_digest",
          "type": "bytes32"
        },
        {
          "internalType": "bytes32",
          "name": "challenge_number",
          "type": "bytes32"
        },
        {
          "internalType": "uint256",
          "name": "testTarget",
          "type": "uint256"
        }
      ],
      "name": "checkMintSolution",
      "outputs": [
        {
          "internalType": "bool",
          "name": "success",
          "type": "bool"
        }
      ],
      "stateMutability": "view",
      "type": "function"
    },
    {
      "inputs": [
        {
          "internalType": "uint256",
          "name": "",
          "type": "uint256"
        }
      ],
      "name": "chunkProposalsCounter",
      "outputs": [
        {
          "internalType": "uint256",
          "name": "",
          "type": "uint256"
        }
      ],
      "stateMutability": "view",
      "type": "function"
    },
    {
      "inputs": [
        {
          "internalType": "uint256",
          "name": "",
          "type": "uint256"
        },
        {
          "internalType": "uint256",
          "name": "",
          "type": "uint256"
        }
      ],
      "name": "chunkproposals",
      "outputs": [
        {
          "internalType": "bytes32",
          "name": "",
          "type": "bytes32"
        }
      ],
      "stateMutability": "view",
      "type": "function"
    },
    {
      "inputs": [
        {
          "internalType": "uint256",
          "name": "",
          "type": "uint256"
        }
      ],
      "name": "chunks",
      "outputs": [
        {
          "internalType": "uint256",
          "name": "id",
          "type": "uint256"
        },
        {
          "internalType": "bytes32",
          "name": "diseaseid",
          "type": "bytes32"
        },
        {
          "internalType": "uint256",
          "name": "idx",
          "type": "uint256"
        },
        {
          "internalType": "string",
          "name": "title",
          "type": "string"
        },
        {
          "internalType": "string",
          "name": "desc",
          "type": "string"
        }
      ],
      "stateMutability": "view",
      "type": "function"
    },
    {
      "inputs": [],
      "name": "chunksCounter",
      "outputs": [
        {
          "internalType": "uint256",
          "name": "",
          "type": "uint256"
        }
      ],
      "stateMutability": "view",
      "type": "function"
    },
    {
      "inputs": [
        {
          "internalType": "bytes32",
          "name": "_proposed_release_hash",
          "type": "bytes32"
        }
      ],
      "name": "clmpropbyhash",
      "outputs": [],
      "stateMutability": "nonpayable",
      "type": "function"
    },
    {
      "inputs": [
        {
          "internalType": "address",
          "name": "",
          "type": "address"
        },
        {
          "internalType": "bytes32",
          "name": "",
          "type": "bytes32"
        }
      ],
      "name": "commits",
      "outputs": [
        {
          "internalType": "uint256",
          "name": "amount",
          "type": "uint256"
        },
        {
          "internalType": "uint256",
          "name": "timestamp",
          "type": "uint256"
        }
      ],
      "stateMutability": "view",
      "type": "function"
    },
    {
      "inputs": [
        {
          "internalType": "uint256",
          "name": "_amount",
          "type": "uint256"
        },
        {
          "internalType": "bytes32",
          "name": "_votehash",
          "type": "bytes32"
        }
      ],
      "name": "commitvote",
      "outputs": [],
      "stateMutability": "nonpayable",
      "type": "function"
    },
    {
      "inputs": [
        {
          "internalType": "bytes32",
          "name": "_diseasehash",
          "type": "bytes32"
        },
        {
          "internalType": "string",
          "name": "_title",
          "type": "string"
        },
        {
          "internalType": "string",
          "name": "_description",
          "type": "string"
        }
      ],
      "name": "createchunk",
      "outputs": [],
      "stateMutability": "nonpayable",
      "type": "function"
    },
    {
      "inputs": [
        {
          "internalType": "string",
          "name": "_name",
          "type": "string"
        }
      ],
      "name": "createdisease",
      "outputs": [],
      "stateMutability": "nonpayable",
      "type": "function"
    },
    {
      "inputs": [],
      "name": "decimals",
      "outputs": [
        {
          "internalType": "uint256",
          "name": "",
          "type": "uint256"
        }
      ],
      "stateMutability": "view",
      "type": "function"
    },
    {
      "inputs": [
        {
          "internalType": "bytes32",
          "name": "",
          "type": "bytes32"
        }
      ],
      "name": "diseaseChunksCounter",
      "outputs": [
        {
          "internalType": "uint256",
          "name": "",
          "type": "uint256"
        }
      ],
      "stateMutability": "view",
      "type": "function"
    },
    {
      "inputs": [
        {
          "internalType": "bytes32",
          "name": "",
          "type": "bytes32"
        }
      ],
      "name": "diseaseProposalsCounter",
      "outputs": [
        {
          "internalType": "uint256",
          "name": "",
          "type": "uint256"
        }
      ],
      "stateMutability": "view",
      "type": "function"
    },
    {
      "inputs": [
        {
          "internalType": "bytes32",
          "name": "",
          "type": "bytes32"
        },
        {
          "internalType": "uint256",
          "name": "",
          "type": "uint256"
        }
      ],
      "name": "diseasechunks",
      "outputs": [
        {
          "internalType": "uint256",
          "name": "",
          "type": "uint256"
        }
      ],
      "stateMutability": "view",
      "type": "function"
    },
    {
      "inputs": [
        {
          "internalType": "bytes32",
          "name": "",
          "type": "bytes32"
        },
        {
          "internalType": "uint256",
          "name": "",
          "type": "uint256"
        }
      ],
      "name": "diseaseproposals",
      "outputs": [
        {
          "internalType": "bytes32",
          "name": "",
          "type": "bytes32"
        }
      ],
      "stateMutability": "view",
      "type": "function"
    },
    {
      "inputs": [
        {
          "internalType": "uint256",
          "name": "",
          "type": "uint256"
        }
      ],
      "name": "diseases",
      "outputs": [
        {
          "internalType": "bytes32",
          "name": "disease_hash",
          "type": "bytes32"
        },
        {
          "internalType": "string",
          "name": "name",
          "type": "string"
        }
      ],
      "stateMutability": "view",
      "type": "function"
    },
    {
      "inputs": [],
      "name": "diseasesCounter",
      "outputs": [
        {
          "internalType": "uint256",
          "name": "",
          "type": "uint256"
        }
      ],
      "stateMutability": "view",
      "type": "function"
    },
    {
      "inputs": [
        {
          "internalType": "bytes32",
          "name": "",
          "type": "bytes32"
        }
      ],
      "name": "diseasesbyIds",
      "outputs": [
        {
          "internalType": "uint256",
          "name": "",
          "type": "uint256"
        }
      ],
      "stateMutability": "view",
      "type": "function"
    },
    {
      "inputs": [],
      "name": "epochCount",
      "outputs": [
        {
          "internalType": "uint256",
          "name": "",
          "type": "uint256"
        }
      ],
      "stateMutability": "view",
      "type": "function"
    },
    {
      "inputs": [
        {
          "internalType": "address",
          "name": "_staker",
          "type": "address"
        },
        {
          "internalType": "uint256",
          "name": "_amount",
          "type": "uint256"
        }
      ],
      "name": "eticatobosoms",
      "outputs": [
        {
          "internalType": "bool",
          "name": "success",
          "type": "bool"
        }
      ],
      "stateMutability": "nonpayable",
      "type": "function"
    },
    {
      "inputs": [],
      "name": "getChallengeNumber",
      "outputs": [
        {
          "internalType": "bytes32",
          "name": "",
          "type": "bytes32"
        }
      ],
      "stateMutability": "view",
      "type": "function"
    },
    {
      "inputs": [],
      "name": "getMiningDifficulty",
      "outputs": [
        {
          "internalType": "uint256",
          "name": "",
          "type": "uint256"
        }
      ],
      "stateMutability": "view",
      "type": "function"
    },
    {
      "inputs": [],
      "name": "getMiningReward",
      "outputs": [
        {
          "internalType": "uint256",
          "name": "",
          "type": "uint256"
        }
      ],
      "stateMutability": "view",
      "type": "function"
    },
    {
      "inputs": [],
      "name": "getMiningTarget",
      "outputs": [
        {
          "internalType": "uint256",
          "name": "",
          "type": "uint256"
        }
      ],
      "stateMutability": "view",
      "type": "function"
    },
    {
      "inputs": [
        {
          "internalType": "uint256",
          "name": "nonce",
          "type": "uint256"
        },
        {
          "internalType": "bytes32",
          "name": "challenge_digest",
          "type": "bytes32"
        },
        {
          "internalType": "bytes32",
          "name": "challenge_number",
          "type": "bytes32"
        }
      ],
      "name": "getMintDigest",
      "outputs": [
        {
          "internalType": "bytes32",
          "name": "digesttest",
          "type": "bytes32"
        }
      ],
      "stateMutability": "view",
      "type": "function"
    },
    {
      "inputs": [
        {
          "internalType": "string",
          "name": "_name",
          "type": "string"
        }
      ],
      "name": "getdiseasehashbyName",
      "outputs": [
        {
          "internalType": "bytes32",
          "name": "_diseasehash",
          "type": "bytes32"
        }
      ],
      "stateMutability": "view",
      "type": "function"
    },
    {
      "inputs": [],
      "name": "inflationrate",
      "outputs": [
        {
          "internalType": "uint256",
          "name": "",
          "type": "uint256"
        }
      ],
      "stateMutability": "view",
      "type": "function"
    },
    {
      "inputs": [],
      "name": "initiatormsg",
      "outputs": [
        {
          "internalType": "string",
          "name": "",
          "type": "string"
        }
      ],
      "stateMutability": "view",
      "type": "function"
    },
    {
      "inputs": [],
      "name": "lastRewardEthBlockNumber",
      "outputs": [
        {
          "internalType": "uint256",
          "name": "",
          "type": "uint256"
        }
      ],
      "stateMutability": "view",
      "type": "function"
    },
    {
      "inputs": [],
      "name": "lastRewardTo",
      "outputs": [
        {
          "internalType": "address",
          "name": "",
          "type": "address"
        }
      ],
      "stateMutability": "view",
      "type": "function"
    },
    {
      "inputs": [],
      "name": "latestDifficultyPeriodStarted",
      "outputs": [
        {
          "internalType": "uint256",
          "name": "",
          "type": "uint256"
        }
      ],
      "stateMutability": "view",
      "type": "function"
    },
    {
      "inputs": [],
      "name": "miningTarget",
      "outputs": [
        {
          "internalType": "uint256",
          "name": "",
          "type": "uint256"
        }
      ],
      "stateMutability": "view",
      "type": "function"
    },
    {
      "inputs": [
        {
          "internalType": "uint256",
          "name": "nonce",
          "type": "uint256"
        },
        {
          "internalType": "bytes32",
          "name": "challenge_digest",
          "type": "bytes32"
        }
      ],
      "name": "mint",
      "outputs": [
        {
          "internalType": "bool",
          "name": "success",
          "type": "bool"
        }
      ],
      "stateMutability": "nonpayable",
      "type": "function"
    },
    {
      "inputs": [
        {
          "internalType": "bytes4",
          "name": "nonce",
          "type": "bytes4"
        },
        {
          "internalType": "bytes",
          "name": "blockHeader",
          "type": "bytes"
        },
        {
          "internalType": "bytes32",
          "name": "currentChallenge",
          "type": "bytes32"
        },
        {
          "internalType": "bytes",
          "name": "randomxHash",
          "type": "bytes"
        },
        {
          "internalType": "uint256",
          "name": "claimedTarget",
          "type": "uint256"
        },
        {
          "internalType": "bytes",
          "name": "seedHash",
          "type": "bytes"
        },
        {
          "internalType": "bytes8",
          "name": "extraNonce",
          "type": "bytes8"
        }
      ],
      "name": "mintrandomX",
      "outputs": [
        {
          "internalType": "bool",
          "name": "success",
          "type": "bool"
        }
      ],
      "stateMutability": "nonpayable",
      "type": "function"
    },
    {
      "inputs": [],
      "name": "name",
      "outputs": [
        {
          "internalType": "string",
          "name": "",
          "type": "string"
        }
      ],
      "stateMutability": "view",
      "type": "function"
    },
    {
      "inputs": [],
      "name": "periodrewardtemp",
      "outputs": [
        {
          "internalType": "uint256",
          "name": "",
          "type": "uint256"
        }
      ],
      "stateMutability": "view",
      "type": "function"
    },
    {
      "inputs": [
        {
          "internalType": "uint256",
          "name": "",
          "type": "uint256"
        }
      ],
      "name": "periods",
      "outputs": [
        {
          "internalType": "uint256",
          "name": "id",
          "type": "uint256"
        },
        {
          "internalType": "uint256",
          "name": "interval",
          "type": "uint256"
        },
        {
          "internalType": "uint256",
          "name": "curation_sum",
          "type": "uint256"
        },
        {
          "internalType": "uint256",
          "name": "editor_sum",
          "type": "uint256"
        },
        {
          "internalType": "uint256",
          "name": "reward_for_curation",
          "type": "uint256"
        },
        {
          "internalType": "uint256",
          "name": "reward_for_editor",
          "type": "uint256"
        },
        {
          "internalType": "uint256",
          "name": "forprops",
          "type": "uint256"
        },
        {
          "internalType": "uint256",
          "name": "againstprops",
          "type": "uint256"
        }
      ],
      "stateMutability": "view",
      "type": "function"
    },
    {
      "inputs": [],
      "name": "periodsCounter",
      "outputs": [
        {
          "internalType": "uint256",
          "name": "",
          "type": "uint256"
        }
      ],
      "stateMutability": "view",
      "type": "function"
    },
    {
      "inputs": [
        {
          "internalType": "bytes32",
          "name": "",
          "type": "bytes32"
        }
      ],
      "name": "proposals",
      "outputs": [
        {
          "internalType": "uint256",
          "name": "id",
          "type": "uint256"
        },
        {
          "internalType": "bytes32",
          "name": "proposed_release_hash",
          "type": "bytes32"
        },
        {
          "internalType": "bytes32",
          "name": "disease_id",
          "type": "bytes32"
        },
        {
          "internalType": "uint256",
          "name": "period_id",
          "type": "uint256"
        },
        {
          "internalType": "uint256",
          "name": "chunk_id",
          "type": "uint256"
        },
        {
          "internalType": "address",
          "name": "proposer",
          "type": "address"
        },
        {
          "internalType": "string",
          "name": "title",
          "type": "string"
        },
        {
          "internalType": "string",
          "name": "description",
          "type": "string"
        },
        {
          "internalType": "string",
          "name": "freefield",
          "type": "string"
        },
        {
          "internalType": "string",
          "name": "raw_release_hash",
          "type": "string"
        }
      ],
      "stateMutability": "view",
      "type": "function"
    },
    {
      "inputs": [],
      "name": "proposalsCounter",
      "outputs": [
        {
          "internalType": "uint256",
          "name": "",
          "type": "uint256"
        }
      ],
      "stateMutability": "view",
      "type": "function"
    },
    {
      "inputs": [
        {
          "internalType": "uint256",
          "name": "",
          "type": "uint256"
        }
      ],
      "name": "proposalsbyIndex",
      "outputs": [
        {
          "internalType": "bytes32",
          "name": "",
          "type": "bytes32"
        }
      ],
      "stateMutability": "view",
      "type": "function"
    },
    {
      "inputs": [
        {
          "internalType": "bytes32",
          "name": "_diseasehash",
          "type": "bytes32"
        },
        {
          "internalType": "string",
          "name": "_title",
          "type": "string"
        },
        {
          "internalType": "string",
          "name": "_description",
          "type": "string"
        },
        {
          "internalType": "string",
          "name": "raw_release_hash",
          "type": "string"
        },
        {
          "internalType": "string",
          "name": "_freefield",
          "type": "string"
        },
        {
          "internalType": "uint256",
          "name": "_chunkid",
          "type": "uint256"
        }
      ],
      "name": "propose",
      "outputs": [],
      "stateMutability": "nonpayable",
      "type": "function"
    },
    {
      "inputs": [
        {
          "internalType": "bytes32",
          "name": "",
          "type": "bytes32"
        }
      ],
      "name": "propsdatas",
      "outputs": [
        {
          "internalType": "uint256",
          "name": "starttime",
          "type": "uint256"
        },
        {
          "internalType": "uint256",
          "name": "endtime",
          "type": "uint256"
        },
        {
          "internalType": "uint256",
          "name": "finalized_time",
          "type": "uint256"
        },
        {
          "internalType": "enum EticaRelease.ProposalStatus",
          "name": "status",
          "type": "uint8"
        },
        {
          "internalType": "enum EticaRelease.ProposalStatus",
          "name": "prestatus",
          "type": "uint8"
        },
        {
          "internalType": "bool",
          "name": "istie",
          "type": "bool"
        },
        {
          "internalType": "uint256",
          "name": "nbvoters",
          "type": "uint256"
        },
        {
          "internalType": "uint256",
          "name": "slashingratio",
          "type": "uint256"
        },
        {
          "internalType": "uint256",
          "name": "forvotes",
          "type": "uint256"
        },
        {
          "internalType": "uint256",
          "name": "againstvotes",
          "type": "uint256"
        },
        {
          "internalType": "uint256",
          "name": "lastcuration_weight",
          "type": "uint256"
        },
        {
          "internalType": "uint256",
          "name": "lasteditor_weight",
          "type": "uint256"
        },
        {
          "internalType": "uint256",
          "name": "approvalthreshold",
          "type": "uint256"
        }
      ],
      "stateMutability": "view",
      "type": "function"
    },
    {
      "inputs": [
        {
          "internalType": "address",
          "name": "",
          "type": "address"
        },
        {
          "internalType": "bytes32",
          "name": "",
          "type": "bytes32"
        }
      ],
      "name": "qamounts",
      "outputs": [
        {
          "internalType": "uint256",
          "name": "amount",
          "type": "uint256"
        }
      ],
      "stateMutability": "view",
      "type": "function"
    },
    {
      "inputs": [],
      "name": "randomxBlob",
      "outputs": [
        {
          "internalType": "bytes",
          "name": "",
          "type": "bytes"
        }
      ],
      "stateMutability": "view",
      "type": "function"
    },
    {
      "inputs": [
        {
          "internalType": "bytes32",
          "name": "",
          "type": "bytes32"
        },
        {
          "internalType": "bytes32",
          "name": "",
          "type": "bytes32"
        }
      ],
      "name": "randomxSealSolutions",
      "outputs": [
        {
          "internalType": "bytes32",
          "name": "",
          "type": "bytes32"
        }
      ],
      "stateMutability": "view",
      "type": "function"
    },
    {
      "inputs": [],
      "name": "randomxSeedhash",
      "outputs": [
        {
          "internalType": "bytes",
          "name": "",
          "type": "bytes"
        }
      ],
      "stateMutability": "view",
      "type": "function"
    },
    {
      "inputs": [
        {
          "internalType": "bytes32",
          "name": "_proposed_release_hash",
          "type": "bytes32"
        },
        {
          "internalType": "bool",
          "name": "_approved",
          "type": "bool"
        },
        {
          "internalType": "string",
          "name": "_vary",
          "type": "string"
        }
      ],
      "name": "recovercommit",
      "outputs": [],
      "stateMutability": "nonpayable",
      "type": "function"
    },
    {
      "inputs": [
        {
          "internalType": "bytes32",
          "name": "_votehash",
          "type": "bytes32"
        }
      ],
      "name": "recoverlostcommit",
      "outputs": [],
      "stateMutability": "nonpayable",
      "type": "function"
    },
    {
      "inputs": [
        {
          "internalType": "bytes32",
          "name": "_proposed_release_hash",
          "type": "bytes32"
        },
        {
          "internalType": "bool",
          "name": "_approved",
          "type": "bool"
        },
        {
          "internalType": "string",
          "name": "_vary",
          "type": "string"
        }
      ],
      "name": "revealvote",
      "outputs": [],
      "stateMutability": "nonpayable",
      "type": "function"
    },
    {
      "inputs": [
        {
          "internalType": "uint256",
          "name": "_stakeidx",
          "type": "uint256"
        }
      ],
      "name": "stakeclmidx",
      "outputs": [],
      "stateMutability": "nonpayable",
      "type": "function"
    },
    {
      "inputs": [
        {
          "internalType": "address",
          "name": "",
          "type": "address"
        },
        {
          "internalType": "uint256",
          "name": "",
          "type": "uint256"
        }
      ],
      "name": "stakes",
      "outputs": [
        {
          "internalType": "uint256",
          "name": "amount",
          "type": "uint256"
        },
        {
          "internalType": "uint256",
          "name": "endTime",
          "type": "uint256"
        }
      ],
      "stateMutability": "view",
      "type": "function"
    },
    {
      "inputs": [
        {
          "internalType": "address",
          "name": "",
          "type": "address"
        }
      ],
      "name": "stakesAmount",
      "outputs": [
        {
          "internalType": "uint256",
          "name": "",
          "type": "uint256"
        }
      ],
      "stateMutability": "view",
      "type": "function"
    },
    {
      "inputs": [
        {
          "internalType": "address",
          "name": "",
          "type": "address"
        }
      ],
      "name": "stakesCounters",
      "outputs": [
        {
          "internalType": "uint256",
          "name": "",
          "type": "uint256"
        }
      ],
      "stateMutability": "view",
      "type": "function"
    },
    {
      "inputs": [
        {
          "internalType": "address",
          "name": "_staker",
          "type": "address"
        }
      ],
      "name": "stakescount",
      "outputs": [
        {
          "internalType": "uint256",
          "name": "slength",
          "type": "uint256"
        }
      ],
      "stateMutability": "view",
      "type": "function"
    },
    {
      "inputs": [
        {
          "internalType": "uint256",
          "name": "_endTime",
          "type": "uint256"
        },
        {
          "internalType": "uint256",
          "name": "_min_limit",
          "type": "uint256"
        },
        {
          "internalType": "uint256",
          "name": "_maxidx",
          "type": "uint256"
        }
      ],
      "name": "stakescsldt",
      "outputs": [],
      "stateMutability": "nonpayable",
      "type": "function"
    },
    {
      "inputs": [
        {
          "internalType": "uint256",
          "name": "_stakeidx",
          "type": "uint256"
        },
        {
          "internalType": "uint256",
          "name": "_snapamount",
          "type": "uint256"
        }
      ],
      "name": "stakesnap",
      "outputs": [],
      "stateMutability": "nonpayable",
      "type": "function"
    },
    {
      "inputs": [],
      "name": "supply",
      "outputs": [
        {
          "internalType": "uint256",
          "name": "",
          "type": "uint256"
        }
      ],
      "stateMutability": "view",
      "type": "function"
    },
    {
      "inputs": [],
      "name": "symbol",
      "outputs": [
        {
          "internalType": "string",
          "name": "",
          "type": "string"
        }
      ],
      "stateMutability": "view",
      "type": "function"
    },
    {
      "inputs": [],
      "name": "tokensMinted",
      "outputs": [
        {
          "internalType": "uint256",
          "name": "",
          "type": "uint256"
        }
      ],
      "stateMutability": "view",
      "type": "function"
    },
    {
      "inputs": [],
      "name": "totalSupply",
      "outputs": [
        {
          "internalType": "uint256",
          "name": "",
          "type": "uint256"
        }
      ],
      "stateMutability": "view",
      "type": "function"
    },
    {
      "inputs": [
        {
          "internalType": "address",
          "name": "to",
          "type": "address"
        },
        {
          "internalType": "uint256",
          "name": "tokens",
          "type": "uint256"
        }
      ],
      "name": "transfer",
      "outputs": [
        {
          "internalType": "bool",
          "name": "success",
          "type": "bool"
        }
      ],
      "stateMutability": "nonpayable",
      "type": "function"
    },
    {
      "inputs": [
        {
          "internalType": "address",
          "name": "from",
          "type": "address"
        },
        {
          "internalType": "address",
          "name": "to",
          "type": "address"
        },
        {
          "internalType": "uint256",
          "name": "tokens",
          "type": "uint256"
        }
      ],
      "name": "transferFrom",
      "outputs": [
        {
          "internalType": "bool",
          "name": "",
          "type": "bool"
        }
      ],
      "stateMutability": "nonpayable",
      "type": "function"
    },
    {
      "inputs": [],
      "name": "updatecost",
      "outputs": [],
      "stateMutability": "nonpayable",
      "type": "function"
    },
    {
      "inputs": [],
      "name": "updatev2",
      "outputs": [],
      "stateMutability": "nonpayable",
      "type": "function"
    },
    {
      "inputs": [],
      "name": "updatev3",
      "outputs": [],
      "stateMutability": "nonpayable",
      "type": "function"
    },
    {
      "inputs": [
        {
          "internalType": "bytes32",
          "name": "",
          "type": "bytes32"
        },
        {
          "internalType": "address",
          "name": "",
          "type": "address"
        }
      ],
      "name": "votes",
      "outputs": [
        {
          "internalType": "bytes32",
          "name": "proposal_hash",
          "type": "bytes32"
        },
        {
          "internalType": "bool",
          "name": "approve",
          "type": "bool"
        },
        {
          "internalType": "bool",
          "name": "is_editor",
          "type": "bool"
        },
        {
          "internalType": "uint256",
          "name": "amount",
          "type": "uint256"
        },
        {
          "internalType": "address",
          "name": "voter",
          "type": "address"
        },
        {
          "internalType": "uint256",
          "name": "timestamp",
          "type": "uint256"
        },
        {
          "internalType": "bool",
          "name": "is_claimed",
          "type": "bool"
        }
      ],
      "stateMutability": "view",
      "type": "function"
    },
    {
      "stateMutability": "payable",
      "type": "receive"
    }
  ],
  "bytecode": "0x60c06040526005608090815264457469636160d81b60a05260009062000026908262000549565b5060408051808201909152600381526245544960e81b602082015260019062000050908262000549565b5060126002556408e4b1e125600655640e63c506db6007556107e0600e556004600f55600160e01b60105562093a806019556224ea00601a55621baf80601b5562093a80601c55600254600a620000a8919062000728565b620000b590606462000736565b601d55600254620000c890600a62000728565b620000d590600a62000736565b601e55611388601f5560056020556001602181905560225561182460235560006024556043805460ff1990811690915562093a8060445560458054909116905561019a6049553480156200012857600080fd5b5068056bc75e2d631000006003819055306000908152600960205260409020546200015391620001ce565b3060009081526009602052604090205568da5351938e7eb5b95c6005556002546200018090600a62000728565b6200018f9062b03d3062000736565b600b5560006017556801f30795e38ed87acc60135560105460115542600c55620001b8620001f2565b6b1004c20e49aa3240785fcad2600455620007c0565b6000620001dc828462000750565b905082811015620001ec57600080fd5b92915050565b600d5462000202906001620001ce565b600d819055600e5462000215916200077c565b60000362000227576200022762000277565b6200023443600162000433565b406012819055601854600d54604080516020810194909452830191909152606082015260800160408051601f198184030181529190528051602090910120601255565b601154600c546000906200028d90429062000433565b600e54909150600090620002a49061025862000456565b9050808210156200035b576000620002cb83620002c4846103e862000456565b9062000488565b9050610fa0811115620002dd5750610fa05b601054620002ee906103e862000488565b6011541015620003195760115462000310908290620002c4906103e862000456565b6011556200032c565b60105462000328908262000488565b6011555b6200033984600462000488565b601154101562000354576200035084600462000488565b6011555b5062000402565b60006200037082620002c4856103e862000456565b9050610fa0811115620003825750610fa05b60105462000391908262000488565b60115411620003bb57601154620003b2906103e890620002c4908462000456565b601155620003c2565b6010546011555b620003d1600019600462000488565b84116200040057620003e584600462000456565b60115411156200040057620003fc84600462000456565b6011555b505b42600c55600f5460115410156200041a57600f546011555b60105460115411156200042e576010546011555b505050565b6000828211156200044357600080fd5b6200044f828462000793565b9392505050565b600062000464828462000736565b90508215806200047e5750816200047c8483620007a9565b145b620001ec57600080fd5b60008082116200049757600080fd5b6200044f8284620007a9565b634e487b7160e01b600052604160045260246000fd5b600181811c90821680620004ce57607f821691505b602082108103620004ef57634e487b7160e01b600052602260045260246000fd5b50919050565b601f8211156200042e576000816000526020600020601f850160051c81016020861015620005205750805b601f850160051c820191505b8181101562000541578281556001016200052c565b505050505050565b81516001600160401b03811115620005655762000565620004a3565b6200057d81620005768454620004b9565b84620004f5565b602080601f831160018114620005b557600084156200059c5750858301515b600019600386901b1c1916600185901b17855562000541565b600085815260208120601f198616915b82811015620005e657888601518255948401946001909101908401620005c5565b5085821015620006055787850151600019600388901b60f8161c191681555b5050505050600190811b01905550565b634e487b7160e01b600052601160045260246000fd5b600181815b808511156200066c57816000190482111562000650576200065062000615565b808516156200065e57918102915b93841c939080029062000630565b509250929050565b6000826200068557506001620001ec565b816200069457506000620001ec565b8160018114620006ad5760028114620006b857620006d8565b6001915050620001ec565b60ff841115620006cc57620006cc62000615565b50506001821b620001ec565b5060208310610133831016604e8410600b8410161715620006fd575081810a620001ec565b6200070983836200062b565b806000190482111562000720576200072062000615565b029392505050565b60006200044f838362000674565b8082028115828204841417620001ec57620001ec62000615565b80820180821115620001ec57620001ec62000615565b634e487b7160e01b600052601260045260246000fd5b6000826200078e576200078e62000766565b500690565b81810381811115620001ec57620001ec62000615565b600082620007bb57620007bb62000766565b500490565b617e3180620007d06000396000f3fe6080604052600436106106895760003560e01c80636bb5a58211610359578063b54f31db116101c6578063d74ce8c511610102578063ea4a1104116100a0578063f71ae2aa1161007a578063f71ae2aa146115b2578063f8c12e2c146115c8578063f8d82683146115e8578063fc84abb71461161557600080fd5b8063ea4a1104146114b6578063ecd3cb821461154f578063f08a01f81461156f57600080fd5b8063dd62ed3e116100dc578063dd62ed3e146113f3578063e47e25a214611446578063e723b9d914611473578063e729798e146114a057600080fd5b8063d74ce8c5146113b2578063d89abcb5146113c8578063dc6e9cf9146113dd57600080fd5b8063c19885761161016f578063cf70fa4011610149578063cf70fa4014611343578063d03150c614611359578063d40170d71461136f578063d732b8351461138557600080fd5b8063c1988576146112c8578063c7bef6ee14611300578063cb9ae7071461132d57600080fd5b8063b87c0c1d116101a0578063b87c0c1d14611278578063be7d798e14611292578063bf6fc725146112a857600080fd5b8063b54f31db14611236578063b5ade81b1461124c578063b64077691461126257600080fd5b80638a769d351161029557806397566aa01161023e578063a9059cbb11610218578063a9059cbb146111c1578063b01ab0b2146111e1578063b31102e2146111f6578063b4ef00f01461121657600080fd5b806397566aa01461111e5780639969017814611195578063a5ec87e4146111ab57600080fd5b80639386775a1161026f5780639386775a1461100a57806395bd852e146110db57806395d89b411461110957600080fd5b80638a769d3514610fa65780638ae0368b14610fbc57806391efa91414610fd257600080fd5b80637516528011610302578063829965cc116102dc578063829965cc14610f20578063841218ee14610f3657806387a2a9d614610f635780638885898514610f7957600080fd5b80637516528014610ea15780637f66cb4e14610ee057806381269a5614610f0057600080fd5b80636fd396d6116103335780636fd396d614610df65780637006695114610e4857806370a0823114610e5e57600080fd5b80636bb5a58214610daa5780636de9f32b14610dca5780636fbbbf1d14610de057600080fd5b806332e99708116104f7578063490203a711610433578063584b62a1116103dc5780635dbdda69116103b65780635dbdda6914610cf95780635dfa739614610d0f57806362adb2e114610d525780636352170f14610d8a57600080fd5b8063584b62a114610c5f5780635965916f14610cb35780635a2bc22d14610cc857600080fd5b8063509fce5b1161040d578063509fce5b14610bfc5780635327d4af14610c125780635708416414610c3257600080fd5b8063490203a714610b345780634b44c6aa14610b495780634ef3762814610be757600080fd5b806337eed2d6116104a05780633c5e64d11161047a5780633c5e64d114610a98578063410e1b0714610ab8578063424d389414610ace57806346459b2214610b0657600080fd5b806337eed2d614610a565780633925bfe714610a6c5780633ab3429014610a8257600080fd5b8063366c41a3116104d1578063366c41a314610a1557806336dfec1c14610a2b578063370ef54f14610a4057600080fd5b806332e997081461099d57806332ed5b12146109b2578063356df5ee146109e857600080fd5b806317da485f116105c6578063229cb73c1161056f57806327e235e31161054957806327e235e31461092e5780632e1750041461095b5780632f40907c14610971578063313ce5671461098757600080fd5b8063229cb73c146108d957806322ae4ccf146108ee57806323b872dd1461090e57600080fd5b80631853f0a8116105a05780631853f0a81461086b5780631883a8d0146108815780631dcc83a9146108b957600080fd5b806317da485f1461081e5780631801fbe51461083357806318160ddd1461085657600080fd5b8063095ea7b3116106335780630dbc6c551161060d5780630dbc6c55146107b05780631081a47e146107c6578063141a3dcf146107f3578063163aa00d1461080857600080fd5b8063095ea7b3146107565780630d899b1b146107765780630db5fea41461079057600080fd5b8063047fc9aa11610664578063047fc9aa1461070857806305103f5e1461071e57806306fdde031461073457600080fd5b8062e6e553146106985780630206cea3146106c1578063037d2f35146106d857600080fd5b3661069357600080fd5b600080fd5b3480156106a457600080fd5b506106ae60075481565b6040519081526020015b60405180910390f35b3480156106cd57600080fd5b506106d6611642565b005b3480156106e457600080fd5b506106f86106f3366004616fcc565b611704565b60405190151581526020016106b8565b34801561071457600080fd5b506106ae60035481565b34801561072a57600080fd5b506106ae60495481565b34801561074057600080fd5b50610749611c3b565b6040516106b8919061711e565b34801561076257600080fd5b506106f8610771366004617155565b611cc9565b34801561078257600080fd5b506045546106f89060ff1681565b34801561079c57600080fd5b506106d66107ab36600461717f565b611d65565b3480156107bc57600080fd5b506106ae60225481565b3480156107d257600080fd5b506106ae6107e13660046171dd565b602d6020526000908152604090205481565b3480156107ff57600080fd5b50610749612479565b34801561081457600080fd5b506106ae60155481565b34801561082a57600080fd5b506106ae612486565b34801561083f57600080fd5b506106f861084e3660046171f6565b600092915050565b34801561086257600080fd5b506003546106ae565b34801561087757600080fd5b506106ae602a5481565b34801561088d57600080fd5b506106ae61089c366004617155565b604260209081526000928352604080842090915290825290205481565b3480156108c557600080fd5b506106d66108d4366004617218565b6124a4565b3480156108e557600080fd5b506106ae612990565b3480156108fa57600080fd5b506106d66109093660046171f6565b6129a9565b34801561091a57600080fd5b506106f86109293660046172d7565b612bce565b34801561093a57600080fd5b506106ae610949366004617313565b60096020526000908152604090205481565b34801561096757600080fd5b506106ae601a5481565b34801561097d57600080fd5b506106ae60365481565b34801561099357600080fd5b506106ae60025481565b3480156109a957600080fd5b506011546106ae565b3480156109be57600080fd5b506109d26109cd3660046171dd565b612d00565b6040516106b89a9998979695949392919061732e565b3480156109f457600080fd5b506106ae610a033660046171dd565b60326020526000908152604090205481565b348015610a2157600080fd5b506106ae601d5481565b348015610a3757600080fd5b50610749612f88565b348015610a4c57600080fd5b506106ae601b5481565b348015610a6257600080fd5b506106ae60245481565b348015610a7857600080fd5b506106ae601c5481565b348015610a8e57600080fd5b506106ae601f5481565b348015610aa457600080fd5b506106d6610ab33660046173cb565b612f95565b348015610ac457600080fd5b506106ae600b5481565b348015610ada57600080fd5b506106ae610ae93660046171f6565b603760209081526000928352604080842090915290825290205481565b348015610b1257600080fd5b50610b26610b213660046171dd565b613135565b6040516106b892919061742e565b348015610b4057600080fd5b506106ae6131da565b348015610b5557600080fd5b50610bce610b643660046171dd565b603460205260009081526040902080546001820154600283015460038401546004850154600586015460068701546007880154600889015460098a0154600a909a015498999798969760ff808816986101008904821698620100009004909116969594939291908d565b6040516106b89d9c9b9a999897969594939291906174b1565b348015610bf357600080fd5b506012546106ae565b348015610c0857600080fd5b506106ae60085481565b348015610c1e57600080fd5b506106d6610c2d366004617527565b6131f4565b348015610c3e57600080fd5b506106ae610c4d366004617313565b603d6020526000908152604090205481565b348015610c6b57600080fd5b50610c9e610c7a366004617155565b603e6020908152600092835260408084209091529082529020805460019091015482565b604080519283526020830191909152016106b8565b348015610cbf57600080fd5b5061074961338e565b348015610cd457600080fd5b50610ce8610ce33660046171dd565b6133ab565b6040516106b8959493929190617553565b348015610d0557600080fd5b506106ae60195481565b348015610d1b57600080fd5b506106ae610d2a366004617313565b73ffffffffffffffffffffffffffffffffffffffff166000908152603f602052604090205490565b348015610d5e57600080fd5b506106ae610d6d3660046171f6565b602f60209081526000928352604080842090915290825290205481565b348015610d9657600080fd5b506106d6610da536600461717f565b6134ec565b348015610db657600080fd5b506106d6610dc5366004617596565b613d08565b348015610dd657600080fd5b506106ae60175481565b348015610dec57600080fd5b506106ae602c5481565b348015610e0257600080fd5b50601454610e239073ffffffffffffffffffffffffffffffffffffffff1681565b60405173ffffffffffffffffffffffffffffffffffffffff90911681526020016106b8565b348015610e5457600080fd5b506106ae60215481565b348015610e6a57600080fd5b506106ae610e79366004617313565b73ffffffffffffffffffffffffffffffffffffffff1660009081526009602052604090205490565b348015610ead57600080fd5b50610c9e610ebc366004617155565b603c6020908152600092835260408084209091529082529020805460019091015482565b348015610eec57600080fd5b506106d6610efb3660046171dd565b613eb8565b348015610f0c57600080fd5b506106f8610f1b3660046175cb565b61436a565b348015610f2c57600080fd5b506106ae600d5481565b348015610f4257600080fd5b506106ae610f513660046171dd565b60306020526000908152604090205481565b348015610f6f57600080fd5b506106ae60105481565b348015610f8557600080fd5b506106ae610f943660046171dd565b60296020526000908152604090205481565b348015610fb257600080fd5b506106ae60115481565b348015610fc857600080fd5b506106ae60125481565b348015610fde57600080fd5b506106ae610fed3660046171f6565b604660209081526000928352604080842090915290825290205481565b34801561101657600080fd5b506110886110253660046175fd565b603b602090815260009283526040808420909152908252902080546001820154600283015460038401546004850154600590950154939460ff8085169561010090950481169473ffffffffffffffffffffffffffffffffffffffff909316921687565b60408051978852951515602088015293151594860194909452606085019190915273ffffffffffffffffffffffffffffffffffffffff16608084015260a0830191909152151560c082015260e0016106b8565b3480156110e757600080fd5b506110fb6110f6366004617629565b6143da565b6040516106b89291906176a0565b34801561111557600080fd5b506107496145cc565b34801561112a57600080fd5b506106ae611139366004617527565b604080516020808201939093523360601b7fffffffffffffffffffffffffffffffffffffffff00000000000000000000000016818301526054808201959095528151808203909501855260740190528251920191909120919050565b3480156111a157600080fd5b506106ae601e5481565b3480156111b757600080fd5b506106ae60335481565b3480156111cd57600080fd5b506106f86111dc366004617155565b6145d9565b3480156111ed57600080fd5b506106d6614698565b34801561120257600080fd5b506106d66112113660046171f6565b614751565b34801561122257600080fd5b506106ae611231366004617596565b6148e2565b34801561124257600080fd5b506106ae60065481565b34801561125857600080fd5b506106ae600e5481565b34801561126e57600080fd5b506106ae60045481565b34801561128457600080fd5b506043546106f89060ff1681565b34801561129e57600080fd5b506106ae60205481565b3480156112b457600080fd5b506106f86112c3366004617155565b61490a565b3480156112d457600080fd5b506106ae6112e33660046171f6565b603860209081526000928352604080842090915290825290205481565b34801561130c57600080fd5b506106ae61131b366004617313565b60406020819052600091825290205481565b34801561133957600080fd5b506106ae600c5481565b34801561134f57600080fd5b506106ae60135481565b34801561136557600080fd5b506106ae60285481565b34801561137b57600080fd5b506106ae60055481565b34801561139157600080fd5b506106ae6113a0366004617313565b603f6020526000908152604090205481565b3480156113be57600080fd5b506106ae60265481565b3480156113d457600080fd5b506106d6614959565b3480156113e957600080fd5b506106ae600f5481565b3480156113ff57600080fd5b506106ae61140e3660046176bb565b73ffffffffffffffffffffffffffffffffffffffff9182166000908152600a6020908152604080832093909416825291909152205490565b34801561145257600080fd5b506106ae6114613660046171dd565b603a6020526000908152604090205481565b34801561147f57600080fd5b506106ae61148e3660046171dd565b60396020526000908152604090205481565b3480156114ac57600080fd5b506106ae60235481565b3480156114c257600080fd5b506115146114d13660046171dd565b6025602052600090815260409020805460018201546002830154600384015460048501546005860154600687015460079097015495969495939492939192909188565b604080519889526020890197909752958701949094526060860192909252608085015260a084015260c083015260e0820152610100016106b8565b34801561155b57600080fd5b506106d661156a3660046171dd565b614a0e565b34801561157b57600080fd5b506106ae61158a366004617313565b73ffffffffffffffffffffffffffffffffffffffff166000908152603d602052604090205490565b3480156115be57600080fd5b506106ae60445481565b3480156115d457600080fd5b506106d66115e33660046171dd565b614c32565b3480156115f457600080fd5b506106ae6116033660046171dd565b60276020526000908152604090205481565b34801561162157600080fd5b506106ae611630366004617313565b60416020526000908152604090205481565b60455460ff161561165257600080fd5b60025461166090600a617834565b61166c906103e8617840565b601e55611677615596565b60479061168490826178fa565b5061168d6156d8565b60489061169a90826178fa565b507fffffffffffffffffffffffffffffffffffffffffffffffffffffffffffffffff60108190556116ce9062030d40615742565b60115561019a604955604580547fffffffffffffffffffffffffffffffffffffffffffffffffffffffffffffff00166001179055565b600060476040516117159190617a14565b6040518091039020878051906020012014611791576040517f08c379a000000000000000000000000000000000000000000000000000000000815260206004820152601460248201527f426c6f636b486561646572206d69736d6174636800000000000000000000000060448201526064015b60405180910390fd5b601254861461179f57600080fd5b60486040516117ae9190617a14565b6040518091039020838051906020012014611825576040517f08c379a000000000000000000000000000000000000000000000000000000000815260206004820152601160248201527f5365656468617368206d69736d617463680000000000000000000000000000006044820152606401611788565b60115484111561183457600080fd5b6040517fffffffffffffffffffffffffffffffffffffffff0000000000000000000000003360601b1660208201527fffffffff0000000000000000000000000000000000000000000000000000000089166034820152600090603801604080517fffffffffffffffffffffffffffffffffffffffffffffffffffffffffffffffe0818403018152918152815160209283012060125460009081526046845282812082825290935290822054909250908190036118ef57600080fd5b60008a87878a6040516020016119089493929190617aa8565b60405160208183030381529060405280519060200120905081811461192c57600080fd5b601254600090815260166020526040902054801561194957600080fd5b601254600090815260166020526040902083905560025461196b90600a617834565b61197890621cd6d0617840565b6017541161199f576801f30795e38ed87acc60135568da5351938e7eb5b95c600555611b08565b6002546119ad90600a617834565b6119ba906269be50617840565b60175410156119e3576801bb94f70329a3fb606013556901b4a6a3271cfd6b72b8600555611b08565b6002546119f190600a617834565b6119fe9062aba950617840565b6017541015611a275768011d28e7efbf572199601355690118b444500059c512e4600555611b08565b600254611a3590600a617834565b611a429062cc9ed0617840565b6017541015611a6957678e9473f7dfab90cc601355688c5a2228002ce289a4600555611b08565b600254611a7790600a617834565b611a849062dd1990617840565b6017541015611aab5767474a39fbefd5c86660135568462d111400167144a0600555611b08565b600354600090611abd90612710615761565b90506000611acc826064615742565b9050611aea631f5406b0611ae4606481856050615761565b90615742565b601355611b026207f4d5611ae4606481856014615761565b60055550505b601354601754611b179161578d565b6017819055600b5411611b2c57611b2c617b0d565b601354600354611b3b9161578d565b60035560135433600090815260096020526040902054611b5a9161578d565b33600081815260096020526040902091909155601480547fffffffffffffffffffffffff000000000000000000000000000000000000000016909117905543601555611ba46157a8565b601354600d546012546040805193845260208401929092529082015233907fcf6fbb9dcea7d07263ab4f5c3a92f53af33dffc421d9d121e1c74b307e68189d9060600160405180910390a2601354604051908152339030907fddf252ad1be2c89b69c2b068fc378daa952ba7f163c4a11628f55a4df523b3ef9060200160405180910390a35060019b9a5050505050505050505050565b60008054611c4890617857565b80601f0160208091040260200160405190810160405280929190818152602001828054611c7490617857565b8015611cc15780601f10611c9657610100808354040283529160200191611cc1565b820191906000526020600020905b815481529060010190602001808311611ca457829003601f168201915b505050505081565b33600090815260096020526040812054821115611ce557600080fd5b60008211611cf257600080fd5b336000818152600a6020908152604080832073ffffffffffffffffffffffffffffffffffffffff881680855290835292819020869055518581529192917f8c5be1e5ebec7d5bd14f71427d1e84f3dd0314c0f7b2291e5b200ac8c7c3b92591015b60405180910390a35060015b92915050565b600083833384604051602001611d7e9493929190617b3c565b604080517fffffffffffffffffffffffffffffffffffffffffffffffffffffffffffffffe08184030181529181528151602092830120336000908152603c8452828120828252909352912054909150611dd657600080fd5b6000848152603160205260409020805415801590611df75750848160010154145b611e0057600080fd5b6000858152603460205260409020601c546001820154611e1f9161578d565b4211611e2a57600080fd5b336000818152603c602090815260408083208784528252808320549383526041909152902054611e5991615886565b336000908152604160209081526040808320939093556003850154825260259052908120601954909190611e8e904290615742565b90506000611eba6001611eb4601954611ae4601c54601b5461578d90919063ffffffff16565b9061578d565b6001840154909150611ecc908261578d565b821015611ed857600080fd5b60008815611ee4575060015b336000908152603c602090815260408083208a84529091528120546005870154602154601a54929392611f2d9261271092611ae492611f27916004918391615761565b90615761565b905060038088810154610100900460ff1690811115611f4e57611f4e617447565b03611f5857506044545b600387810154610100900460ff1690811115611f7657611f76617447565b836003811115611f8857611f88617447565b03611fc757611fc4612710611ae48960050154612711611fa89190617b79565b611f276002611f27602154601a5461576190919063ffffffff16565b90505b336000908152603c602090815260408083208c8452909152812054611ff490606490611ae490600a615761565b90506126ac88600501541180156120395750600388810154610100900460ff169081111561202457612024617447565b84600381111561203657612036617447565b14155b1561204c57612049816002615761565b90505b60408051828152602081018f905233917f53ef86fe8b545e88c8078a71aa8a9be4140e6f140b4e36f0ffee9207cf1ee896910160405180910390a2600854612094908261578d565b600855336000908152603c602090815260408083208d84529091529020546120bc9082615886565b925060015b336000908152603f602052604090205481116121b357336000908152603e6020908152604080832084845290915290205482101561216957336000908152603e6020908152604080832084845290915290205461211e9083615886565b336000818152603e6020908152604080832086845282528083209490945591815290829052205461214f9083615886565b3360009081526040602081905281209190915591506121b3565b336000908152603e6020908152604080832084845290915290205461218f908390615886565b915061219b338261589f565b81156121b357806121ab81617b8c565b9150506120c1565b5082156123f85760408051848152602081018f905290810183905233907fd93567a4d470fa277429086aae141410cccc35c73954734ea3e24152fc044f359060600160405180910390a260015b336000908152603f602052604090205481116123f657336000908152603e60209081526040808320848452909152902054841061230357336000908152603e602090815260408083208484529091529020600101544210156122a757336000908152603e60209081526040808320848452909152902060010154612284908461578d565b336000908152603e602090815260408083208584529091529020600101556122d0565b6122b1428461578d565b336000908152603e602090815260408083208584529091529020600101555b336000908152603e602090815260408083208484529091529020546122f6908590615886565b935083156123f6576123e4565b336000908152603e602090815260408083208484529091528120546123289086615886565b336000908152603e602090815260408083208684529091529020600181015490879055909150428111156123a157336000908152603e6020908152604080832086845290915290206001015461237e908661578d565b336000908152603e602090815260408083208784529091529020600101556123ca565b6123ab428661578d565b336000908152603e602090815260408083208784529091529020600101555b81156123dd576123db3383836159de565b505b50506123f6565b806123ee81617b8c565b915050612200565b505b6001890154336000818152603c602090815260408083208f84528252918290205491519182527f3ededec39a86b2261e09be07993014ceae66346b9af09000ec0cc87fe2d8f9de910160405180910390a3336000908152603c602090815260408083208d845290915281208181556001015550505050505050505050505050565b60488054611c4890617857565b600061249f60115460105461574290919063ffffffff16565b905090565b6000868152602d6020526040902054158015906124d15750602c546000878152602d602052604090205411155b6124da57600080fd5b6000868152602d60209081526040808320548352602b909152902054861461250157600080fd5b60365481111561251057600080fd5b60008387604051602001612525929190617bc4565b604080517fffffffffffffffffffffffffffffffffffffffffffffffffffffffffffffffe0818403018152918152815160209283012060008a8152603090935291205490915061257690600161578d565b6000888152603060209081526040808320849055602f8252808320938352929052208190556033546125a990600161578d565b603381905560009081526032602090815260408083208490558383526031909152902060010154801515806125eb575060008281526031602052604090205415155b156125f557600080fd5b600061260c6019544261574290919063ffffffff16565b6000818152602960205260408120549192500361262b5761262b615a7e565b60008381526031602090815260408083206033548155600281018d90558484526029909252909120546003820155600181018490556005810180547fffffffffffffffffffffffff000000000000000000000000000000000000000016331790556006810161269a8a826178fa565b50600781016126a989826178fa565b50600981016126b888826178fa565b50600881016126c787826178fa565b5060008481526034602052604081206003810180547fffffffffffffffffffffffffffffffffffffffffffffffffffffffffff00000016620102021790556004810182905560058101829055600681018290556007810182905560088101829055600981019190915542808255601b54612741919061578d565b6001820155601f54600a820155601e54336000908152603d6020526040902054101561276c57600080fd5b601e54336000908152603d602052604090205461278891615886565b336000908152603d6020908152604080832093909355601e546041909152919020546127b39161578d565b33600081815260416020908152604080832094909455600186810154808452603b8352858420858552835285842090815590810180547fffffffffffffffffffffffffffffffffffffffffffffffffffffffffffff000016610101179055601e546002820155600380820180547fffffffffffffffffffffffff00000000000000000000000000000000000000001690951790945542600482015592850180547fffffffffffffffffffffffffffffffffffffffffffffffffffffffffffff00ff1661030017905589825260359052919091205480158015906128a657506000888152603560205260409020600101548d145b156128f757600484018890556000888152603a60205260409020546128cc90600161578d565b6000898152603a60209081526040808320849055600188015460388352818420948452939091529020555b6018546040805160208101929092528101889052606001604080518083037fffffffffffffffffffffffffffffffffffffffffffffffffffffffffffffffe001815290829052805160209182012060185560028601548983528a92909133917ff20f961bd89931f54768689d741307497501063bee5847fc3fcaa72b026d1859910160405180910390a450505050505050505050505050565b600061249f60085460035461588690919063ffffffff16565b61271082116129b757600080fd5b336000908152603d60205260409020548211156129d357600080fd5b336000908152603d60205260409020546129ed9083615886565b336000908152603d6020908152604080832093909355604190522054612a13908361578d565b336000908152604160209081526040808320849055603d909152902054612a399161578d565b336000908152604060208190529020541015612afd576040517f08c379a000000000000000000000000000000000000000000000000000000000815260206004820152605760248201527f457469636152656c656173653a2045786365737320626f736f6d7320666f722060448201527f74686973206e657720766f746520616d6f756e742c20636c61696d20736f6d6560648201527f207374616b6573206265666f7265206e657720766f7465000000000000000000608482015260a401611788565b336000908152603c60209081526040808320848452909152902054612b22908361578d565b336000908152603c60209081526040808320858452825291829020928355426001909301929092556018548151928301528101829052606001604080518083037fffffffffffffffffffffffffffffffffffffffffffffffffffffffffffffffe00181528282528051602091820120601855838352820184905233917f8a1ff244f8a72f76c71ce96c1ddf485af695058f9e3638a8359e74257d71a30691015b60405180910390a25050565b73ffffffffffffffffffffffffffffffffffffffff8316600090815260096020526040812054612bfe9083615886565b73ffffffffffffffffffffffffffffffffffffffff8516600090815260096020908152604080832093909355600a815282822033835290522054612c429083615886565b73ffffffffffffffffffffffffffffffffffffffff8086166000908152600a60209081526040808320338452825280832094909455918616815260099091522054612c8d908361578d565b73ffffffffffffffffffffffffffffffffffffffff80851660008181526009602052604090819020939093559151908616907fddf252ad1be2c89b69c2b068fc378daa952ba7f163c4a11628f55a4df523b3ef90612cee9086815260200190565b60405180910390a35060019392505050565b60316020526000908152604090208054600182015460028301546003840154600485015460058601546006870180549697959694959394929373ffffffffffffffffffffffffffffffffffffffff90921692612d5b90617857565b80601f0160208091040260200160405190810160405280929190818152602001828054612d8790617857565b8015612dd45780601f10612da957610100808354040283529160200191612dd4565b820191906000526020600020905b815481529060010190602001808311612db757829003601f168201915b505050505090806007018054612de990617857565b80601f0160208091040260200160405190810160405280929190818152602001828054612e1590617857565b8015612e625780601f10612e3757610100808354040283529160200191612e62565b820191906000526020600020905b815481529060010190602001808311612e4557829003601f168201915b505050505090806008018054612e7790617857565b80601f0160208091040260200160405190810160405280929190818152602001828054612ea390617857565b8015612ef05780601f10612ec557610100808354040283529160200191612ef0565b820191906000526020600020905b815481529060010190602001808311612ed357829003601f168201915b505050505090806009018054612f0590617857565b80601f0160208091040260200160405190810160405280929190818152602001828054612f3190617857565b8015612f7e5780601f10612f5357610100808354040283529160200191612f7e565b820191906000526020600020905b815481529060010190602001808311612f6157829003601f168201915b505050505090508a565b60478054611c4890617857565b6000838152602d602052604090205415801590612fc25750602c546000848152602d602052604090205411155b612fcb57600080fd5b6000838152602d60209081526040808320548352602b9091529020548314612ff257600080fd5b601d54600090613003906014615742565b3360009081526009602052604090205490915081111561302257600080fd5b61302c30826145d9565b5060365461303b90600161578d565b60365560008481526039602052604090205461305890600161578d565b600085815260396020908152604080832084815560365460378452828520958552948352818420859055815160a0810183528581528084018a81529154818401908152606082018a8152608083018a9052968652603590945291909320815181559251600184015590516002830155915160038201906130d890826178fa565b50608082015160048201906130ed90826178fa565b50506008546130fd91508261578d565b6008556036546040518591907fb733708a2586752275a4854aac54c7bb263ad67859f07d16147feea53ca009d790600090a350505050565b602b602052600090815260409020805460018201805491929161315790617857565b80601f016020809104026020016040519081016040528092919081815260200182805461318390617857565b80156131d05780601f106131a5576101008083540402835291602001916131d0565b820191906000526020600020905b8154815290600101906020018083116131b357829003601f168201915b5050505050905082565b6000600b54601754116131ee575060135490565b50600090565b613202426303c2670061578d565b831061320d57600080fd5b6032811115801561322d5750336000908152603f60205260409020548111155b61323657600080fd5b6000806001805b84811161333757336000908152603f602052604090205460021161332557336000908152603f6020526040902054811161327957809150613296565b6132838184615886565b9150600182101561329657613296617b0d565b336000908152603e6020908152604080832085845290915290206001015487108015906132e05750336000908152603e602090815260408083208584529091529020600101548611155b1561332557336000908152603e6020908152604080832085845290915290205461330b90859061578d565b9350613317338361589f565b61332283600161578d565b92505b8061332f81617b8c565b91505061323d565b50821561334b57613349338488615bde565b505b604080518781526020810187905233917f52806950881c6df8cc206c3b151fcc9aea7b2d53d8ff441469dffd05e851e3ab910160405180910390a2505050505050565b60405180610100016040528060d88152602001617d2460d8913981565b6035602052600090815260409020805460018201546002830154600384018054939492939192916133db90617857565b80601f016020809104026020016040519081016040528092919081815260200182805461340790617857565b80156134545780601f1061342957610100808354040283529160200191613454565b820191906000526020600020905b81548152906001019060200180831161343757829003601f168201915b50505050509080600401805461346990617857565b80601f016020809104026020016040519081016040528092919081815260200182805461349590617857565b80156134e25780601f106134b7576101008083540402835291602001916134e2565b820191906000526020600020905b8154815290600101906020018083116134c557829003601f168201915b5050505050905085565b6000838333846040516020016135059493929190617b3c565b604080517fffffffffffffffffffffffffffffffffffffffffffffffffffffffffffffffe08184030181529181528151602092830120336000908152603c845282812082825290935291205490915061355d57600080fd5b600084815260316020526040902080541580159061357e5750848160010154145b61358757600080fd5b6000858152603460209081526040808320600180820154338652603c855283862088875290945291909320015411156135bf57600080fd5b8060010154421180156135e25750601c5460018201546135de9161578d565b4211155b6135eb57600080fd5b6002600382810154610100900460ff169081111561360b5761360b617447565b0361361557600080fd5b600881015460098201546003840154600090815260256020908152604080832060018801548452603b8352818420338552909252909120548015158061367b575060018601546000908152603b6020908152604080832033845290915290206002015415155b1561368557600080fd5b6000603b60008860010154815260200190815260200160002060003373ffffffffffffffffffffffffffffffffffffffff1673ffffffffffffffffffffffffffffffffffffffff168152602001908152602001600020905086600101548160000181905550898160010160006101000a81548160ff02191690831515021790555060008160010160016101000a81548160ff021916908315150217905550603c60003373ffffffffffffffffffffffffffffffffffffffff1673ffffffffffffffffffffffffffffffffffffffff1681526020019081526020016000206000898152602001908152602001600020600001548160020181905550338160030160006101000a81548173ffffffffffffffffffffffffffffffffffffffff021916908373ffffffffffffffffffffffffffffffffffffffff1602179055504281600401819055506137e36001876004015461578d90919063ffffffff16565b6004870155336000908152603c602090815260408083208b8452909152812054670de0b6b3a7640000111561383f57336000908152603c602090815260408083208c8452909152902054613838906002615742565b9050613875565b61387261386f670a688906bd8b0000336000908152603c602090815260408083208f845290915290205490615cfc565b90565b90505b33600090815260426020908152604080832060018c0154845290915290208190558a156138b55760068701546138ab908261578d565b60068801556138ca565b60078701546138c4908261578d565b60078801555b60008060006138ea8a600701548b6006015461578d90919063ffffffff16565b905060006139076127108c6006015461576190919063ffffffff16565b600a8c015490915060009061391c8385615742565b111561392757600194505b600a8c01546139368385615742565b0361394057600193505b60038c0180547fffffffffffffffffffffffffffffffffffffffffffffffffffffffffff00ffff16620100008615150217905584156139cc57613995612710611ae4858f600a0154612710611f279190617b79565b90506139b481611ae46127108f6007015461576190919063ffffffff16565b90506139c281612710617b79565b60058d0155613a1c565b6139e9612710611ae48e600a01548661576190919063ffffffff16565b9050613a0881611ae46127108f6006015461576190919063ffffffff16565b9050613a1681612710617b79565b60058d01555b6127108c600501541115613a2f57600080fd5b60008515613a3b575060015b6003808e810154610100900460ff1690811115613a5a57613a5a617447565b03613a99578515613a7f5760068a0154613a7590600161578d565b60068b0155613b37565b60078a0154613a8f90600161578d565b60078b0155613b37565b60038d810154610100900460ff1690811115613ab757613ab7617447565b816003811115613ac957613ac9617447565b14613b37576001816003811115613ae257613ae2617447565b03613b0c5760078a0154613af7906001615886565b60078b015560068a0154613a7590600161578d565b60068a0154613b1c906001615886565b60068b015560078a0154613b3190600161578d565b60078b01555b8415613ba25760038d0180547fffffffffffffffffffffffffffffffffffffffffffffffffffffffffffff00ff169055600060088e0181905560098e015560028a0154613b84908d615886565b60028b015560038a0154613b98908c615886565b60038b0155613c86565b8515613c1b5760038d0180547fffffffffffffffffffffffffffffffffffffffffffffffffffffffffffff00ff1661010017905560068d015460088e0181905560098e0181905560028b0154613bfd9190611eb4908f615886565b60028b015560098d015460038b0154613b989190611eb4908e615886565b60038d0180547fffffffffffffffffffffffffffffffffffffffffffffffffffffffffffff00ff16905560078d015460088e01819055600060098f015560028b0154613c6c9190611eb4908f615886565b60028b015560038a0154613c80908c615886565b60038b01555b60018e0154600289015460405190815233907f4627acd8194d77d62502e6eb464100f9c2d8a487c62a6fd54048d3d8f1cb5c519060200160405180910390a3613cf48f336000908152603c602090815260408083208484528083529083208381559383529052600190910155565b505050505050505050505050505050505050565b6040805160008152602081018083528151902091613d2891849101617be6565b6040516020818303038152906040528051906020012003613d4857600080fd5b601d54336000908152600960205260409020541015613d6657600080fd5b613d7230601d546145d9565b50601d54600854613d829161578d565b600855604051600090613d9990839060200161711e565b604051602081830303815290604052805190602001209050613dc76001602c5461578d90919063ffffffff16565b602c556000818152602d602052604090205415613de357600080fd5b602e82604051613df39190617be6565b9081526040519081900360200190205415613e0d57600080fd5b6040805180820182528281526020808201858152602c546000908152602b9092529290208151815591519091906001820190613e4990826178fa565b5050602c546000838152602d6020526040908190209190915551829150602e90613e74908590617be6565b908152602001604051809103902081905550602c547f830578780908e1ff0fbde38777892998c31b30c39451a5a3b0e99cbf7bd781df83604051612bc2919061711e565b336000908152603c60209081526040808320848452909152902054613edc57600080fd5b336000818152603c602090815260408083208584528252808320549383526041909152902054613f0b91615886565b33600090815260416020908152604080832093909355603c81528282208483529052908120546044549091613f466064611ae4856015615761565b604080518281526000602082015291925033917f53ef86fe8b545e88c8078a71aa8a9be4140e6f140b4e36f0ffee9207cf1ee896910160405180910390a2600854613f91908261578d565b600855336000908152603c60209081526040808320878452909152902054613fb99082615886565b925060015b336000908152603f602052604090205481116140b057336000908152603e6020908152604080832084845290915290205482101561406657336000908152603e6020908152604080832084845290915290205461401b9083615886565b336000818152603e6020908152604080832086845282528083209490945591815290829052205461404c9083615886565b3360009081526040602081905281209190915591506140b0565b336000908152603e6020908152604080832084845290915290205461408c908390615886565b9150614098338261589f565b81156140b057806140a881617b8c565b915050613fbe565b5082156142f557604080518481526000602082015290810183905233907fd93567a4d470fa277429086aae141410cccc35c73954734ea3e24152fc044f359060600160405180910390a260015b336000908152603f602052604090205481116142f357336000908152603e60209081526040808320848452909152902054841061420057336000908152603e602090815260408083208484529091529020600101544210156141a457336000908152603e60209081526040808320848452909152902060010154614181908461578d565b336000908152603e602090815260408083208584529091529020600101556141cd565b6141ae428461578d565b336000908152603e602090815260408083208584529091529020600101555b336000908152603e602090815260408083208484529091529020546141f3908590615886565b935083156142f3576142e1565b336000908152603e602090815260408083208484529091528120546142259086615886565b336000908152603e6020908152604080832086845290915290206001810154908790559091504281111561429e57336000908152603e6020908152604080832086845290915290206001015461427b908661578d565b336000908152603e602090815260408083208784529091529020600101556142c7565b6142a8428661578d565b336000908152603e602090815260408083208784529091529020600101555b81156142da576142d83383836159de565b505b50506142f3565b806142eb81617b8c565b9150506140fd565b505b336000818152603c6020908152604080832088845282528083205490519081529192917f3ededec39a86b2261e09be07993014ceae66346b9af09000ec0cc87fe2d8f9de910160405180910390a3336000908152603c6020908152604080832087845290915281208181556001015550505050565b6040805160208082018590523360601b7fffffffffffffffffffffffffffffffffffffffff000000000000000000000000168284015260548083018890528351808403909101815260749092019092528051910120600090828111156143cf57600080fd5b909314949350505050565b6000606060476040516143ed9190617a14565b604051809103902086805190602001201461444057505060408051808201909152601481527f426c6f636b486561646572206d69736d6174636800000000000000000000000060208201526000906145c3565b601254851461448757505060408051808201909152601281527f4368616c6c656e6765206d69736d61746368000000000000000000000000000060208201526000906145c3565b60486040516144969190617a14565b60405180910390208380519060200120146144e957505060408051808201909152601181527f5365656468617368206d69736d6174636800000000000000000000000000000060208201526000906145c3565b60115484111561453157505060408051808201909152601781527f436c61696d65642074617267657420746f6f206869676800000000000000000060208201526000906145c3565b601254600090815260166020526040902054156145895760006040518060400160405280602081526020017f4368616c6c656e676520616c726561647920686173206120736f6c7574696f6e815250915091506145c3565b505060408051808201909152601481527f416c6c20706172616d65746572732076616c696400000000000000000000000060208201526001905b94509492505050565b60018054611c4890617857565b60008082116145e757600080fd5b336000908152600960205260409020546146019083615886565b336000908152600960205260408082209290925573ffffffffffffffffffffffffffffffffffffffff85168152205461463a908361578d565b73ffffffffffffffffffffffffffffffffffffffff84166000818152600960205260409081902092909255905133907fddf252ad1be2c89b69c2b068fc378daa952ba7f163c4a11628f55a4df523b3ef90611d539086815260200190565b6002546146a690600a617834565b6146b4906301406f40617840565b60035410156146c257600080fd5b60346026546146d19190617c31565b156146db57600080fd5b60006147006509184e72a000611ae46302d69be660035461576190919063ffffffff16565b90506000614727655af3107a4000611ae46302d69be660035461576190919063ffffffff16565b601e819055601d8390556026546024549192501161474757614747617b0d565b5050602654602455565b6000811161475e57600080fd5b60008211801561477d5750336000908152603f60205260409020548211155b61478657600080fd5b336000908152603e602090815260408083208584529091529020805482106147ad57600080fd5b80546000906147bc9084615886565b838355336000908152603f60205260409020549091506147dd90600161578d565b336000908152603f6020526040902081905560641015614859576040517f08c379a000000000000000000000000000000000000000000000000000000000815260206004820181905260248201527f43616e6e6f74206d616b65206d6f7265207468616e20313030207374616b65736044820152606401611788565b6040805180820182528281526001808501546020808401918252336000908152603e8252858120603f835286822054825290915293909320915182559151910155806148a7576148a7617b0d565b60405183815233907f5bbe98d566948f7d7db717dafb0a14082df525118fac86c23df2302f161c03479060200160405180910390a250505050565b6000602e826040516148f49190617be6565b9081526020016040518091039020549050919050565b60003373ffffffffffffffffffffffffffffffffffffffff84161461492e57600080fd5b6000821161493b57600080fd5b61494530836145d9565b506149508383615e0e565b50600192915050565b60435460ff161561496957600080fd5b60025461497790600a617834565b614982906064617840565b601e556090600e5560025461499890600a617834565b6149a59062f05370617840565b600b556149b0615e76565b6010546011546149c290610100615761565b116149da576011546149d690610100615761565b6011555b62127500604455604380547fffffffffffffffffffffffffffffffffffffffffffffffffffffffffffffff00166001179055565b600081118015614a2d5750336000908152603f60205260409020548111155b614a3657600080fd5b336000908152603e60209081526040808320848452909152902060018101544211614a6057600080fd5b336000908152604160209081526040808320549181905290912054614a8491615886565b81541115614a9157600080fd5b33600090815260416020908152604080832054603d90925290912054614ab69161578d565b815433600090815260406020819052902054614ad191615886565b1015614b5f573360009081526041602090815260408083205484549282905290832054614b0892614b029190615886565b90615886565b1115614b4e5733600090815260416020908152604080832054845492829052922054614b399291614b029190615886565b336000908152603d6020526040902055614b5f565b336000908152603d60205260408120555b805430600090815260096020526040902054614b7a91615886565b3060009081526009602052604080822092909255825433825291902054614ba09161578d565b336000818152600960209081526040918290209390935583549051908152909130917fddf252ad1be2c89b69c2b068fc378daa952ba7f163c4a11628f55a4df523b3ef910160405180910390a3805460405190815233907f2aeea59856f5616c244717fd488ead1d1b5fd33608d9583a4607b4c4ba3631e49060200160405180910390a2614c2e338361589f565b5050565b6000818152603160205260409020805415801590614c535750818160010154145b614c5c57600080fd5b6000828152603460205260409020601c546001820154614c7b9161578d565b4211614c8657600080fd5b60018201546000908152603b60209081526040808320338452909152902080548414614cb157600080fd5b600581015460ff1615614cc357600080fd5b6005810180547fffffffffffffffffffffffffffffffffffffffffffffffffffffffffffffff00166001179055600281015433600090815260416020526040902054614d0e91615886565b336000908152604160209081526040808320939093556003860154825260259052908120601954909190614d43904290615742565b90506000614d696001611eb4601954611ae4601c54601b5461578d90919063ffffffff16565b6001840154909150614d7b908261578d565b821015614d8757600080fd5b600260038087015460ff1690811115614da257614da2617447565b03614e30576001600386810154610100900460ff1690811115614dc757614dc7617447565b03614dfe576003850180547fffffffffffffffffffffffffffffffffffffffffffffffffffffffffffffff00166001179055614e29565b6003850180547fffffffffffffffffffffffffffffffffffffffffffffffffffffffffffffff001690555b4260028601555b600385015462010000900460ff1661550857600184015460009060ff1615614e56575060015b60038087015460ff1690811115614e6f57614e6f617447565b816003811115614e8157614e81617447565b146152fb576000856002015490506000614eb6612710611ae48a60050154611f27602154601a5461576190919063ffffffff16565b6001880154909150610100900460ff1615614edc57602254614ed9908290615761565b90505b612328886005015411156150ae576000614f096064611ae460038b6002015461576190919063ffffffff16565b90506126ac89600501541115614f3957614f366064611ae460078b6002015461576190919063ffffffff16565b90505b6001880154610100900460ff1615614f52575060028701545b875460405133917f53ef86fe8b545e88c8078a71aa8a9be4140e6f140b4e36f0ffee9207cf1ee89691614f8d91858252602082015260400190565b60405180910390a2600854614fa2908261578d565b6008556002880154614fb49082615886565b925060015b336000908152603f602052604090205481116150ab57336000908152603e6020908152604080832084845290915290205482101561506157336000908152603e602090815260408083208484529091529020546150169083615886565b336000818152603e602090815260408083208684528252808320949094559181529082905220546150479083615886565b3360009081526040602081905281209190915591506150ab565b336000908152603e60209081526040808320848452909152902054615087908390615886565b9150615093338261589f565b81156150ab57806150a381617b8c565b915050614fb9565b50505b81156152f4578654604080518481526020810192909252810182905233907fd93567a4d470fa277429086aae141410cccc35c73954734ea3e24152fc044f359060600160405180910390a260015b336000908152603f602052604090205481116152f257336000908152603e6020908152604080832084845290915290205483106151ff57336000908152603e602090815260408083208484529091529020600101544210156151a357336000908152603e60209081526040808320848452909152902060010154615180908361578d565b336000908152603e602090815260408083208584529091529020600101556151cc565b6151ad428361578d565b336000908152603e602090815260408083208584529091529020600101555b336000908152603e602090815260408083208484529091529020546151f2908490615886565b925082156152f2576152e0565b336000908152603e602090815260408083208484529091528120546152249085615886565b336000908152603e6020908152604080832086845290915290206001810154908690559091504281111561529d57336000908152603e6020908152604080832086845290915290206001015461527a908561578d565b336000908152603e602090815260408083208784529091529020600101556152c6565b6152a7428561578d565b336000908152603e602090815260408083208784529091529020600101555b81156152d9576152d73383836159de565b505b50506152f2565b806152ea81617b8c565b9150506150fc565b505b5050615506565b60008085600201541161530d57600080fd5b6001860154610100900460ff166153ad573360009081526042602090815260408083208c84529091529020541561538457600285015460048601543360009081526042602090815260408083208e845290915290205461537d92615376929091611ae491615761565b829061578d565b90506153ad565b6153aa6153768660020154611ae488600401548a6002015461576190919063ffffffff16565b90505b6001860154610100900460ff1680156153de5750600160038089015460ff16908111156153dc576153dc617447565b145b1561541d5760008560030154116153f457600080fd5b61541a6153768660030154611ae488600501548b6009015461576190919063ffffffff16565b90505b600585015460048601546154309161578d565b81111561543c57600080fd5b306000908152600960205260409020546154569082615886565b30600090815260096020526040808220929092553381522054615479908261578d565b336000818152600960205260409081902092909255905130907fddf252ad1be2c89b69c2b068fc378daa952ba7f163c4a11628f55a4df523b3ef906154c19085815260200190565b60405180910390a360408051828152602081018b905233917fe413caa6d70a6d9b51c2af2575a2914490f614355049af8ae7cde5caab9fd201910160405180910390a2505b505b3360009081526042602090815260408083208a845290915290205415615544573360009081526042602090815260408083208a84529091528120555b600385015462010000900460ff161561558d5760405187815233907f3e0648214287dbba314854c056353ff9db951ab8f6459ea7c7f922025ba9fdfe9060200160405180910390a25b50505050505050565b606060006155a5600143617b79565b601854601254604080519340602085015283019190915260608201526080016040516020818303038152906040528051906020012090506000816001436155ec9190617b79565b604080516020810193909352904090820152336060820152608001604080517fffffffffffffffffffffffffffffffffffffffffffffffffffffffffffffffe08184030181528282528051602091820120600d54918401819052918301529150600090606001604080517fffffffffffffffffffffffffffffffffffffffffffffffffffffffffffffffe081840301815282825280516020918201209083018690529082018490527fffffffffffffffffffffffffffffffff00000000000000000000000000000000811660608301529150607001604051602081830303815290604052935050505090565b6018546012546040516060926156f392604892602001617c45565b604080517fffffffffffffffffffffffffffffffffffffffffffffffffffffffffffffffe081840301815282825280516020918201209083015201604051602081830303815290604052905090565b600080821161575057600080fd5b61575a8284617cfc565b9392505050565b600061576d8284617840565b90508215806157845750816157828483617cfc565b145b611d5f57600080fd5b60006157998284617d10565b905082811015611d5f57600080fd5b600d546157b690600161578d565b600d819055600e546157c791617c31565b6000036157d6576157d6615e76565b604954600d546157e69190617c31565b600003615804576157f56156d8565b60489061580290826178fa565b505b61580f436001615886565b406012819055601854600d546040805160208101949094528301919091526060820152608001604080517fffffffffffffffffffffffffffffffffffffffffffffffffffffffffffffffe08184030181529190528051602090910120601255615876615596565b60479061588390826178fa565b50565b60008282111561589557600080fd5b61575a8284617b79565b6000811180156158d4575073ffffffffffffffffffffffffffffffffffffffff82166000908152603f60205260409020548111155b6158dd57600080fd5b73ffffffffffffffffffffffffffffffffffffffff82166000818152603e602090815260408083208584528252808320549383529081905290205461592191615886565b73ffffffffffffffffffffffffffffffffffffffff831660008181526040602081815281832094909455603e8452808220603f8086528284208054855282875283852088865284862081548155600191820154908201558451808601865286815280890187815283548852948952948620945185559251938301939093559390925291909252546159b191615886565b73ffffffffffffffffffffffffffffffffffffffff9092166000908152603f602052604090209190915550565b60008083116159ec57600080fd5b73ffffffffffffffffffffffffffffffffffffffff84166000908152603f6020526040902054615a1d90600161578d565b73ffffffffffffffffffffffffffffffffffffffff949094166000818152603f6020908152604080832088905580518082018252968752868201958652928252603e8152828220968252959095529093209151825551600191820155919050565b6000615a956019544261574290919063ffffffff16565b6000818152602960205260409020549091508015615ab257600080fd5b602654615ac090600161578d565b6026818155604080516101008101825283815260208082018781526000838501818152606085018281526080860183815260a0870184815260c0880185815260e089018681529b8652602588528986209851895595516001808a0191909155935160028901559151600388015551600487015551600586015591516006850155955160079093019290925592548685526029909352922055602a54615b649161578d565b602a55602654615b739061602e565b50602054602654615b85906001615886565b615b8f9190617c31565b158015615b9e57506001602654115b15615bab57615bab616195565b6026546040518381527ff74223d764da704d974281758065d2eb6c9066dc940e3f549b72e894b0404aef90602001612bc2565b6000808311615bec57600080fd5b73ffffffffffffffffffffffffffffffffffffffff84166000908152603f6020526040902054615c1d90600161578d565b73ffffffffffffffffffffffffffffffffffffffff85166000908152603f60209081526040808320939093558290522054615c58908461578d565b73ffffffffffffffffffffffffffffffffffffffff85166000818152604060208181528183209490945580518082018252878152808501878152848452603e8652828420603f87528385205485529095529181902091518255925160019091015590517f42e99fbad9601d25ee3bb515eeee966f97c3c383adadbe5720f651df8c18989d90615cea9086815260200190565b60405180910390a25060019392505050565b60008282818303615d27578015615d14576000615d1e565b670de0b6b3a76400005b92505050611d5f565b670de0b6b3a76400008203615d4857670de0b6b3a764000092505050611d5f565b80600003615d6257670de0b6b3a764000092505050611d5f565b670de0b6b3a76400008103615d7b578492505050611d5f565b670de0b6b3a7640000821115615dac57615da5615da0615d9a87616312565b86616478565b616487565b9250615e06565b6000615dca61386f846ec097ce7bc90715b34b9f1000000000617cfc565b90506000615de3615da0615ddd84616312565b88616478565b9050615e0161386f826ec097ce7bc90715b34b9f1000000000617cfc565b945050505b505092915050565b615e1882826164fe565b5073ffffffffffffffffffffffffffffffffffffffff82166000908152603d6020526040902054615e49908261578d565b73ffffffffffffffffffffffffffffffffffffffff9092166000908152603d602052604090209190915550565b601154600c54600090615e8a904290615886565b90506000615ea5610258600e5461576190919063ffffffff16565b905080821015615f47576000615ec183611ae4846103e8615761565b9050610fa0811115615ed25750610fa05b601054615ee1906103e8615742565b6011541015615f0d57615f0581611ae46103e860115461576190919063ffffffff16565b601155615f1e565b601054615f1a9082615742565b6011555b615f29846004615742565b6011541015615f4157615f3d846004615742565b6011555b50615fff565b6000615f5982611ae4856103e8615761565b9050610fa0811115615f6a5750610fa05b601054615f779082615742565b60115411615fa257615f9a6103e8611ae48360115461576190919063ffffffff16565b601155615fa9565b6010546011555b615fd47fffffffffffffffffffffffffffffffffffffffffffffffffffffffffffffffff6004615742565b8411615ffd57615fe5846004615761565b6011541115615ffd57615ff9846004615761565b6011555b505b42600c55600f54601154101561601657600f546011555b6010546011541115616029576010546011555b505050565b6000806026541161603e57600080fd5b60008211801561605057506026548211155b61605957600080fd5b6000828152602560205260408120805490910361607557600080fd5b8054600090815260276020526040902054801561609157600080fd5b6000600254600a6160a29190617834565b6160b0906301406f40617840565b600354106160e7576160e06c7e37be2022c0914b2680000000611ae460045460035461576190919063ffffffff16565b90506160ec565b506005545b61610a64174876e800611ae46006548461576190919063ffffffff16565b60048401556007546161289064174876e80090611ae4908490615761565b600584015560035461613a908261578d565b60035530600090815260096020526040902054616157908261578d565b3060009081526009602090815260408083209390935585548252602790522081905560285461618790600161578d565b602855506001949350505050565b6000806000806161b260205460265461588690919063ffffffff16565b90505b6026546161c3906001615886565b811161621a576000818152602560205260409020600601546161e690849061578d565b60008281526025602052604090206007015490935061620690839061578d565b91508061621281617b8c565b9150506161b5565b50616225828261578d565b600003616236576113889250616252565b61624f616243838361578d565b611ae484612710615761565b92505b6023548310156162a45760235460009061626c9085615886565b905061629b616292612710611ae484611f27611194601f5461588690919063ffffffff16565b601f5490615886565b601f55506162e8565b60006162bb6023548561588690919063ffffffff16565b90506162e36162da612710611ae484601f54612710611f279190617b79565b601f549061578d565b601f55505b611194601f5410156162fb57611194601f555b6126ac601f541115616029576126ac601f55505050565b600081670de0b6b3a764000081101561635a576040517f36d32ef000000000000000000000000000000000000000000000000000000000815260048101849052602401611788565b60006163e6670de0b6b3a7640000830460016fffffffffffffffffffffffffffffffff821160071b91821c67ffffffffffffffff811160061b90811c63ffffffff811160051b90811c61ffff811160041b90811c60ff8111600390811b91821c600f811160021b90811c918211871b91821c969096119490961792909217171791909117919091171790565b9050670de0b6b3a7640000810282821c7ffffffffffffffffffffffffffffffffffffffffffffffffff21f494c589c0000810161642957815b9695505050505050565b671bc16d674ec800006706f05b59d3b200005b801561646c57670de0b6b3a7640000838002049250818310616464579283019260019290921c915b60011c61643c565b50919695505050505050565b600061575a61386f8484616642565b600081680a688906bd8affffff8111156164d0576040517fb3b6ba1f00000000000000000000000000000000000000000000000000000000815260048101849052602401611788565b60006164e8670de0b6b3a7640000604084901b617cfc565b90506164f661386f82616749565b949350505050565b600080821161650c57600080fd5b73ffffffffffffffffffffffffffffffffffffffff83166000908152603f602052604090205461653d90600161578d565b73ffffffffffffffffffffffffffffffffffffffff84166000908152603f60209081526040808320939093558290522054616578908361578d565b73ffffffffffffffffffffffffffffffffffffffff8416600090815260406020819052812091909155601a546165af90429061578d565b604080518082018252858152602080820184815273ffffffffffffffffffffffffffffffffffffffff89166000818152603e8452858120603f855286822054825284528590209351845590516001909301929092559151868152929350917f42e99fbad9601d25ee3bb515eeee966f97c3c383adadbe5720f651df8c18989d910160405180910390a25060019392505050565b600080807fffffffffffffffffffffffffffffffffffffffffffffffffffffffffffffffff848609848602925082811083820303915050806000036166945750670de0b6b3a764000090049050611d5f565b670de0b6b3a764000081106166df576040517f5173648d0000000000000000000000000000000000000000000000000000000081526004810186905260248101859052604401611788565b6000670de0b6b3a7640000858709620400008185030493109091037d40000000000000000000000000000000000000000000000000000000000002919091177faccb18165bd6fe31ae1cf318dc5b51eee0e1ba569b88cd74c1773b91fac106690291505092915050565b7780000000000000000000000000000000000000000000000067ff0000000000000082161561686a576780000000000000008216156167915768016a09e667f3bcc9090260401c5b6740000000000000008216156167b0576801306fe0a31b7152df0260401c5b6720000000000000008216156167cf576801172b83c7d517adce0260401c5b6710000000000000008216156167ee5768010b5586cf9890f62a0260401c5b67080000000000000082161561680d576801059b0d31585743ae0260401c5b67040000000000000082161561682c57680102c9a3e778060ee70260401c5b67020000000000000082161561684b5768010163da9fb33356d80260401c5b67010000000000000082161561686a57680100b1afa5abcbed610260401c5b66ff0000000000008216156169695766800000000000008216156168975768010058c86da1c09ea20260401c5b66400000000000008216156168b5576801002c605e2e8cec500260401c5b66200000000000008216156168d357680100162f3904051fa10260401c5b66100000000000008216156168f1576801000b175effdc76ba0260401c5b660800000000000082161561690f57680100058ba01fb9f96d0260401c5b660400000000000082161561692d5768010002c5cc37da94920260401c5b660200000000000082161561694b576801000162e525ee05470260401c5b66010000000000008216156169695768010000b17255775c040260401c5b65ff0000000000821615616a5f5765800000000000821615616994576801000058b91b5bc9ae0260401c5b654000000000008216156169b157680100002c5c89d5ec6d0260401c5b652000000000008216156169ce5768010000162e43f4f8310260401c5b651000000000008216156169eb57680100000b1721bcfc9a0260401c5b65080000000000821615616a085768010000058b90cf1e6e0260401c5b65040000000000821615616a25576801000002c5c863b73f0260401c5b65020000000000821615616a4257680100000162e430e5a20260401c5b65010000000000821615616a5f576801000000b1721835510260401c5b64ff00000000821615616b4c57648000000000821615616a8857680100000058b90c0b490260401c5b644000000000821615616aa45768010000002c5c8601cc0260401c5b642000000000821615616ac0576801000000162e42fff00260401c5b641000000000821615616adc5768010000000b17217fbb0260401c5b640800000000821615616af8576801000000058b90bfce0260401c5b640400000000821615616b1457680100000002c5c85fe30260401c5b640200000000821615616b305768010000000162e42ff10260401c5b640100000000821615616b4c57680100000000b17217f80260401c5b63ff000000821615616c30576380000000821615616b735768010000000058b90bfc0260401c5b6340000000821615616b8e576801000000002c5c85fe0260401c5b6320000000821615616ba957680100000000162e42ff0260401c5b6310000000821615616bc4576801000000000b17217f0260401c5b6308000000821615616bdf57680100000000058b90c00260401c5b6304000000821615616bfa5768010000000002c5c8600260401c5b6302000000821615616c15576801000000000162e4300260401c5b6301000000821615616c305768010000000000b172180260401c5b62ff0000821615616d0b5762800000821615616c55576801000000000058b90c0260401c5b62400000821615616c6f57680100000000002c5c860260401c5b62200000821615616c895768010000000000162e430260401c5b62100000821615616ca357680100000000000b17210260401c5b62080000821615616cbd5768010000000000058b910260401c5b62040000821615616cd7576801000000000002c5c80260401c5b62020000821615616cf157680100000000000162e40260401c5b62010000821615616d0b576801000000000000b1720260401c5b61ff00821615616ddd57618000821615616d2e57680100000000000058b90260401c5b614000821615616d475768010000000000002c5d0260401c5b612000821615616d60576801000000000000162e0260401c5b611000821615616d795768010000000000000b170260401c5b610800821615616d92576801000000000000058c0260401c5b610400821615616dab57680100000000000002c60260401c5b610200821615616dc457680100000000000001630260401c5b610100821615616ddd57680100000000000000b10260401c5b60ff821615616ea6576080821615616dfe57680100000000000000590260401c5b6040821615616e16576801000000000000002c0260401c5b6020821615616e2e57680100000000000000160260401c5b6010821615616e46576801000000000000000b0260401c5b6008821615616e5e57680100000000000000060260401c5b6004821615616e7657680100000000000000030260401c5b6002821615616e8e57680100000000000000010260401c5b6001821615616ea657680100000000000000010260401c5b670de0b6b3a76400000260409190911c60bf031c90565b7f4e487b7100000000000000000000000000000000000000000000000000000000600052604160045260246000fd5b600082601f830112616efd57600080fd5b813567ffffffffffffffff80821115616f1857616f18616ebd565b604051601f83017fffffffffffffffffffffffffffffffffffffffffffffffffffffffffffffffe0908116603f01168101908282118183101715616f5e57616f5e616ebd565b81604052838152866020858801011115616f7757600080fd5b836020870160208301376000602085830101528094505050505092915050565b80357fffffffffffffffff00000000000000000000000000000000000000000000000081168114616fc757600080fd5b919050565b600080600080600080600060e0888a031215616fe757600080fd5b87357fffffffff000000000000000000000000000000000000000000000000000000008116811461701757600080fd5b9650602088013567ffffffffffffffff8082111561703457600080fd5b6170408b838c01616eec565b975060408a0135965060608a013591508082111561705d57600080fd5b6170698b838c01616eec565b955060808a0135945060a08a013591508082111561708657600080fd5b506170938a828b01616eec565b9250506170a260c08901616f97565b905092959891949750929550565b60005b838110156170cb5781810151838201526020016170b3565b50506000910152565b600081518084526170ec8160208601602086016170b0565b601f017fffffffffffffffffffffffffffffffffffffffffffffffffffffffffffffffe0169290920160200192915050565b60208152600061575a60208301846170d4565b803573ffffffffffffffffffffffffffffffffffffffff81168114616fc757600080fd5b6000806040838503121561716857600080fd5b61717183617131565b946020939093013593505050565b60008060006060848603121561719457600080fd5b83359250602084013580151581146171ab57600080fd5b9150604084013567ffffffffffffffff8111156171c757600080fd5b6171d386828701616eec565b9150509250925092565b6000602082840312156171ef57600080fd5b5035919050565b6000806040838503121561720957600080fd5b50508035926020909101359150565b60008060008060008060c0878903121561723157600080fd5b86359550602087013567ffffffffffffffff8082111561725057600080fd5b61725c8a838b01616eec565b9650604089013591508082111561727257600080fd5b61727e8a838b01616eec565b9550606089013591508082111561729457600080fd5b6172a08a838b01616eec565b945060808901359150808211156172b657600080fd5b506172c389828a01616eec565b92505060a087013590509295509295509295565b6000806000606084860312156172ec57600080fd5b6172f584617131565b925061730360208501617131565b9150604084013590509250925092565b60006020828403121561732557600080fd5b61575a82617131565b60006101408c83528b60208401528a604084015289606084015288608084015273ffffffffffffffffffffffffffffffffffffffff881660a08401528060c084015261737c818401886170d4565b905082810360e084015261739081876170d4565b90508281036101008401526173a581866170d4565b90508281036101208401526173ba81856170d4565b9d9c50505050505050505050505050565b6000806000606084860312156173e057600080fd5b83359250602084013567ffffffffffffffff808211156173ff57600080fd5b61740b87838801616eec565b9350604086013591508082111561742157600080fd5b506171d386828701616eec565b8281526040602082015260006164f660408301846170d4565b7f4e487b7100000000000000000000000000000000000000000000000000000000600052602160045260246000fd5b600481106174ad577f4e487b7100000000000000000000000000000000000000000000000000000000600052602160045260246000fd5b9052565b8d8152602081018d9052604081018c90526101a081016174d4606083018d617476565b6174e1608083018c617476565b98151560a082015260c081019790975260e08701959095526101008601939093526101208501919091526101408401526101608301526101809091015295945050505050565b60008060006060848603121561753c57600080fd5b505081359360208301359350604090920135919050565b85815284602082015283604082015260a06060820152600061757860a08301856170d4565b828103608084015261758a81856170d4565b98975050505050505050565b6000602082840312156175a857600080fd5b813567ffffffffffffffff8111156175bf57600080fd5b6164f684828501616eec565b600080600080608085870312156175e157600080fd5b5050823594602084013594506040840135936060013592509050565b6000806040838503121561761057600080fd5b8235915061762060208401617131565b90509250929050565b6000806000806080858703121561763f57600080fd5b843567ffffffffffffffff8082111561765757600080fd5b61766388838901616eec565b95506020870135945060408701359350606087013591508082111561768757600080fd5b5061769487828801616eec565b91505092959194509250565b82151581526040602082015260006164f660408301846170d4565b600080604083850312156176ce57600080fd5b6176d783617131565b915061762060208401617131565b7f4e487b7100000000000000000000000000000000000000000000000000000000600052601160045260246000fd5b600181815b8085111561776d57817fffffffffffffffffffffffffffffffffffffffffffffffffffffffffffffffff04821115617753576177536176e5565b8085161561776057918102915b93841c9390800290617719565b509250929050565b60008261778457506001611d5f565b8161779157506000611d5f565b81600181146177a757600281146177b1576177cd565b6001915050611d5f565b60ff8411156177c2576177c26176e5565b50506001821b611d5f565b5060208310610133831016604e8410600b84101617156177f0575081810a611d5f565b6177fa8383617714565b807fffffffffffffffffffffffffffffffffffffffffffffffffffffffffffffffff0482111561782c5761782c6176e5565b029392505050565b600061575a8383617775565b8082028115828204841417611d5f57611d5f6176e5565b600181811c9082168061786b57607f821691505b6020821081036178a4577f4e487b7100000000000000000000000000000000000000000000000000000000600052602260045260246000fd5b50919050565b601f821115616029576000816000526020600020601f850160051c810160208610156178d35750805b601f850160051c820191505b818110156178f2578281556001016178df565b505050505050565b815167ffffffffffffffff81111561791457617914616ebd565b617928816179228454617857565b846178aa565b602080601f83116001811461797b57600084156179455750858301515b7fffffffffffffffffffffffffffffffffffffffffffffffffffffffffffffffff600386901b1c1916600185901b1785556178f2565b6000858152602081207fffffffffffffffffffffffffffffffffffffffffffffffffffffffffffffffe08616915b828110156179c8578886015182559484019460019091019084016179a9565b5085821015617a0457878501517fffffffffffffffffffffffffffffffffffffffffffffffffffffffffffffffff600388901b60f8161c191681555b5050505050600190811b01905550565b6000808354617a2281617857565b60018281168015617a3a5760018114617a6d57617a9c565b7fffffffffffffffffffffffffffffffffffffffffffffffffffffffffffffff0084168752821515830287019450617a9c565b8760005260208060002060005b85811015617a935781548a820152908401908201617a7a565b50505082870194505b50929695505050505050565b7fffffffff000000000000000000000000000000000000000000000000000000008516815283600482015260008351617ae88160248501602088016170b0565b835190830190617aff8160248401602088016170b0565b016024019695505050505050565b7f4e487b7100000000000000000000000000000000000000000000000000000000600052600160045260246000fd5b848152831515602082015273ffffffffffffffffffffffffffffffffffffffff8316604082015260806060820152600061641f60808301846170d4565b81810381811115611d5f57611d5f6176e5565b60007fffffffffffffffffffffffffffffffffffffffffffffffffffffffffffffffff8203617bbd57617bbd6176e5565b5060010190565b604081526000617bd760408301856170d4565b90508260208301529392505050565b60008251617bf88184602087016170b0565b9190910192915050565b7f4e487b7100000000000000000000000000000000000000000000000000000000600052601260045260246000fd5b600082617c4057617c40617c02565b500690565b606081526000808554617c5781617857565b8060608601526080600180841660008114617c795760018114617cb357617ce5565b7fffffffffffffffffffffffffffffffffffffffffffffffffffffffffffffff0085166080890152608084151560051b8901019550617ce5565b8a60005260208060002060005b86811015617cdb5781548b8201870152908401908201617cc0565b8a01608001975050505b505050505060208301949094525060400152919050565b600082617d0b57617d0b617c02565b500490565b80820180821115611d5f57611d5f6176e556fe446973636f766572696e67206f7572206265737420467574757265732e204e6f20496e74656c6c65637475616c2050726f70657274792c20416c6c2070726f706f73616c7320617265206d61646520756e64657220746865206c6963656e736520437265617469766520436f6d6d6f6e73204174747269627574696f6e20342e3020496e7465726e6174696f6e616c2028434320425920342e30292e205468697320736d61727420636f6e74726163742069732072756e6e696e6720477561726469616e2048617264666f726b2c2045746963612076332ea2646970667358221220f273eaaa4c9e9415b51cc54f210e549f76d8d6a77acbb4e550db83422f937bff64736f6c63430008160033",
  "linkReferences": {},
  "deployedLinkReferences": {}
}