{
  "_format": "hh-sol-artifact-1",
  "contractName": "EticaRelease",
  "sourceName": "contracts/EticaRelease.sol",
  "abi": [
    {
      "inputs": [
        {
          "internalType": "uint256",
          "name": "x",
          "type": "uint256"
        },
        {
          "internalType": "uint256",
          "name": "y",
          "type": "uint256"
        }
      ],
      "name": "PRBMath_MulDiv18_Overflow",
      "type": "error"
    },
    {
      "inputs": [
        {
          "internalType": "UD60x18",
          "name": "x",
          "type": "uint256"
        }
      ],
      "name": "PRBMath_UD60x18_Exp2_InputTooBig",
      "type": "error"
    },
    {
      "inputs": [
        {
          "internalType": "UD60x18",
          "name": "x",
          "type": "uint256"
        }
      ],
      "name": "PRBMath_UD60x18_Log_InputTooSmall",
      "type": "error"
    },
    {
      "anonymous": false,
      "inputs": [
        {
          "indexed": true,
          "internalType": "address",
          "name": "tokenOwner",
          "type": "address"
        },
        {
          "indexed": true,
          "internalType": "address",
          "name": "spender",
          "type": "address"
        },
        {
          "indexed": false,
          "internalType": "uint256",
          "name": "tokens",
          "type": "uint256"
        }
      ],
      "name": "Approval",
      "type": "event"
    },
    {
      "anonymous": false,
      "inputs": [
        {
          "indexed": true,
          "internalType": "uint256",
          "name": "period_id",
          "type": "uint256"
        },
        {
          "indexed": false,
          "internalType": "uint256",
          "name": "interval",
          "type": "uint256"
        }
      ],
      "name": "CreatedPeriod",
      "type": "event"
    },
    {
      "anonymous": false,
      "inputs": [
        {
          "indexed": true,
          "internalType": "address",
          "name": "from",
          "type": "address"
        },
        {
          "indexed": false,
          "internalType": "uint256",
          "name": "blockreward",
          "type": "uint256"
        },
        {
          "indexed": false,
          "internalType": "uint256",
          "name": "epochCount",
          "type": "uint256"
        },
        {
          "indexed": false,
          "internalType": "bytes32",
          "name": "newChallengeNumber",
          "type": "bytes32"
        }
      ],
      "name": "Mint",
      "type": "event"
    },
    {
      "anonymous": false,
      "inputs": [
        {
          "indexed": true,
          "internalType": "uint256",
          "name": "chunkid",
          "type": "uint256"
        },
        {
          "indexed": true,
          "internalType": "bytes32",
          "name": "diseasehash",
          "type": "bytes32"
        }
      ],
      "name": "NewChunk",
      "type": "event"
    },
    {
      "anonymous": false,
      "inputs": [
        {
          "indexed": true,
          "internalType": "address",
          "name": "_voter",
          "type": "address"
        },
        {
          "indexed": false,
          "internalType": "bytes32",
          "name": "votehash",
          "type": "bytes32"
        },
        {
          "indexed": false,
          "internalType": "uint256",
          "name": "amount",
          "type": "uint256"
        }
      ],
      "name": "NewCommit",
      "type": "event"
    },
    {
      "anonymous": false,
      "inputs": [
        {
          "indexed": true,
          "internalType": "uint256",
          "name": "diseaseindex",
          "type": "uint256"
        },
        {
          "indexed": false,
          "internalType": "string",
          "name": "title",
          "type": "string"
        }
      ],
      "name": "NewDisease",
      "type": "event"
    },
    {
      "anonymous": false,
      "inputs": [
        {
          "indexed": true,
          "internalType": "address",
          "name": "voter",
          "type": "address"
        },
        {
          "indexed": false,
          "internalType": "uint256",
          "name": "fee",
          "type": "uint256"
        },
        {
          "indexed": false,
          "internalType": "bytes32",
          "name": "proposal_hash",
          "type": "bytes32"
        }
      ],
      "name": "NewFee",
      "type": "event"
    },
    {
      "anonymous": false,
      "inputs": [
        {
          "indexed": false,
          "internalType": "bytes32",
          "name": "proposed_release_hash",
          "type": "bytes32"
        },
        {
          "indexed": true,
          "internalType": "address",
          "name": "_proposer",
          "type": "address"
        },
        {
          "indexed": true,
          "internalType": "bytes32",
          "name": "diseasehash",
          "type": "bytes32"
        },
        {
          "indexed": true,
          "internalType": "uint256",
          "name": "chunkid",
          "type": "uint256"
        }
      ],
      "name": "NewProposal",
      "type": "event"
    },
    {
      "anonymous": false,
      "inputs": [
        {
          "indexed": true,
          "internalType": "address",
          "name": "_voter",
          "type": "address"
        },
        {
          "indexed": true,
          "internalType": "bytes32",
          "name": "_proposal",
          "type": "bytes32"
        },
        {
          "indexed": false,
          "internalType": "uint256",
          "name": "amount",
          "type": "uint256"
        }
      ],
      "name": "NewRecover",
      "type": "event"
    },
    {
      "anonymous": false,
      "inputs": [
        {
          "indexed": true,
          "internalType": "address",
          "name": "_voter",
          "type": "address"
        },
        {
          "indexed": true,
          "internalType": "bytes32",
          "name": "_proposal",
          "type": "bytes32"
        },
        {
          "indexed": false,
          "internalType": "uint256",
          "name": "amount",
          "type": "uint256"
        }
      ],
      "name": "NewReveal",
      "type": "event"
    },
    {
      "anonymous": false,
      "inputs": [
        {
          "indexed": true,
          "internalType": "address",
          "name": "voter",
          "type": "address"
        },
        {
          "indexed": false,
          "internalType": "uint256",
          "name": "amount",
          "type": "uint256"
        },
        {
          "indexed": false,
          "internalType": "bytes32",
          "name": "proposal_hash",
          "type": "bytes32"
        },
        {
          "indexed": false,
          "internalType": "uint256",
          "name": "duration",
          "type": "uint256"
        }
      ],
      "name": "NewSlash",
      "type": "event"
    },
    {
      "anonymous": false,
      "inputs": [
        {
          "indexed": true,
          "internalType": "address",
          "name": "staker",
          "type": "address"
        },
        {
          "indexed": false,
          "internalType": "uint256",
          "name": "amount",
          "type": "uint256"
        }
      ],
      "name": "NewStake",
      "type": "event"
    },
    {
      "anonymous": false,
      "inputs": [
        {
          "indexed": true,
          "internalType": "address",
          "name": "staker",
          "type": "address"
        },
        {
          "indexed": false,
          "internalType": "uint256",
          "name": "endtime",
          "type": "uint256"
        },
        {
          "indexed": false,
          "internalType": "uint256",
          "name": "minlimit",
          "type": "uint256"
        }
      ],
      "name": "NewStakescsldt",
      "type": "event"
    },
    {
      "anonymous": false,
      "inputs": [
        {
          "indexed": true,
          "internalType": "address",
          "name": "staker",
          "type": "address"
        },
        {
          "indexed": false,
          "internalType": "uint256",
          "name": "snapamount",
          "type": "uint256"
        }
      ],
      "name": "NewStakesnap",
      "type": "event"
    },
    {
      "anonymous": false,
      "inputs": [
        {
          "indexed": true,
          "internalType": "address",
          "name": "voter",
          "type": "address"
        },
        {
          "indexed": false,
          "internalType": "uint256",
          "name": "amount",
          "type": "uint256"
        },
        {
          "indexed": false,
          "internalType": "bytes32",
          "name": "proposal_hash",
          "type": "bytes32"
        }
      ],
      "name": "RewardClaimed",
      "type": "event"
    },
    {
      "anonymous": false,
      "inputs": [
        {
          "indexed": true,
          "internalType": "address",
          "name": "staker",
          "type": "address"
        },
        {
          "indexed": false,
          "internalType": "uint256",
          "name": "stakeamount",
          "type": "uint256"
        }
      ],
      "name": "StakeClaimed",
      "type": "event"
    },
    {
      "anonymous": false,
      "inputs": [
        {
          "indexed": true,
          "internalType": "address",
          "name": "voter",
          "type": "address"
        },
        {
          "indexed": false,
          "internalType": "bytes32",
          "name": "proposal_hash",
          "type": "bytes32"
        }
      ],
      "name": "TieClaimed",
      "type": "event"
    },
    {
      "anonymous": false,
      "inputs": [
        {
          "indexed": true,
          "internalType": "address",
          "name": "from",
          "type": "address"
        },
        {
          "indexed": true,
          "internalType": "address",
          "name": "to",
          "type": "address"
        },
        {
          "indexed": false,
          "internalType": "uint256",
          "name": "tokens",
          "type": "uint256"
        }
      ],
      "name": "Transfer",
      "type": "event"
    },
    {
      "inputs": [],
      "name": "APPROVAL_THRESHOLD",
      "outputs": [
        {
          "internalType": "uint256",
          "name": "",
          "type": "uint256"
        }
      ],
      "stateMutability": "view",
      "type": "function"
    },
    {
      "inputs": [],
      "name": "DEFAULT_EXTRA_TIME",
      "outputs": [
        {
          "internalType": "uint256",
          "name": "",
          "type": "uint256"
        }
      ],
      "stateMutability": "view",
      "type": "function"
    },
    {
      "inputs": [],
      "name": "DEFAULT_REVEALING_TIME",
      "outputs": [
        {
          "internalType": "uint256",
          "name": "",
          "type": "uint256"
        }
      ],
      "stateMutability": "view",
      "type": "function"
    },
    {
      "inputs": [],
      "name": "DEFAULT_VOTING_TIME",
      "outputs": [
        {
          "internalType": "uint256",
          "name": "",
          "type": "uint256"
        }
      ],
      "stateMutability": "view",
      "type": "function"
    },
    {
      "inputs": [],
      "name": "DISEASE_CREATION_AMOUNT",
      "outputs": [
        {
          "internalType": "uint256",
          "name": "",
          "type": "uint256"
        }
      ],
      "stateMutability": "view",
      "type": "function"
    },
    {
      "inputs": [
        {
          "internalType": "uint256",
          "name": "",
          "type": "uint256"
        }
      ],
      "name": "IntervalsPeriods",
      "outputs": [
        {
          "internalType": "uint256",
          "name": "",
          "type": "uint256"
        }
      ],
      "stateMutability": "view",
      "type": "function"
    },
    {
      "inputs": [],
      "name": "IntervalsPeriodsCounter",
      "outputs": [
        {
          "internalType": "uint256",
          "name": "",
          "type": "uint256"
        }
      ],
      "stateMutability": "view",
      "type": "function"
    },
    {
      "inputs": [],
      "name": "LAST_PERIOD_COST_UPDATE",
      "outputs": [
        {
          "internalType": "uint256",
          "name": "",
          "type": "uint256"
        }
      ],
      "stateMutability": "view",
      "type": "function"
    },
    {
      "inputs": [],
      "name": "PERIODS_PER_THRESHOLD",
      "outputs": [
        {
          "internalType": "uint256",
          "name": "",
          "type": "uint256"
        }
      ],
      "stateMutability": "view",
      "type": "function"
    },
    {
      "inputs": [],
      "name": "PERIOD_CURATION_REWARD_RATIO",
      "outputs": [
        {
          "internalType": "uint256",
          "name": "",
          "type": "uint256"
        }
      ],
      "stateMutability": "view",
      "type": "function"
    },
    {
      "inputs": [],
      "name": "PERIOD_EDITOR_REWARD_RATIO",
      "outputs": [
        {
          "internalType": "uint256",
          "name": "",
          "type": "uint256"
        }
      ],
      "stateMutability": "view",
      "type": "function"
    },
    {
      "inputs": [],
      "name": "PROPOSAL_DEFAULT_VOTE",
      "outputs": [
        {
          "internalType": "uint256",
          "name": "",
          "type": "uint256"
        }
      ],
      "stateMutability": "view",
      "type": "function"
    },
    {
      "inputs": [],
      "name": "PROPOSERS_INCREASER",
      "outputs": [
        {
          "internalType": "uint256",
          "name": "",
          "type": "uint256"
        }
      ],
      "stateMutability": "view",
      "type": "function"
    },
    {
      "inputs": [],
      "name": "PROTOCOL_RATIO_TARGET",
      "outputs": [
        {
          "internalType": "uint256",
          "name": "",
          "type": "uint256"
        }
      ],
      "stateMutability": "view",
      "type": "function"
    },
    {
      "inputs": [
        {
          "internalType": "uint256",
          "name": "",
          "type": "uint256"
        }
      ],
      "name": "PeriodsIssued",
      "outputs": [
        {
          "internalType": "uint256",
          "name": "",
          "type": "uint256"
        }
      ],
      "stateMutability": "view",
      "type": "function"
    },
    {
      "inputs": [],
      "name": "PeriodsIssuedCounter",
      "outputs": [
        {
          "internalType": "uint256",
          "name": "",
          "type": "uint256"
        }
      ],
      "stateMutability": "view",
      "type": "function"
    },
    {
      "inputs": [],
      "name": "REWARD_INTERVAL",
      "outputs": [
        {
          "internalType": "uint256",
          "name": "",
          "type": "uint256"
        }
      ],
      "stateMutability": "view",
      "type": "function"
    },
    {
      "inputs": [],
      "name": "SEVERITY_LEVEL",
      "outputs": [
        {
          "internalType": "uint256",
          "name": "",
          "type": "uint256"
        }
      ],
      "stateMutability": "view",
      "type": "function"
    },
    {
      "inputs": [],
      "name": "STAKING_DURATION",
      "outputs": [
        {
          "internalType": "uint256",
          "name": "",
          "type": "uint256"
        }
      ],
      "stateMutability": "view",
      "type": "function"
    },
    {
      "inputs": [],
      "name": "UNRECOVERABLE_ETI",
      "outputs": [
        {
          "internalType": "uint256",
          "name": "",
          "type": "uint256"
        }
      ],
      "stateMutability": "view",
      "type": "function"
    },
    {
      "inputs": [],
      "name": "UPDATEDV2",
      "outputs": [
        {
          "internalType": "bool",
          "name": "",
          "type": "bool"
        }
      ],
      "stateMutability": "view",
      "type": "function"
    },
    {
      "inputs": [],
      "name": "UPDATEDV3",
      "outputs": [
        {
          "internalType": "bool",
          "name": "",
          "type": "bool"
        }
      ],
      "stateMutability": "view",
      "type": "function"
    },
    {
      "inputs": [],
      "name": "_BLOCKS_PER_READJUSTMENT",
      "outputs": [
        {
          "internalType": "uint256",
          "name": "",
          "type": "uint256"
        }
      ],
      "stateMutability": "view",
      "type": "function"
    },
    {
      "inputs": [],
      "name": "_MAXIMUM_TARGET",
      "outputs": [
        {
          "internalType": "uint256",
          "name": "",
          "type": "uint256"
        }
      ],
      "stateMutability": "view",
      "type": "function"
    },
    {
      "inputs": [],
      "name": "_MINIMUM_TARGET",
      "outputs": [
        {
          "internalType": "uint256",
          "name": "",
          "type": "uint256"
        }
      ],
      "stateMutability": "view",
      "type": "function"
    },
    {
      "inputs": [],
      "name": "_totalMiningSupply",
      "outputs": [
        {
          "internalType": "uint256",
          "name": "",
          "type": "uint256"
        }
      ],
      "stateMutability": "view",
      "type": "function"
    },
    {
      "inputs": [],
      "name": "accessibleSupply",
      "outputs": [
        {
          "internalType": "uint256",
          "name": "",
          "type": "uint256"
        }
      ],
      "stateMutability": "view",
      "type": "function"
    },
    {
      "inputs": [
        {
          "internalType": "address",
          "name": "tokenOwner",
          "type": "address"
        },
        {
          "internalType": "address",
          "name": "spender",
          "type": "address"
        }
      ],
      "name": "allowance",
      "outputs": [
        {
          "internalType": "uint256",
          "name": "",
          "type": "uint256"
        }
      ],
      "stateMutability": "view",
      "type": "function"
    },
    {
      "inputs": [
        {
          "internalType": "address",
          "name": "spender",
          "type": "address"
        },
        {
          "internalType": "uint256",
          "name": "tokens",
          "type": "uint256"
        }
      ],
      "name": "approve",
      "outputs": [
        {
          "internalType": "bool",
          "name": "",
          "type": "bool"
        }
      ],
      "stateMutability": "nonpayable",
      "type": "function"
    },
    {
      "inputs": [
        {
          "internalType": "address",
          "name": "tokenOwner",
          "type": "address"
        }
      ],
      "name": "balanceOf",
      "outputs": [
        {
          "internalType": "uint256",
          "name": "balance",
          "type": "uint256"
        }
      ],
      "stateMutability": "view",
      "type": "function"
    },
    {
      "inputs": [
        {
          "internalType": "address",
          "name": "",
          "type": "address"
        }
      ],
      "name": "balances",
      "outputs": [
        {
          "internalType": "uint256",
          "name": "",
          "type": "uint256"
        }
      ],
      "stateMutability": "view",
      "type": "function"
    },
    {
      "inputs": [
        {
          "internalType": "address",
          "name": "",
          "type": "address"
        }
      ],
      "name": "blockedeticas",
      "outputs": [
        {
          "internalType": "uint256",
          "name": "",
          "type": "uint256"
        }
      ],
      "stateMutability": "view",
      "type": "function"
    },
    {
      "inputs": [],
      "name": "blockreward",
      "outputs": [
        {
          "internalType": "uint256",
          "name": "",
          "type": "uint256"
        }
      ],
      "stateMutability": "view",
      "type": "function"
    },
    {
      "inputs": [
        {
          "internalType": "address",
          "name": "",
          "type": "address"
        }
      ],
      "name": "bosoms",
      "outputs": [
        {
          "internalType": "uint256",
          "name": "",
          "type": "uint256"
        }
      ],
      "stateMutability": "view",
      "type": "function"
    },
    {
      "inputs": [
        {
          "internalType": "address",
          "name": "tokenOwner",
          "type": "address"
        }
      ],
      "name": "bosomsOf",
      "outputs": [
        {
          "internalType": "uint256",
          "name": "_bosoms",
          "type": "uint256"
        }
      ],
      "stateMutability": "view",
      "type": "function"
    },
    {
      "inputs": [],
      "name": "challengeNumber",
      "outputs": [
        {
          "internalType": "bytes32",
          "name": "",
          "type": "bytes32"
        }
      ],
      "stateMutability": "view",
      "type": "function"
    },
    {
      "inputs": [
        {
          "internalType": "uint256",
          "name": "nonce",
          "type": "uint256"
        },
        {
          "internalType": "bytes32",
          "name": "challenge_digest",
          "type": "bytes32"
        },
        {
          "internalType": "bytes32",
          "name": "challenge_number",
          "type": "bytes32"
        },
        {
          "internalType": "uint256",
          "name": "testTarget",
          "type": "uint256"
        }
      ],
      "name": "checkMintSolution",
      "outputs": [
        {
          "internalType": "bool",
          "name": "success",
          "type": "bool"
        }
      ],
      "stateMutability": "view",
      "type": "function"
    },
    {
      "inputs": [
        {
          "internalType": "uint256",
          "name": "",
          "type": "uint256"
        }
      ],
      "name": "chunkProposalsCounter",
      "outputs": [
        {
          "internalType": "uint256",
          "name": "",
          "type": "uint256"
        }
      ],
      "stateMutability": "view",
      "type": "function"
    },
    {
      "inputs": [
        {
          "internalType": "uint256",
          "name": "",
          "type": "uint256"
        },
        {
          "internalType": "uint256",
          "name": "",
          "type": "uint256"
        }
      ],
      "name": "chunkproposals",
      "outputs": [
        {
          "internalType": "bytes32",
          "name": "",
          "type": "bytes32"
        }
      ],
      "stateMutability": "view",
      "type": "function"
    },
    {
      "inputs": [
        {
          "internalType": "uint256",
          "name": "",
          "type": "uint256"
        }
      ],
      "name": "chunks",
      "outputs": [
        {
          "internalType": "uint256",
          "name": "id",
          "type": "uint256"
        },
        {
          "internalType": "bytes32",
          "name": "diseaseid",
          "type": "bytes32"
        },
        {
          "internalType": "uint256",
          "name": "idx",
          "type": "uint256"
        },
        {
          "internalType": "string",
          "name": "title",
          "type": "string"
        },
        {
          "internalType": "string",
          "name": "desc",
          "type": "string"
        }
      ],
      "stateMutability": "view",
      "type": "function"
    },
    {
      "inputs": [],
      "name": "chunksCounter",
      "outputs": [
        {
          "internalType": "uint256",
          "name": "",
          "type": "uint256"
        }
      ],
      "stateMutability": "view",
      "type": "function"
    },
    {
      "inputs": [
        {
          "internalType": "bytes32",
          "name": "_proposed_release_hash",
          "type": "bytes32"
        }
      ],
      "name": "clmpropbyhash",
      "outputs": [],
      "stateMutability": "nonpayable",
      "type": "function"
    },
    {
      "inputs": [
        {
          "internalType": "address",
          "name": "",
          "type": "address"
        },
        {
          "internalType": "bytes32",
          "name": "",
          "type": "bytes32"
        }
      ],
      "name": "commits",
      "outputs": [
        {
          "internalType": "uint256",
          "name": "amount",
          "type": "uint256"
        },
        {
          "internalType": "uint256",
          "name": "timestamp",
          "type": "uint256"
        }
      ],
      "stateMutability": "view",
      "type": "function"
    },
    {
      "inputs": [
        {
          "internalType": "uint256",
          "name": "_amount",
          "type": "uint256"
        },
        {
          "internalType": "bytes32",
          "name": "_votehash",
          "type": "bytes32"
        }
      ],
      "name": "commitvote",
      "outputs": [],
      "stateMutability": "nonpayable",
      "type": "function"
    },
    {
      "inputs": [
        {
          "internalType": "bytes32",
          "name": "_diseasehash",
          "type": "bytes32"
        },
        {
          "internalType": "string",
          "name": "_title",
          "type": "string"
        },
        {
          "internalType": "string",
          "name": "_description",
          "type": "string"
        }
      ],
      "name": "createchunk",
      "outputs": [],
      "stateMutability": "nonpayable",
      "type": "function"
    },
    {
      "inputs": [
        {
          "internalType": "string",
          "name": "_name",
          "type": "string"
        }
      ],
      "name": "createdisease",
      "outputs": [],
      "stateMutability": "nonpayable",
      "type": "function"
    },
    {
      "inputs": [],
      "name": "decimals",
      "outputs": [
        {
          "internalType": "uint256",
          "name": "",
          "type": "uint256"
        }
      ],
      "stateMutability": "view",
      "type": "function"
    },
    {
      "inputs": [
        {
          "internalType": "bytes32",
          "name": "",
          "type": "bytes32"
        }
      ],
      "name": "diseaseChunksCounter",
      "outputs": [
        {
          "internalType": "uint256",
          "name": "",
          "type": "uint256"
        }
      ],
      "stateMutability": "view",
      "type": "function"
    },
    {
      "inputs": [
        {
          "internalType": "bytes32",
          "name": "",
          "type": "bytes32"
        }
      ],
      "name": "diseaseProposalsCounter",
      "outputs": [
        {
          "internalType": "uint256",
          "name": "",
          "type": "uint256"
        }
      ],
      "stateMutability": "view",
      "type": "function"
    },
    {
      "inputs": [
        {
          "internalType": "bytes32",
          "name": "",
          "type": "bytes32"
        },
        {
          "internalType": "uint256",
          "name": "",
          "type": "uint256"
        }
      ],
      "name": "diseasechunks",
      "outputs": [
        {
          "internalType": "uint256",
          "name": "",
          "type": "uint256"
        }
      ],
      "stateMutability": "view",
      "type": "function"
    },
    {
      "inputs": [
        {
          "internalType": "bytes32",
          "name": "",
          "type": "bytes32"
        },
        {
          "internalType": "uint256",
          "name": "",
          "type": "uint256"
        }
      ],
      "name": "diseaseproposals",
      "outputs": [
        {
          "internalType": "bytes32",
          "name": "",
          "type": "bytes32"
        }
      ],
      "stateMutability": "view",
      "type": "function"
    },
    {
      "inputs": [
        {
          "internalType": "uint256",
          "name": "",
          "type": "uint256"
        }
      ],
      "name": "diseases",
      "outputs": [
        {
          "internalType": "bytes32",
          "name": "disease_hash",
          "type": "bytes32"
        },
        {
          "internalType": "string",
          "name": "name",
          "type": "string"
        }
      ],
      "stateMutability": "view",
      "type": "function"
    },
    {
      "inputs": [],
      "name": "diseasesCounter",
      "outputs": [
        {
          "internalType": "uint256",
          "name": "",
          "type": "uint256"
        }
      ],
      "stateMutability": "view",
      "type": "function"
    },
    {
      "inputs": [
        {
          "internalType": "bytes32",
          "name": "",
          "type": "bytes32"
        }
      ],
      "name": "diseasesbyIds",
      "outputs": [
        {
          "internalType": "uint256",
          "name": "",
          "type": "uint256"
        }
      ],
      "stateMutability": "view",
      "type": "function"
    },
    {
      "inputs": [],
      "name": "epochCount",
      "outputs": [
        {
          "internalType": "uint256",
          "name": "",
          "type": "uint256"
        }
      ],
      "stateMutability": "view",
      "type": "function"
    },
    {
      "inputs": [
        {
          "internalType": "address",
          "name": "_staker",
          "type": "address"
        },
        {
          "internalType": "uint256",
          "name": "_amount",
          "type": "uint256"
        }
      ],
      "name": "eticatobosoms",
      "outputs": [
        {
          "internalType": "bool",
          "name": "success",
          "type": "bool"
        }
      ],
      "stateMutability": "nonpayable",
      "type": "function"
    },
    {
      "inputs": [],
      "name": "getChallengeNumber",
      "outputs": [
        {
          "internalType": "bytes32",
          "name": "",
          "type": "bytes32"
        }
      ],
      "stateMutability": "view",
      "type": "function"
    },
    {
      "inputs": [],
      "name": "getMiningDifficulty",
      "outputs": [
        {
          "internalType": "uint256",
          "name": "",
          "type": "uint256"
        }
      ],
      "stateMutability": "view",
      "type": "function"
    },
    {
      "inputs": [],
      "name": "getMiningReward",
      "outputs": [
        {
          "internalType": "uint256",
          "name": "",
          "type": "uint256"
        }
      ],
      "stateMutability": "view",
      "type": "function"
    },
    {
      "inputs": [],
      "name": "getMiningTarget",
      "outputs": [
        {
          "internalType": "uint256",
          "name": "",
          "type": "uint256"
        }
      ],
      "stateMutability": "view",
      "type": "function"
    },
    {
      "inputs": [
        {
          "internalType": "uint256",
          "name": "nonce",
          "type": "uint256"
        },
        {
          "internalType": "bytes32",
          "name": "challenge_digest",
          "type": "bytes32"
        },
        {
          "internalType": "bytes32",
          "name": "challenge_number",
          "type": "bytes32"
        }
      ],
      "name": "getMintDigest",
      "outputs": [
        {
          "internalType": "bytes32",
          "name": "digesttest",
          "type": "bytes32"
        }
      ],
      "stateMutability": "view",
      "type": "function"
    },
    {
      "inputs": [
        {
          "internalType": "string",
          "name": "_name",
          "type": "string"
        }
      ],
      "name": "getdiseasehashbyName",
      "outputs": [
        {
          "internalType": "bytes32",
          "name": "_diseasehash",
          "type": "bytes32"
        }
      ],
      "stateMutability": "view",
      "type": "function"
    },
    {
      "inputs": [],
      "name": "inflationrate",
      "outputs": [
        {
          "internalType": "uint256",
          "name": "",
          "type": "uint256"
        }
      ],
      "stateMutability": "view",
      "type": "function"
    },
    {
      "inputs": [],
      "name": "initiatormsg",
      "outputs": [
        {
          "internalType": "string",
          "name": "",
          "type": "string"
        }
      ],
      "stateMutability": "view",
      "type": "function"
    },
    {
      "inputs": [],
      "name": "lastRewardEthBlockNumber",
      "outputs": [
        {
          "internalType": "uint256",
          "name": "",
          "type": "uint256"
        }
      ],
      "stateMutability": "view",
      "type": "function"
    },
    {
      "inputs": [],
      "name": "lastRewardTo",
      "outputs": [
        {
          "internalType": "address",
          "name": "",
          "type": "address"
        }
      ],
      "stateMutability": "view",
      "type": "function"
    },
    {
      "inputs": [],
      "name": "latestDifficultyPeriodStarted",
      "outputs": [
        {
          "internalType": "uint256",
          "name": "",
          "type": "uint256"
        }
      ],
      "stateMutability": "view",
      "type": "function"
    },
    {
      "inputs": [],
      "name": "miningTarget",
      "outputs": [
        {
          "internalType": "uint256",
          "name": "",
          "type": "uint256"
        }
      ],
      "stateMutability": "view",
      "type": "function"
    },
    {
      "inputs": [
        {
          "internalType": "uint256",
          "name": "nonce",
          "type": "uint256"
        },
        {
          "internalType": "bytes32",
          "name": "challenge_digest",
          "type": "bytes32"
        }
      ],
      "name": "mint",
      "outputs": [
        {
          "internalType": "bool",
          "name": "success",
          "type": "bool"
        }
      ],
      "stateMutability": "nonpayable",
      "type": "function"
    },
    {
      "inputs": [
        {
          "internalType": "bytes4",
          "name": "nonce",
          "type": "bytes4"
        },
        {
          "internalType": "bytes",
          "name": "blockHeader",
          "type": "bytes"
        },
        {
          "internalType": "bytes32",
          "name": "currentChallenge",
          "type": "bytes32"
        },
        {
          "internalType": "bytes",
          "name": "randomxHash",
          "type": "bytes"
        },
        {
          "internalType": "uint256",
          "name": "claimedTarget",
          "type": "uint256"
        },
        {
          "internalType": "bytes",
          "name": "seedHash",
          "type": "bytes"
        },
        {
          "internalType": "bytes8",
          "name": "extraNonce",
          "type": "bytes8"
        }
      ],
      "name": "mintrandomX",
      "outputs": [
        {
          "internalType": "bool",
          "name": "success",
          "type": "bool"
        }
      ],
      "stateMutability": "nonpayable",
      "type": "function"
    },
    {
      "inputs": [],
      "name": "name",
      "outputs": [
        {
          "internalType": "string",
          "name": "",
          "type": "string"
        }
      ],
      "stateMutability": "view",
      "type": "function"
    },
    {
      "inputs": [],
      "name": "periodrewardtemp",
      "outputs": [
        {
          "internalType": "uint256",
          "name": "",
          "type": "uint256"
        }
      ],
      "stateMutability": "view",
      "type": "function"
    },
    {
      "inputs": [
        {
          "internalType": "uint256",
          "name": "",
          "type": "uint256"
        }
      ],
      "name": "periods",
      "outputs": [
        {
          "internalType": "uint256",
          "name": "id",
          "type": "uint256"
        },
        {
          "internalType": "uint256",
          "name": "interval",
          "type": "uint256"
        },
        {
          "internalType": "uint256",
          "name": "curation_sum",
          "type": "uint256"
        },
        {
          "internalType": "uint256",
          "name": "editor_sum",
          "type": "uint256"
        },
        {
          "internalType": "uint256",
          "name": "reward_for_curation",
          "type": "uint256"
        },
        {
          "internalType": "uint256",
          "name": "reward_for_editor",
          "type": "uint256"
        },
        {
          "internalType": "uint256",
          "name": "forprops",
          "type": "uint256"
        },
        {
          "internalType": "uint256",
          "name": "againstprops",
          "type": "uint256"
        }
      ],
      "stateMutability": "view",
      "type": "function"
    },
    {
      "inputs": [],
      "name": "periodsCounter",
      "outputs": [
        {
          "internalType": "uint256",
          "name": "",
          "type": "uint256"
        }
      ],
      "stateMutability": "view",
      "type": "function"
    },
    {
      "inputs": [
        {
          "internalType": "bytes32",
          "name": "",
          "type": "bytes32"
        }
      ],
      "name": "proposals",
      "outputs": [
        {
          "internalType": "uint256",
          "name": "id",
          "type": "uint256"
        },
        {
          "internalType": "bytes32",
          "name": "proposed_release_hash",
          "type": "bytes32"
        },
        {
          "internalType": "bytes32",
          "name": "disease_id",
          "type": "bytes32"
        },
        {
          "internalType": "uint256",
          "name": "period_id",
          "type": "uint256"
        },
        {
          "internalType": "uint256",
          "name": "chunk_id",
          "type": "uint256"
        },
        {
          "internalType": "address",
          "name": "proposer",
          "type": "address"
        },
        {
          "internalType": "string",
          "name": "title",
          "type": "string"
        },
        {
          "internalType": "string",
          "name": "description",
          "type": "string"
        },
        {
          "internalType": "string",
          "name": "freefield",
          "type": "string"
        },
        {
          "internalType": "string",
          "name": "raw_release_hash",
          "type": "string"
        }
      ],
      "stateMutability": "view",
      "type": "function"
    },
    {
      "inputs": [],
      "name": "proposalsCounter",
      "outputs": [
        {
          "internalType": "uint256",
          "name": "",
          "type": "uint256"
        }
      ],
      "stateMutability": "view",
      "type": "function"
    },
    {
      "inputs": [
        {
          "internalType": "uint256",
          "name": "",
          "type": "uint256"
        }
      ],
      "name": "proposalsbyIndex",
      "outputs": [
        {
          "internalType": "bytes32",
          "name": "",
          "type": "bytes32"
        }
      ],
      "stateMutability": "view",
      "type": "function"
    },
    {
      "inputs": [
        {
          "internalType": "bytes32",
          "name": "_diseasehash",
          "type": "bytes32"
        },
        {
          "internalType": "string",
          "name": "_title",
          "type": "string"
        },
        {
          "internalType": "string",
          "name": "_description",
          "type": "string"
        },
        {
          "internalType": "string",
          "name": "raw_release_hash",
          "type": "string"
        },
        {
          "internalType": "string",
          "name": "_freefield",
          "type": "string"
        },
        {
          "internalType": "uint256",
          "name": "_chunkid",
          "type": "uint256"
        }
      ],
      "name": "propose",
      "outputs": [],
      "stateMutability": "nonpayable",
      "type": "function"
    },
    {
      "inputs": [
        {
          "internalType": "bytes32",
          "name": "",
          "type": "bytes32"
        }
      ],
      "name": "propsdatas",
      "outputs": [
        {
          "internalType": "uint256",
          "name": "starttime",
          "type": "uint256"
        },
        {
          "internalType": "uint256",
          "name": "endtime",
          "type": "uint256"
        },
        {
          "internalType": "uint256",
          "name": "finalized_time",
          "type": "uint256"
        },
        {
          "internalType": "enum EticaRelease.ProposalStatus",
          "name": "status",
          "type": "uint8"
        },
        {
          "internalType": "enum EticaRelease.ProposalStatus",
          "name": "prestatus",
          "type": "uint8"
        },
        {
          "internalType": "bool",
          "name": "istie",
          "type": "bool"
        },
        {
          "internalType": "uint256",
          "name": "nbvoters",
          "type": "uint256"
        },
        {
          "internalType": "uint256",
          "name": "slashingratio",
          "type": "uint256"
        },
        {
          "internalType": "uint256",
          "name": "forvotes",
          "type": "uint256"
        },
        {
          "internalType": "uint256",
          "name": "againstvotes",
          "type": "uint256"
        },
        {
          "internalType": "uint256",
          "name": "lastcuration_weight",
          "type": "uint256"
        },
        {
          "internalType": "uint256",
          "name": "lasteditor_weight",
          "type": "uint256"
        },
        {
          "internalType": "uint256",
          "name": "approvalthreshold",
          "type": "uint256"
        }
      ],
      "stateMutability": "view",
      "type": "function"
    },
    {
      "inputs": [
        {
          "internalType": "address",
          "name": "",
          "type": "address"
        },
        {
          "internalType": "bytes32",
          "name": "",
          "type": "bytes32"
        }
      ],
      "name": "qamounts",
      "outputs": [
        {
          "internalType": "uint256",
          "name": "amount",
          "type": "uint256"
        }
      ],
      "stateMutability": "view",
      "type": "function"
    },
    {
      "inputs": [],
      "name": "randomxBlob",
      "outputs": [
        {
          "internalType": "bytes",
          "name": "",
          "type": "bytes"
        }
      ],
      "stateMutability": "view",
      "type": "function"
    },
    {
      "inputs": [
        {
          "internalType": "bytes32",
          "name": "",
          "type": "bytes32"
        },
        {
          "internalType": "address",
          "name": "",
          "type": "address"
        }
      ],
      "name": "randomxSealSolutions",
      "outputs": [
        {
          "internalType": "bytes32",
          "name": "",
          "type": "bytes32"
        }
      ],
      "stateMutability": "view",
      "type": "function"
    },
    {
      "inputs": [],
      "name": "randomxSeedhash",
      "outputs": [
        {
          "internalType": "bytes",
          "name": "",
          "type": "bytes"
        }
      ],
      "stateMutability": "view",
      "type": "function"
    },
    {
      "inputs": [
        {
          "internalType": "bytes32",
          "name": "_proposed_release_hash",
          "type": "bytes32"
        },
        {
          "internalType": "bool",
          "name": "_approved",
          "type": "bool"
        },
        {
          "internalType": "string",
          "name": "_vary",
          "type": "string"
        }
      ],
      "name": "recovercommit",
      "outputs": [],
      "stateMutability": "nonpayable",
      "type": "function"
    },
    {
      "inputs": [
        {
          "internalType": "bytes32",
          "name": "_votehash",
          "type": "bytes32"
        }
      ],
      "name": "recoverlostcommit",
      "outputs": [],
      "stateMutability": "nonpayable",
      "type": "function"
    },
    {
      "inputs": [
        {
          "internalType": "bytes32",
          "name": "_proposed_release_hash",
          "type": "bytes32"
        },
        {
          "internalType": "bool",
          "name": "_approved",
          "type": "bool"
        },
        {
          "internalType": "string",
          "name": "_vary",
          "type": "string"
        }
      ],
      "name": "revealvote",
      "outputs": [],
      "stateMutability": "nonpayable",
      "type": "function"
    },
    {
      "inputs": [
        {
          "internalType": "uint256",
          "name": "_stakeidx",
          "type": "uint256"
        }
      ],
      "name": "stakeclmidx",
      "outputs": [],
      "stateMutability": "nonpayable",
      "type": "function"
    },
    {
      "inputs": [
        {
          "internalType": "address",
          "name": "",
          "type": "address"
        },
        {
          "internalType": "uint256",
          "name": "",
          "type": "uint256"
        }
      ],
      "name": "stakes",
      "outputs": [
        {
          "internalType": "uint256",
          "name": "amount",
          "type": "uint256"
        },
        {
          "internalType": "uint256",
          "name": "endTime",
          "type": "uint256"
        }
      ],
      "stateMutability": "view",
      "type": "function"
    },
    {
      "inputs": [
        {
          "internalType": "address",
          "name": "",
          "type": "address"
        }
      ],
      "name": "stakesAmount",
      "outputs": [
        {
          "internalType": "uint256",
          "name": "",
          "type": "uint256"
        }
      ],
      "stateMutability": "view",
      "type": "function"
    },
    {
      "inputs": [
        {
          "internalType": "address",
          "name": "",
          "type": "address"
        }
      ],
      "name": "stakesCounters",
      "outputs": [
        {
          "internalType": "uint256",
          "name": "",
          "type": "uint256"
        }
      ],
      "stateMutability": "view",
      "type": "function"
    },
    {
      "inputs": [
        {
          "internalType": "address",
          "name": "_staker",
          "type": "address"
        }
      ],
      "name": "stakescount",
      "outputs": [
        {
          "internalType": "uint256",
          "name": "slength",
          "type": "uint256"
        }
      ],
      "stateMutability": "view",
      "type": "function"
    },
    {
      "inputs": [
        {
          "internalType": "uint256",
          "name": "_endTime",
          "type": "uint256"
        },
        {
          "internalType": "uint256",
          "name": "_min_limit",
          "type": "uint256"
        },
        {
          "internalType": "uint256",
          "name": "_maxidx",
          "type": "uint256"
        }
      ],
      "name": "stakescsldt",
      "outputs": [],
      "stateMutability": "nonpayable",
      "type": "function"
    },
    {
      "inputs": [
        {
          "internalType": "uint256",
          "name": "_stakeidx",
          "type": "uint256"
        },
        {
          "internalType": "uint256",
          "name": "_snapamount",
          "type": "uint256"
        }
      ],
      "name": "stakesnap",
      "outputs": [],
      "stateMutability": "nonpayable",
      "type": "function"
    },
    {
      "inputs": [],
      "name": "supply",
      "outputs": [
        {
          "internalType": "uint256",
          "name": "",
          "type": "uint256"
        }
      ],
      "stateMutability": "view",
      "type": "function"
    },
    {
      "inputs": [],
      "name": "symbol",
      "outputs": [
        {
          "internalType": "string",
          "name": "",
          "type": "string"
        }
      ],
      "stateMutability": "view",
      "type": "function"
    },
    {
      "inputs": [],
      "name": "tokensMinted",
      "outputs": [
        {
          "internalType": "uint256",
          "name": "",
          "type": "uint256"
        }
      ],
      "stateMutability": "view",
      "type": "function"
    },
    {
      "inputs": [],
      "name": "totalSupply",
      "outputs": [
        {
          "internalType": "uint256",
          "name": "",
          "type": "uint256"
        }
      ],
      "stateMutability": "view",
      "type": "function"
    },
    {
      "inputs": [
        {
          "internalType": "address",
          "name": "to",
          "type": "address"
        },
        {
          "internalType": "uint256",
          "name": "tokens",
          "type": "uint256"
        }
      ],
      "name": "transfer",
      "outputs": [
        {
          "internalType": "bool",
          "name": "success",
          "type": "bool"
        }
      ],
      "stateMutability": "nonpayable",
      "type": "function"
    },
    {
      "inputs": [
        {
          "internalType": "address",
          "name": "from",
          "type": "address"
        },
        {
          "internalType": "address",
          "name": "to",
          "type": "address"
        },
        {
          "internalType": "uint256",
          "name": "tokens",
          "type": "uint256"
        }
      ],
      "name": "transferFrom",
      "outputs": [
        {
          "internalType": "bool",
          "name": "",
          "type": "bool"
        }
      ],
      "stateMutability": "nonpayable",
      "type": "function"
    },
    {
      "inputs": [],
      "name": "updatecost",
      "outputs": [],
      "stateMutability": "nonpayable",
      "type": "function"
    },
    {
      "inputs": [],
      "name": "updatev2",
      "outputs": [],
      "stateMutability": "nonpayable",
      "type": "function"
    },
    {
      "inputs": [],
      "name": "updatev3",
      "outputs": [],
      "stateMutability": "nonpayable",
      "type": "function"
    },
    {
      "inputs": [
        {
          "internalType": "bytes32",
          "name": "",
          "type": "bytes32"
        },
        {
          "internalType": "address",
          "name": "",
          "type": "address"
        }
      ],
      "name": "votes",
      "outputs": [
        {
          "internalType": "bytes32",
          "name": "proposal_hash",
          "type": "bytes32"
        },
        {
          "internalType": "bool",
          "name": "approve",
          "type": "bool"
        },
        {
          "internalType": "bool",
          "name": "is_editor",
          "type": "bool"
        },
        {
          "internalType": "uint256",
          "name": "amount",
          "type": "uint256"
        },
        {
          "internalType": "address",
          "name": "voter",
          "type": "address"
        },
        {
          "internalType": "uint256",
          "name": "timestamp",
          "type": "uint256"
        },
        {
          "internalType": "bool",
          "name": "is_claimed",
          "type": "bool"
        }
      ],
      "stateMutability": "view",
      "type": "function"
    },
    {
      "stateMutability": "payable",
      "type": "receive"
    }
  ],
  "bytecode": "0x60c06040526005608090815264457469636160d81b60a05260009062000026908262000545565b5060408051808201909152600381526245544960e81b602082015260019062000050908262000545565b5060126002556408e4b1e125600655640e63c506db6007556107e0600e556004600f5560001960105562093a806019556224ea00601a55621baf80601b5562093a80601c55600254600a620000a6919062000724565b620000b390606462000732565b601d55600254620000c690600a62000724565b620000d390600a62000732565b601e55611388601f5560056020556001602181905560225561182460235560006024556043805460ff1990811690915562093a806044556045805490911690556108006049556040604a553480156200012b57600080fd5b5068056bc75e2d631000006003819055306000908152600960205260409020546200015691620001e0565b3060009081526009602052604090205568da5351938e7eb5b95c6005556002546200018390600a62000724565b620001929062b03d3062000732565b600b5560006017556801f30795e38ed87acc601355601054620001b99062030d4062000204565b60115542600c55620001ca62000226565b6b1004c20e49aa3240785fcad2600455620007bc565b6000620001ee82846200074c565b905082811015620001fe57600080fd5b92915050565b60008082116200021357600080fd5b6200021f828462000778565b9392505050565b600d5462000236906001620001e0565b600d819055600e5462000249916200078f565b6000036200025b576200025b620002ab565b6200026843600162000451565b406012819055601854600d54604080516020810194909452830191909152606082015260800160408051601f198184030181529190528051602090910120601255565b601154600c54600090620002c190429062000451565b600e54909150600090620002d8906102586200046d565b9050808210156200038f576000620002ff83620002f8846103e86200046d565b9062000204565b9050610fa0811115620003115750610fa05b60105462000322906103e862000204565b60115410156200034d5760115462000344908290620002f8906103e86200046d565b60115562000360565b6010546200035c908262000204565b6011555b6200036d84600462000204565b601154101562000388576200038484600462000204565b6011555b5062000420565b6000620003a482620002f8856103e86200046d565b9050610fa0811115620003b65750610fa05b601054620003c5908262000204565b60115411620003ef57601154620003e6906103e890620002f890846200046d565b601155620003f6565b6010546011555b620004038460046200046d565b60115411156200041e576200041a8460046200046d565b6011555b505b42600c55600f5460115410156200043857600f546011555b60105460115411156200044c576010546011555b505050565b6000828211156200046157600080fd5b6200021f8284620007a6565b60006200047b828462000732565b90508215806200049557508162000493848362000778565b145b620001fe57600080fd5b634e487b7160e01b600052604160045260246000fd5b600181811c90821680620004ca57607f821691505b602082108103620004eb57634e487b7160e01b600052602260045260246000fd5b50919050565b601f8211156200044c576000816000526020600020601f850160051c810160208610156200051c5750805b601f850160051c820191505b818110156200053d5782815560010162000528565b505050505050565b81516001600160401b038111156200056157620005616200049f565b6200057981620005728454620004b5565b84620004f1565b602080601f831160018114620005b15760008415620005985750858301515b600019600386901b1c1916600185901b1785556200053d565b600085815260208120601f198616915b82811015620005e257888601518255948401946001909101908401620005c1565b5085821015620006015787850151600019600388901b60f8161c191681555b5050505050600190811b01905550565b634e487b7160e01b600052601160045260246000fd5b600181815b80851115620006685781600019048211156200064c576200064c62000611565b808516156200065a57918102915b93841c93908002906200062c565b509250929050565b6000826200068157506001620001fe565b816200069057506000620001fe565b8160018114620006a95760028114620006b457620006d4565b6001915050620001fe565b60ff841115620006c857620006c862000611565b50506001821b620001fe565b5060208310610133831016604e8410600b8410161715620006f9575081810a620001fe565b62000705838362000627565b80600019048211156200071c576200071c62000611565b029392505050565b60006200021f838362000670565b8082028115828204841417620001fe57620001fe62000611565b80820180821115620001fe57620001fe62000611565b634e487b7160e01b600052601260045260246000fd5b6000826200078a576200078a62000762565b500490565b600082620007a157620007a162000762565b500690565b81810381811115620001fe57620001fe62000611565b61788680620007cc6000396000f3fe6080604052600436106106735760003560e01c80636bb5a5821161034e578063b5ade81b116101bb578063d89abcb5116100f7578063ea4a1104116100a0578063f71ae2aa1161007a578063f71ae2aa14611558578063f8c12e2c1461156e578063f8d826831461158e578063fc84abb7146115bb57600080fd5b8063ea4a11041461145c578063ecd3cb82146114f5578063f08a01f81461151557600080fd5b8063e47e25a2116100d1578063e47e25a2146113ec578063e723b9d914611419578063e729798e1461144657600080fd5b8063d89abcb51461136e578063dc6e9cf914611383578063dd62ed3e1461139957600080fd5b8063c7bef6ee11610164578063d03150c61161013e578063d03150c6146112ff578063d40170d714611315578063d732b8351461132b578063d74ce8c51461135857600080fd5b8063c7bef6ee146112a6578063cb9ae707146112d3578063cf70fa40146112e957600080fd5b8063be7d798e11610195578063be7d798e14611238578063bf6fc7251461124e578063c19885761461126e57600080fd5b8063b5ade81b146111f2578063b640776914611208578063b87c0c1d1461121e57600080fd5b80638a769d351161028a578063a5ec87e411610233578063b01ab0b21161020d578063b01ab0b214611187578063b31102e21461119c578063b4ef00f0146111bc578063b54f31db146111dc57600080fd5b8063a5ec87e414611119578063a6bd10951461112f578063a9059cbb1461116757600080fd5b806395d89b411161026457806395d89b411461107757806397566aa01461108c578063996901781461110357600080fd5b80638a769d3514610f7a5780638ae0368b14610f905780639386775a14610fa657600080fd5b806375165280116102f7578063829965cc116102d1578063829965cc14610ef4578063841218ee14610f0a57806387a2a9d614610f375780638885898514610f4d57600080fd5b80637516528014610e755780637f66cb4e14610eb457806381269a5614610ed457600080fd5b80636fd396d6116103285780636fd396d614610dca5780637006695114610e1c57806370a0823114610e3257600080fd5b80636bb5a58214610d7e5780636de9f32b14610d9e5780636fbbbf1d14610db457600080fd5b806332e99708116104ec578063490203a711610428578063584b62a1116103d15780635dbdda69116103ab5780635dbdda6914610ccd5780635dfa739614610ce357806362adb2e114610d265780636352170f14610d5e57600080fd5b8063584b62a114610c335780635965916f14610c875780635a2bc22d14610c9c57600080fd5b8063509fce5b11610402578063509fce5b14610bd05780635327d4af14610be65780635708416414610c0657600080fd5b8063490203a714610b085780634b44c6aa14610b1d5780634ef3762814610bbb57600080fd5b806337eed2d6116104955780633c5e64d11161046f5780633c5e64d114610a6c578063410e1b0714610a8c578063424d389414610aa257806346459b2214610ada57600080fd5b806337eed2d614610a2a5780633925bfe714610a405780633ab3429014610a5657600080fd5b8063366c41a3116104c6578063366c41a3146109e957806336dfec1c146109ff578063370ef54f14610a1457600080fd5b806332e997081461097157806332ed5b1214610986578063356df5ee146109bc57600080fd5b806317da485f116105bb578063229cb73c1161056457806327e235e31161053e57806327e235e3146109025780632e1750041461092f5780632f40907c14610945578063313ce5671461095b57600080fd5b8063229cb73c146108ad57806322ae4ccf146108c257806323b872dd146108e257600080fd5b80631853f0a8116105955780631853f0a81461083f5780631883a8d0146108555780631dcc83a91461088d57600080fd5b806317da485f146107f25780631801fbe51461080757806318160ddd1461082a57600080fd5b80630d899b1b1161061d5780631081a47e116105f75780631081a47e1461079a578063141a3dcf146107c7578063163aa00d146107dc57600080fd5b80630d899b1b1461074a5780630db5fea4146107645780630dbc6c551461078457600080fd5b8063047fc9aa1161064e578063047fc9aa146106f257806306fdde0314610708578063095ea7b31461072a57600080fd5b8062e6e553146106825780630206cea3146106ab578063037d2f35146106c257600080fd5b3661067d57600080fd5b600080fd5b34801561068e57600080fd5b5061069860075481565b6040519081526020015b60405180910390f35b3480156106b757600080fd5b506106c06115e8565b005b3480156106ce57600080fd5b506106e26106dd366004616a71565b61166e565b60405190151581526020016106a2565b3480156106fe57600080fd5b5061069860035481565b34801561071457600080fd5b5061071d611a91565b6040516106a29190616bc3565b34801561073657600080fd5b506106e2610745366004616bfa565b611b1f565b34801561075657600080fd5b506045546106e29060ff1681565b34801561077057600080fd5b506106c061077f366004616c24565b611bbb565b34801561079057600080fd5b5061069860225481565b3480156107a657600080fd5b506106986107b5366004616c82565b602d6020526000908152604090205481565b3480156107d357600080fd5b5061071d6122d5565b3480156107e857600080fd5b5061069860155481565b3480156107fe57600080fd5b506106986122e2565b34801561081357600080fd5b506106e2610822366004616c9b565b600092915050565b34801561083657600080fd5b50600354610698565b34801561084b57600080fd5b50610698602a5481565b34801561086157600080fd5b50610698610870366004616bfa565b604260209081526000928352604080842090915290825290205481565b34801561089957600080fd5b506106c06108a8366004616cbd565b612300565b3480156108b957600080fd5b506106986127ec565b3480156108ce57600080fd5b506106c06108dd366004616c9b565b612805565b3480156108ee57600080fd5b506106e26108fd366004616d7c565b612949565b34801561090e57600080fd5b5061069861091d366004616db8565b60096020526000908152604090205481565b34801561093b57600080fd5b50610698601a5481565b34801561095157600080fd5b5061069860365481565b34801561096757600080fd5b5061069860025481565b34801561097d57600080fd5b50601154610698565b34801561099257600080fd5b506109a66109a1366004616c82565b612a7b565b6040516106a29a99989796959493929190616dd3565b3480156109c857600080fd5b506106986109d7366004616c82565b60326020526000908152604090205481565b3480156109f557600080fd5b50610698601d5481565b348015610a0b57600080fd5b5061071d612d03565b348015610a2057600080fd5b50610698601b5481565b348015610a3657600080fd5b5061069860245481565b348015610a4c57600080fd5b50610698601c5481565b348015610a6257600080fd5b50610698601f5481565b348015610a7857600080fd5b506106c0610a87366004616e70565b612d10565b348015610a9857600080fd5b50610698600b5481565b348015610aae57600080fd5b50610698610abd366004616c9b565b603760209081526000928352604080842090915290825290205481565b348015610ae657600080fd5b50610afa610af5366004616c82565b612eb0565b6040516106a2929190616ed3565b348015610b1457600080fd5b50610698612f55565b348015610b2957600080fd5b50610ba2610b38366004616c82565b603460205260009081526040902080546001820154600283015460038401546004850154600586015460068701546007880154600889015460098a0154600a909a015498999798969760ff808816986101008904821698620100009004909116969594939291908d565b6040516106a29d9c9b9a99989796959493929190616f56565b348015610bc757600080fd5b50601254610698565b348015610bdc57600080fd5b5061069860085481565b348015610bf257600080fd5b506106c0610c01366004616fcc565b612f6f565b348015610c1257600080fd5b50610698610c21366004616db8565b603d6020526000908152604090205481565b348015610c3f57600080fd5b50610c72610c4e366004616bfa565b603e6020908152600092835260408084209091529082529020805460019091015482565b604080519283526020830191909152016106a2565b348015610c9357600080fd5b5061071d613109565b348015610ca857600080fd5b50610cbc610cb7366004616c82565b613126565b6040516106a2959493929190616ff8565b348015610cd957600080fd5b5061069860195481565b348015610cef57600080fd5b50610698610cfe366004616db8565b73ffffffffffffffffffffffffffffffffffffffff166000908152603f602052604090205490565b348015610d3257600080fd5b50610698610d41366004616c9b565b602f60209081526000928352604080842090915290825290205481565b348015610d6a57600080fd5b506106c0610d79366004616c24565b613267565b348015610d8a57600080fd5b506106c0610d9936600461703b565b613a83565b348015610daa57600080fd5b5061069860175481565b348015610dc057600080fd5b50610698602c5481565b348015610dd657600080fd5b50601454610df79073ffffffffffffffffffffffffffffffffffffffff1681565b60405173ffffffffffffffffffffffffffffffffffffffff90911681526020016106a2565b348015610e2857600080fd5b5061069860215481565b348015610e3e57600080fd5b50610698610e4d366004616db8565b73ffffffffffffffffffffffffffffffffffffffff1660009081526009602052604090205490565b348015610e8157600080fd5b50610c72610e90366004616bfa565b603c6020908152600092835260408084209091529082529020805460019091015482565b348015610ec057600080fd5b506106c0610ecf366004616c82565b613c33565b348015610ee057600080fd5b506106e2610eef366004617070565b6140e5565b348015610f0057600080fd5b50610698600d5481565b348015610f1657600080fd5b50610698610f25366004616c82565b60306020526000908152604090205481565b348015610f4357600080fd5b5061069860105481565b348015610f5957600080fd5b50610698610f68366004616c82565b60296020526000908152604090205481565b348015610f8657600080fd5b5061069860115481565b348015610f9c57600080fd5b5061069860125481565b348015610fb257600080fd5b50611024610fc13660046170a2565b603b602090815260009283526040808420909152908252902080546001820154600283015460038401546004850154600590950154939460ff8085169561010090950481169473ffffffffffffffffffffffffffffffffffffffff909316921687565b60408051978852951515602088015293151594860194909452606085019190915273ffffffffffffffffffffffffffffffffffffffff16608084015260a0830191909152151560c082015260e0016106a2565b34801561108357600080fd5b5061071d614155565b34801561109857600080fd5b506106986110a7366004616fcc565b604080516020808201939093523360601b7fffffffffffffffffffffffffffffffffffffffff00000000000000000000000016818301526054808201959095528151808203909501855260740190528251920191909120919050565b34801561110f57600080fd5b50610698601e5481565b34801561112557600080fd5b5061069860335481565b34801561113b57600080fd5b5061069861114a3660046170a2565b604660209081526000928352604080842090915290825290205481565b34801561117357600080fd5b506106e2611182366004616bfa565b614162565b34801561119357600080fd5b506106c0614221565b3480156111a857600080fd5b506106c06111b7366004616c9b565b6142da565b3480156111c857600080fd5b506106986111d736600461703b565b6143f6565b3480156111e857600080fd5b5061069860065481565b3480156111fe57600080fd5b50610698600e5481565b34801561121457600080fd5b5061069860045481565b34801561122a57600080fd5b506043546106e29060ff1681565b34801561124457600080fd5b5061069860205481565b34801561125a57600080fd5b506106e2611269366004616bfa565b61441e565b34801561127a57600080fd5b50610698611289366004616c9b565b603860209081526000928352604080842090915290825290205481565b3480156112b257600080fd5b506106986112c1366004616db8565b60406020819052600091825290205481565b3480156112df57600080fd5b50610698600c5481565b3480156112f557600080fd5b5061069860135481565b34801561130b57600080fd5b5061069860285481565b34801561132157600080fd5b5061069860055481565b34801561133757600080fd5b50610698611346366004616db8565b603f6020526000908152604090205481565b34801561136457600080fd5b5061069860265481565b34801561137a57600080fd5b506106c061446d565b34801561138f57600080fd5b50610698600f5481565b3480156113a557600080fd5b506106986113b43660046170ce565b73ffffffffffffffffffffffffffffffffffffffff9182166000908152600a6020908152604080832093909416825291909152205490565b3480156113f857600080fd5b50610698611407366004616c82565b603a6020526000908152604090205481565b34801561142557600080fd5b50610698611434366004616c82565b60396020526000908152604090205481565b34801561145257600080fd5b5061069860235481565b34801561146857600080fd5b506114ba611477366004616c82565b6025602052600090815260409020805460018201546002830154600384015460048501546005860154600687015460079097015495969495939492939192909188565b604080519889526020890197909752958701949094526060860192909252608085015260a084015260c083015260e0820152610100016106a2565b34801561150157600080fd5b506106c0611510366004616c82565b6144f0565b34801561152157600080fd5b50610698611530366004616db8565b73ffffffffffffffffffffffffffffffffffffffff166000908152603d602052604090205490565b34801561156457600080fd5b5061069860445481565b34801561157a57600080fd5b506106c0611589366004616c82565b6146f9565b34801561159a57600080fd5b506106986115a9366004616c82565b60276020526000908152604090205481565b3480156115c757600080fd5b506106986115d6366004616db8565b60416020526000908152604090205481565b60455460ff16156115f857600080fd5b60025461160690600a617247565b611612906103e8617253565b601e5561161d61505d565b60479061162a908261730d565b506116336151ae565b604890611640908261730d565b50604580547fffffffffffffffffffffffffffffffffffffffffffffffffffffffffffffff00166001179055565b6000604760405161167f9190617427565b60405180910390208780519060200120146116fb576040517f08c379a000000000000000000000000000000000000000000000000000000000815260206004820152601460248201527f426c6f636b486561646572206d69736d6174636800000000000000000000000060448201526064015b60405180910390fd5b601254861461170957600080fd5b60486040516117189190617427565b604051809103902083805190602001201461178f576040517f08c379a000000000000000000000000000000000000000000000000000000000815260206004820152601160248201527f5365656468617368206d69736d6174636800000000000000000000000000000060448201526064016116f2565b600061179a866174bb565b6011549091508511156117ac57600080fd5b6011548111156117bb57600080fd5b6012546000908152604660209081526040808320338452909152812054908190036117e557600080fd5b60008a87878a6040516020016117fe94939291906174fd565b60405160208183030381529060405280519060200120905081811461182257600080fd5b601254600090815260166020526040902054801561183f57600080fd5b601254600090815260166020526040902083905560025461186190600a617247565b61186e90621cd6d0617253565b601754111561195e5760025461188590600a617247565b611892906269be50617253565b601754106118ba57680184225822c46f7bf460135569028ef9f4baab7c212c7860055561195e565b6002546118c890600a617247565b6118d59062367950617253565b60175410156118fe576801bb94f70329a3fb606013556901b4a6a3271cfd6b72b860055561195e565b60025461190c90600a617247565b6119199062501bd0617253565b6017541015611942576801bb94f70329a3fb606013556901b4a6a3271cfd6b72b860055561195e565b6801bb94f70329a3fb606013556901b4a6a3271cfd6b72b86005555b60135460175461196d91615218565b6017819055600b541161198257611982617562565b60135460035461199191615218565b600355601354336000908152600960205260409020546119b091615218565b33600081815260096020526040902091909155601480547fffffffffffffffffffffffff0000000000000000000000000000000000000000169091179055436015556119fa615233565b601354600d546012546040805193845260208401929092529082015233907fcf6fbb9dcea7d07263ab4f5c3a92f53af33dffc421d9d121e1c74b307e68189d9060600160405180910390a2601354604051908152339030907fddf252ad1be2c89b69c2b068fc378daa952ba7f163c4a11628f55a4df523b3ef9060200160405180910390a35060019b9a5050505050505050505050565b60008054611a9e9061726a565b80601f0160208091040260200160405190810160405280929190818152602001828054611aca9061726a565b8015611b175780601f10611aec57610100808354040283529160200191611b17565b820191906000526020600020905b815481529060010190602001808311611afa57829003601f168201915b505050505081565b33600090815260096020526040812054821115611b3b57600080fd5b60008211611b4857600080fd5b336000818152600a6020908152604080832073ffffffffffffffffffffffffffffffffffffffff881680855290835292819020869055518581529192917f8c5be1e5ebec7d5bd14f71427d1e84f3dd0314c0f7b2291e5b200ac8c7c3b92591015b60405180910390a35060015b92915050565b600083833384604051602001611bd49493929190617591565b604080517fffffffffffffffffffffffffffffffffffffffffffffffffffffffffffffffe08184030181529181528151602092830120336000908152603c8452828120828252909352912054909150611c2c57600080fd5b6000848152603160205260409020805415801590611c4d5750848160010154145b611c5657600080fd5b6000858152603460205260409020601c546001820154611c7591615218565b4211611c8057600080fd5b336000818152603c602090815260408083208784528252808320549383526041909152902054611caf91615311565b336000908152604160209081526040808320939093556003850154825260259052908120601954909190611ce4904290615331565b90506000611d166001611d10601954611d0a601c54601b5461521890919063ffffffff16565b90615331565b90615218565b6001840154909150611d289082615218565b821015611d3457600080fd5b60008815611d40575060015b336000908152603c602090815260408083208a84529091528120546005870154602154601a54929392611d899261271092611d0a92611d83916004918391615349565b90615349565b905060038088810154610100900460ff1690811115611daa57611daa616eec565b03611db457506044545b600387810154610100900460ff1690811115611dd257611dd2616eec565b836003811115611de457611de4616eec565b03611e2357611e20612710611d0a8960050154612711611e0491906175ce565b611d836002611d83602154601a5461534990919063ffffffff16565b90505b336000908152603c602090815260408083208c8452909152812054611e5090606490611d0a90600a615349565b90506126ac8860050154118015611e955750600388810154610100900460ff1690811115611e8057611e80616eec565b846003811115611e9257611e92616eec565b14155b15611ea857611ea5816002615349565b90505b60408051828152602081018f905233917f53ef86fe8b545e88c8078a71aa8a9be4140e6f140b4e36f0ffee9207cf1ee896910160405180910390a2600854611ef09082615218565b600855336000908152603c602090815260408083208d8452909152902054611f189082615311565b925060015b336000908152603f6020526040902054811161200f57336000908152603e60209081526040808320848452909152902054821015611fc557336000908152603e60209081526040808320848452909152902054611f7a9083615311565b336000818152603e60209081526040808320868452825280832094909455918152908290522054611fab9083615311565b33600090815260406020819052812091909155915061200f565b336000908152603e60209081526040808320848452909152902054611feb908390615311565b9150611ff73382615375565b811561200f5780612007816175e1565b915050611f1d565b5082156122545760408051848152602081018f905290810183905233907fd93567a4d470fa277429086aae141410cccc35c73954734ea3e24152fc044f359060600160405180910390a260015b336000908152603f6020526040902054811161225257336000908152603e60209081526040808320848452909152902054841061215f57336000908152603e6020908152604080832084845290915290206001015442101561210357336000908152603e602090815260408083208484529091529020600101546120e09084615218565b336000908152603e6020908152604080832085845290915290206001015561212c565b61210d4284615218565b336000908152603e602090815260408083208584529091529020600101555b336000908152603e60209081526040808320848452909152902054612152908590615311565b9350831561225257612240565b336000908152603e602090815260408083208484529091528120546121849086615311565b336000908152603e602090815260408083208684529091529020600181015490879055909150428111156121fd57336000908152603e602090815260408083208684529091529020600101546121da9086615218565b336000908152603e60209081526040808320878452909152902060010155612226565b6122074286615218565b336000908152603e602090815260408083208784529091529020600101555b8115612239576122373383836154b4565b505b5050612252565b8061224a816175e1565b91505061205c565b505b6001890154336000818152603c602090815260408083208f84528252918290205491519182527f3ededec39a86b2261e09be07993014ceae66346b9af09000ec0cc87fe2d8f9de910160405180910390a3336000908152603c602090815260408083208d845290915281208181556001015550505050505050505050505050565b60488054611a9e9061726a565b60006122fb60115460105461533190919063ffffffff16565b905090565b6000868152602d60205260409020541580159061232d5750602c546000878152602d602052604090205411155b61233657600080fd5b6000868152602d60209081526040808320548352602b909152902054861461235d57600080fd5b60365481111561236c57600080fd5b60008387604051602001612381929190617619565b604080517fffffffffffffffffffffffffffffffffffffffffffffffffffffffffffffffe0818403018152918152815160209283012060008a815260309093529120549091506123d2906001615218565b6000888152603060209081526040808320849055602f825280832093835292905220819055603354612405906001615218565b60338190556000908152603260209081526040808320849055838352603190915290206001015480151580612447575060008281526031602052604090205415155b1561245157600080fd5b60006124686019544261533190919063ffffffff16565b6000818152602960205260408120549192500361248757612487615554565b60008381526031602090815260408083206033548155600281018d90558484526029909252909120546003820155600181018490556005810180547fffffffffffffffffffffffff00000000000000000000000000000000000000001633179055600681016124f68a8261730d565b5060078101612505898261730d565b5060098101612514888261730d565b5060088101612523878261730d565b5060008481526034602052604081206003810180547fffffffffffffffffffffffffffffffffffffffffffffffffffffffffff00000016620102021790556004810182905560058101829055600681018290556007810182905560088101829055600981019190915542808255601b5461259d9190615218565b6001820155601f54600a820155601e54336000908152603d602052604090205410156125c857600080fd5b601e54336000908152603d60205260409020546125e491615311565b336000908152603d6020908152604080832093909355601e5460419091529190205461260f91615218565b33600081815260416020908152604080832094909455600186810154808452603b8352858420858552835285842090815590810180547fffffffffffffffffffffffffffffffffffffffffffffffffffffffffffff000016610101179055601e546002820155600380820180547fffffffffffffffffffffffff00000000000000000000000000000000000000001690951790945542600482015592850180547fffffffffffffffffffffffffffffffffffffffffffffffffffffffffffff00ff16610300179055898252603590529190912054801580159061270257506000888152603560205260409020600101548d145b1561275357600484018890556000888152603a6020526040902054612728906001615218565b6000898152603a60209081526040808320849055600188015460388352818420948452939091529020555b6018546040805160208101929092528101889052606001604080518083037fffffffffffffffffffffffffffffffffffffffffffffffffffffffffffffffe001815290829052805160209182012060185560028601548983528a92909133917ff20f961bd89931f54768689d741307497501063bee5847fc3fcaa72b026d1859910160405180910390a450505050505050505050505050565b60006122fb60085460035461531190919063ffffffff16565b612710821161281357600080fd5b336000908152603d602052604090205482111561282f57600080fd5b336000908152603d60205260409020546128499083615311565b336000908152603d602090815260408083209390935560419052205461286f9083615218565b33600090815260416020908152604080832093909355603c81528282208483529052205461289d9083615218565b336000908152603c60209081526040808320858452825291829020928355426001909301929092556018548151928301528101829052606001604080518083037fffffffffffffffffffffffffffffffffffffffffffffffffffffffffffffffe00181528282528051602091820120601855838352820184905233917f8a1ff244f8a72f76c71ce96c1ddf485af695058f9e3638a8359e74257d71a30691015b60405180910390a25050565b73ffffffffffffffffffffffffffffffffffffffff83166000908152600960205260408120546129799083615311565b73ffffffffffffffffffffffffffffffffffffffff8516600090815260096020908152604080832093909355600a8152828220338352905220546129bd9083615311565b73ffffffffffffffffffffffffffffffffffffffff8086166000908152600a60209081526040808320338452825280832094909455918616815260099091522054612a089083615218565b73ffffffffffffffffffffffffffffffffffffffff80851660008181526009602052604090819020939093559151908616907fddf252ad1be2c89b69c2b068fc378daa952ba7f163c4a11628f55a4df523b3ef90612a699086815260200190565b60405180910390a35060019392505050565b60316020526000908152604090208054600182015460028301546003840154600485015460058601546006870180549697959694959394929373ffffffffffffffffffffffffffffffffffffffff90921692612ad69061726a565b80601f0160208091040260200160405190810160405280929190818152602001828054612b029061726a565b8015612b4f5780601f10612b2457610100808354040283529160200191612b4f565b820191906000526020600020905b815481529060010190602001808311612b3257829003601f168201915b505050505090806007018054612b649061726a565b80601f0160208091040260200160405190810160405280929190818152602001828054612b909061726a565b8015612bdd5780601f10612bb257610100808354040283529160200191612bdd565b820191906000526020600020905b815481529060010190602001808311612bc057829003601f168201915b505050505090806008018054612bf29061726a565b80601f0160208091040260200160405190810160405280929190818152602001828054612c1e9061726a565b8015612c6b5780601f10612c4057610100808354040283529160200191612c6b565b820191906000526020600020905b815481529060010190602001808311612c4e57829003601f168201915b505050505090806009018054612c809061726a565b80601f0160208091040260200160405190810160405280929190818152602001828054612cac9061726a565b8015612cf95780601f10612cce57610100808354040283529160200191612cf9565b820191906000526020600020905b815481529060010190602001808311612cdc57829003601f168201915b505050505090508a565b60478054611a9e9061726a565b6000838152602d602052604090205415801590612d3d5750602c546000848152602d602052604090205411155b612d4657600080fd5b6000838152602d60209081526040808320548352602b9091529020548314612d6d57600080fd5b601d54600090612d7e906014615331565b33600090815260096020526040902054909150811115612d9d57600080fd5b612da73082614162565b50603654612db6906001615218565b603655600084815260396020526040902054612dd3906001615218565b600085815260396020908152604080832084815560365460378452828520958552948352818420859055815160a0810183528581528084018a81529154818401908152606082018a8152608083018a905296865260359094529190932081518155925160018401559051600283015591516003820190612e53908261730d565b5060808201516004820190612e68908261730d565b5050600854612e78915082615218565b6008556036546040518591907fb733708a2586752275a4854aac54c7bb263ad67859f07d16147feea53ca009d790600090a350505050565b602b6020526000908152604090208054600182018054919291612ed29061726a565b80601f0160208091040260200160405190810160405280929190818152602001828054612efe9061726a565b8015612f4b5780601f10612f2057610100808354040283529160200191612f4b565b820191906000526020600020905b815481529060010190602001808311612f2e57829003601f168201915b5050505050905082565b6000600b5460175411612f69575060135490565b50600090565b612f7d426303c26700615218565b8310612f8857600080fd5b60328111158015612fa85750336000908152603f60205260409020548111155b612fb157600080fd5b6000806001805b8481116130b257336000908152603f60205260409020546002116130a057336000908152603f60205260409020548111612ff457809150613011565b612ffe8184615311565b9150600182101561301157613011617562565b336000908152603e60209081526040808320858452909152902060010154871080159061305b5750336000908152603e602090815260408083208584529091529020600101548611155b156130a057336000908152603e60209081526040808320858452909152902054613086908590615218565b93506130923383615375565b61309d836001615218565b92505b806130aa816175e1565b915050612fb8565b5082156130c6576130c43384886156b4565b505b604080518781526020810187905233917f52806950881c6df8cc206c3b151fcc9aea7b2d53d8ff441469dffd05e851e3ab910160405180910390a2505050505050565b60405180610100016040528060d8815260200161777960d8913981565b6035602052600090815260409020805460018201546002830154600384018054939492939192916131569061726a565b80601f01602080910402602001604051908101604052809291908181526020018280546131829061726a565b80156131cf5780601f106131a4576101008083540402835291602001916131cf565b820191906000526020600020905b8154815290600101906020018083116131b257829003601f168201915b5050505050908060040180546131e49061726a565b80601f01602080910402602001604051908101604052809291908181526020018280546132109061726a565b801561325d5780601f106132325761010080835404028352916020019161325d565b820191906000526020600020905b81548152906001019060200180831161324057829003601f168201915b5050505050905085565b6000838333846040516020016132809493929190617591565b604080517fffffffffffffffffffffffffffffffffffffffffffffffffffffffffffffffe08184030181529181528151602092830120336000908152603c84528281208282529093529120549091506132d857600080fd5b60008481526031602052604090208054158015906132f95750848160010154145b61330257600080fd5b6000858152603460209081526040808320600180820154338652603c8552838620888752909452919093200154111561333a57600080fd5b80600101544211801561335d5750601c54600182015461335991615218565b4211155b61336657600080fd5b6002600382810154610100900460ff169081111561338657613386616eec565b0361339057600080fd5b600881015460098201546003840154600090815260256020908152604080832060018801548452603b835281842033855290925290912054801515806133f6575060018601546000908152603b6020908152604080832033845290915290206002015415155b1561340057600080fd5b6000603b60008860010154815260200190815260200160002060003373ffffffffffffffffffffffffffffffffffffffff1673ffffffffffffffffffffffffffffffffffffffff168152602001908152602001600020905086600101548160000181905550898160010160006101000a81548160ff02191690831515021790555060008160010160016101000a81548160ff021916908315150217905550603c60003373ffffffffffffffffffffffffffffffffffffffff1673ffffffffffffffffffffffffffffffffffffffff1681526020019081526020016000206000898152602001908152602001600020600001548160020181905550338160030160006101000a81548173ffffffffffffffffffffffffffffffffffffffff021916908373ffffffffffffffffffffffffffffffffffffffff16021790555042816004018190555061355e6001876004015461521890919063ffffffff16565b6004870155336000908152603c602090815260408083208b8452909152812054670de0b6b3a764000011156135ba57336000908152603c602090815260408083208c84529091529020546135b3906002615331565b90506135f0565b6135ed6135ea670a688906bd8b0000336000908152603c602090815260408083208f8452909152902054906157d2565b90565b90505b33600090815260426020908152604080832060018c0154845290915290208190558a156136305760068701546136269082615218565b6006880155613645565b600787015461363f9082615218565b60078801555b60008060006136658a600701548b6006015461521890919063ffffffff16565b905060006136826127108c6006015461534990919063ffffffff16565b600a8c01549091506000906136978385615331565b11156136a257600194505b600a8c01546136b18385615331565b036136bb57600193505b60038c0180547fffffffffffffffffffffffffffffffffffffffffffffffffffffffffff00ffff166201000086151502179055841561374757613710612710611d0a858f600a0154612710611d8391906175ce565b905061372f81611d0a6127108f6007015461534990919063ffffffff16565b905061373d816127106175ce565b60058d0155613797565b613764612710611d0a8e600a01548661534990919063ffffffff16565b905061378381611d0a6127108f6006015461534990919063ffffffff16565b9050613791816127106175ce565b60058d01555b6127108c6005015411156137aa57600080fd5b600085156137b6575060015b6003808e810154610100900460ff16908111156137d5576137d5616eec565b036138145785156137fa5760068a01546137f0906001615218565b60068b01556138b2565b60078a015461380a906001615218565b60078b01556138b2565b60038d810154610100900460ff169081111561383257613832616eec565b81600381111561384457613844616eec565b146138b257600181600381111561385d5761385d616eec565b036138875760078a0154613872906001615311565b60078b015560068a01546137f0906001615218565b60068a0154613897906001615311565b60068b015560078a01546138ac906001615218565b60078b01555b841561391d5760038d0180547fffffffffffffffffffffffffffffffffffffffffffffffffffffffffffff00ff169055600060088e0181905560098e015560028a01546138ff908d615311565b60028b015560038a0154613913908c615311565b60038b0155613a01565b85156139965760038d0180547fffffffffffffffffffffffffffffffffffffffffffffffffffffffffffff00ff1661010017905560068d015460088e0181905560098e0181905560028b01546139789190611d10908f615311565b60028b015560098d015460038b01546139139190611d10908e615311565b60038d0180547fffffffffffffffffffffffffffffffffffffffffffffffffffffffffffff00ff16905560078d015460088e01819055600060098f015560028b01546139e79190611d10908f615311565b60028b015560038a01546139fb908c615311565b60038b01555b60018e0154600289015460405190815233907f4627acd8194d77d62502e6eb464100f9c2d8a487c62a6fd54048d3d8f1cb5c519060200160405180910390a3613a6f8f336000908152603c602090815260408083208484528083529083208381559383529052600190910155565b505050505050505050505050505050505050565b6040805160008152602081018083528151902091613aa39184910161763b565b6040516020818303038152906040528051906020012003613ac357600080fd5b601d54336000908152600960205260409020541015613ae157600080fd5b613aed30601d54614162565b50601d54600854613afd91615218565b600855604051600090613b14908390602001616bc3565b604051602081830303815290604052805190602001209050613b426001602c5461521890919063ffffffff16565b602c556000818152602d602052604090205415613b5e57600080fd5b602e82604051613b6e919061763b565b9081526040519081900360200190205415613b8857600080fd5b6040805180820182528281526020808201858152602c546000908152602b9092529290208151815591519091906001820190613bc4908261730d565b5050602c546000838152602d6020526040908190209190915551829150602e90613bef90859061763b565b908152602001604051809103902081905550602c547f830578780908e1ff0fbde38777892998c31b30c39451a5a3b0e99cbf7bd781df8360405161293d9190616bc3565b336000908152603c60209081526040808320848452909152902054613c5757600080fd5b336000818152603c602090815260408083208584528252808320549383526041909152902054613c8691615311565b33600090815260416020908152604080832093909355603c81528282208483529052908120546044549091613cc16064611d0a856015615349565b604080518281526000602082015291925033917f53ef86fe8b545e88c8078a71aa8a9be4140e6f140b4e36f0ffee9207cf1ee896910160405180910390a2600854613d0c9082615218565b600855336000908152603c60209081526040808320878452909152902054613d349082615311565b925060015b336000908152603f60205260409020548111613e2b57336000908152603e60209081526040808320848452909152902054821015613de157336000908152603e60209081526040808320848452909152902054613d969083615311565b336000818152603e60209081526040808320868452825280832094909455918152908290522054613dc79083615311565b336000908152604060208190528120919091559150613e2b565b336000908152603e60209081526040808320848452909152902054613e07908390615311565b9150613e133382615375565b8115613e2b5780613e23816175e1565b915050613d39565b50821561407057604080518481526000602082015290810183905233907fd93567a4d470fa277429086aae141410cccc35c73954734ea3e24152fc044f359060600160405180910390a260015b336000908152603f6020526040902054811161406e57336000908152603e602090815260408083208484529091529020548410613f7b57336000908152603e60209081526040808320848452909152902060010154421015613f1f57336000908152603e60209081526040808320848452909152902060010154613efc9084615218565b336000908152603e60209081526040808320858452909152902060010155613f48565b613f294284615218565b336000908152603e602090815260408083208584529091529020600101555b336000908152603e60209081526040808320848452909152902054613f6e908590615311565b9350831561406e5761405c565b336000908152603e60209081526040808320848452909152812054613fa09086615311565b336000908152603e6020908152604080832086845290915290206001810154908790559091504281111561401957336000908152603e60209081526040808320868452909152902060010154613ff69086615218565b336000908152603e60209081526040808320878452909152902060010155614042565b6140234286615218565b336000908152603e602090815260408083208784529091529020600101555b8115614055576140533383836154b4565b505b505061406e565b80614066816175e1565b915050613e78565b505b336000818152603c6020908152604080832088845282528083205490519081529192917f3ededec39a86b2261e09be07993014ceae66346b9af09000ec0cc87fe2d8f9de910160405180910390a3336000908152603c6020908152604080832087845290915281208181556001015550505050565b6040805160208082018590523360601b7fffffffffffffffffffffffffffffffffffffffff0000000000000000000000001682840152605480830188905283518084039091018152607490920190925280519101206000908281111561414a57600080fd5b909314949350505050565b60018054611a9e9061726a565b600080821161417057600080fd5b3360009081526009602052604090205461418a9083615311565b336000908152600960205260408082209290925573ffffffffffffffffffffffffffffffffffffffff8516815220546141c39083615218565b73ffffffffffffffffffffffffffffffffffffffff84166000818152600960205260409081902092909255905133907fddf252ad1be2c89b69c2b068fc378daa952ba7f163c4a11628f55a4df523b3ef90611ba99086815260200190565b60025461422f90600a617247565b61423d906301406f40617253565b600354101561424b57600080fd5b603460265461425a9190617686565b1561426457600080fd5b60006142896509184e72a000611d0a6302d69be660035461534990919063ffffffff16565b905060006142b0655af3107a4000611d0a6302d69be660035461534990919063ffffffff16565b601e819055601d839055602654602454919250116142d0576142d0617562565b5050602654602455565b600081116142e757600080fd5b6000821180156143065750336000908152603f60205260409020548211155b61430f57600080fd5b336000908152603e6020908152604080832085845290915290208054821061433657600080fd5b80546000906143459084615311565b838355336000908152603f6020526040902054909150614366906001615218565b336000818152603f6020908152604080832085905580518082018252868152600180890154828501908152958552603e845282852096855295909252909120905181559051910155806143bb576143bb617562565b60405183815233907f5bbe98d566948f7d7db717dafb0a14082df525118fac86c23df2302f161c03479060200160405180910390a250505050565b6000602e82604051614408919061763b565b9081526020016040518091039020549050919050565b60003373ffffffffffffffffffffffffffffffffffffffff84161461444257600080fd5b6000821161444f57600080fd5b6144593083614162565b5061446483836158e4565b50600192915050565b60435460ff161561447d57600080fd5b60025461448b90600a617247565b614496906064617253565b601e556090600e556002546144ac90600a617247565b6144b99062f05370617253565b600b5562127500604455604380547fffffffffffffffffffffffffffffffffffffffffffffffffffffffffffffff00166001179055565b60008111801561450f5750336000908152603f60205260409020548111155b61451857600080fd5b336000908152603e6020908152604080832084845290915290206001810154421161454257600080fd5b33600090815260416020908152604080832054918190529091205461456691615311565b8154111561457357600080fd5b336000908152603d602090815260408083205484549282905292205461459891615311565b10156146265733600090815260416020908152604080832054845492829052908320546145cf926145c99190615311565b90615311565b1115614615573360009081526041602090815260408083205484549282905292205461460092916145c99190615311565b336000908152603d6020526040902055614626565b336000908152603d60205260408120555b80543060009081526009602052604090205461464191615311565b306000908152600960205260408082209290925582543382529190205461466791615218565b336000818152600960209081526040918290209390935583549051908152909130917fddf252ad1be2c89b69c2b068fc378daa952ba7f163c4a11628f55a4df523b3ef910160405180910390a3805460405190815233907f2aeea59856f5616c244717fd488ead1d1b5fd33608d9583a4607b4c4ba3631e49060200160405180910390a26146f53383615375565b5050565b600081815260316020526040902080541580159061471a5750818160010154145b61472357600080fd5b6000828152603460205260409020601c54600182015461474291615218565b421161474d57600080fd5b60018201546000908152603b6020908152604080832033845290915290208054841461477857600080fd5b600581015460ff161561478a57600080fd5b6005810180547fffffffffffffffffffffffffffffffffffffffffffffffffffffffffffffff001660011790556002810154336000908152604160205260409020546147d591615311565b33600090815260416020908152604080832093909355600386015482526025905290812060195490919061480a904290615331565b905060006148306001611d10601954611d0a601c54601b5461521890919063ffffffff16565b60018401549091506148429082615218565b82101561484e57600080fd5b600260038087015460ff169081111561486957614869616eec565b036148f7576001600386810154610100900460ff169081111561488e5761488e616eec565b036148c5576003850180547fffffffffffffffffffffffffffffffffffffffffffffffffffffffffffffff001660011790556148f0565b6003850180547fffffffffffffffffffffffffffffffffffffffffffffffffffffffffffffff001690555b4260028601555b600385015462010000900460ff16614fcf57600184015460009060ff161561491d575060015b60038087015460ff169081111561493657614936616eec565b81600381111561494857614948616eec565b14614dc257600085600201549050600061497d612710611d0a8a60050154611d83602154601a5461534990919063ffffffff16565b6001880154909150610100900460ff16156149a3576022546149a0908290615349565b90505b61232888600501541115614b755760006149d06064611d0a60038b6002015461534990919063ffffffff16565b90506126ac89600501541115614a00576149fd6064611d0a60078b6002015461534990919063ffffffff16565b90505b6001880154610100900460ff1615614a19575060028701545b875460405133917f53ef86fe8b545e88c8078a71aa8a9be4140e6f140b4e36f0ffee9207cf1ee89691614a5491858252602082015260400190565b60405180910390a2600854614a699082615218565b6008556002880154614a7b9082615311565b925060015b336000908152603f60205260409020548111614b7257336000908152603e60209081526040808320848452909152902054821015614b2857336000908152603e60209081526040808320848452909152902054614add9083615311565b336000818152603e60209081526040808320868452825280832094909455918152908290522054614b0e9083615311565b336000908152604060208190528120919091559150614b72565b336000908152603e60209081526040808320848452909152902054614b4e908390615311565b9150614b5a3382615375565b8115614b725780614b6a816175e1565b915050614a80565b50505b8115614dbb578654604080518481526020810192909252810182905233907fd93567a4d470fa277429086aae141410cccc35c73954734ea3e24152fc044f359060600160405180910390a260015b336000908152603f60205260409020548111614db957336000908152603e602090815260408083208484529091529020548310614cc657336000908152603e60209081526040808320848452909152902060010154421015614c6a57336000908152603e60209081526040808320848452909152902060010154614c479083615218565b336000908152603e60209081526040808320858452909152902060010155614c93565b614c744283615218565b336000908152603e602090815260408083208584529091529020600101555b336000908152603e60209081526040808320848452909152902054614cb9908490615311565b92508215614db957614da7565b336000908152603e60209081526040808320848452909152812054614ceb9085615311565b336000908152603e60209081526040808320868452909152902060018101549086905590915042811115614d6457336000908152603e60209081526040808320868452909152902060010154614d419085615218565b336000908152603e60209081526040808320878452909152902060010155614d8d565b614d6e4285615218565b336000908152603e602090815260408083208784529091529020600101555b8115614da057614d9e3383836154b4565b505b5050614db9565b80614db1816175e1565b915050614bc3565b505b5050614fcd565b600080856002015411614dd457600080fd5b6001860154610100900460ff16614e74573360009081526042602090815260408083208c845290915290205415614e4b57600285015460048601543360009081526042602090815260408083208e8452909152902054614e4492614e3d929091611d0a91615349565b8290615218565b9050614e74565b614e71614e3d8660020154611d0a88600401548a6002015461534990919063ffffffff16565b90505b6001860154610100900460ff168015614ea55750600160038089015460ff1690811115614ea357614ea3616eec565b145b15614ee4576000856003015411614ebb57600080fd5b614ee1614e3d8660030154611d0a88600501548b6009015461534990919063ffffffff16565b90505b60058501546004860154614ef791615218565b811115614f0357600080fd5b30600090815260096020526040902054614f1d9082615311565b30600090815260096020526040808220929092553381522054614f409082615218565b336000818152600960205260409081902092909255905130907fddf252ad1be2c89b69c2b068fc378daa952ba7f163c4a11628f55a4df523b3ef90614f889085815260200190565b60405180910390a360408051828152602081018b905233917fe413caa6d70a6d9b51c2af2575a2914490f614355049af8ae7cde5caab9fd201910160405180910390a2505b505b3360009081526042602090815260408083208a84529091529020541561500b573360009081526042602090815260408083208a84529091528120555b600385015462010000900460ff16156150545760405187815233907f3e0648214287dbba314854c056353ff9db951ab8f6459ea7c7f922025ba9fdfe9060200160405180910390a25b50505050505050565b6060600061506c6001436175ce565b60185460125460408051934060208501528301919091526060820152608001604080517fffffffffffffffffffffffffffffffffffffffffffffffffffffffffffffffe0818403018152828252805160209182012090830181905242918301919091523360608301529150600090608001604080517fffffffffffffffffffffffffffffffffffffffffffffffffffffffffffffffe08184030181528282528051602091820120600d54918401819052918301529150600090606001604080517fffffffffffffffffffffffffffffffffffffffffffffffffffffffffffffffe081840301815282825280516020918201209083018690529082018490527fffffffffffffffffffffffffffffffff00000000000000000000000000000000811660608301529150607001604051602081830303815290604052935050505090565b601854600d546040516060926151c99260489260200161769a565b604080517fffffffffffffffffffffffffffffffffffffffffffffffffffffffffffffffe081840301815282825280516020918201209083015201604051602081830303815290604052905090565b60006152248284617751565b905082811015611bb557600080fd5b600d54615241906001615218565b600d819055600e5461525291617686565b6000036152615761526161594c565b604954600d546152719190617686565b60000361528f576152806151ae565b60489061528d908261730d565b505b61529a436001615311565b406012819055601854600d546040805160208101949094528301919091526060820152608001604080517fffffffffffffffffffffffffffffffffffffffffffffffffffffffffffffffe0818403018152919052805160209091012060125561530161505d565b60479061530e908261730d565b50565b60008282111561532057600080fd5b61532a82846175ce565b9392505050565b600080821161533f57600080fd5b61532a8284617764565b60006153558284617253565b905082158061536c57508161536a8483617764565b145b611bb557600080fd5b6000811180156153aa575073ffffffffffffffffffffffffffffffffffffffff82166000908152603f60205260409020548111155b6153b357600080fd5b73ffffffffffffffffffffffffffffffffffffffff82166000818152603e60209081526040808320858452825280832054938352908190529020546153f791615311565b73ffffffffffffffffffffffffffffffffffffffff831660008181526040602081815281832094909455603e8452808220603f80865282842080548552828752838520888652848620815481556001918201549082015584518086018652868152808901878152835488529489529486209451855592519383019390935593909252919092525461548791615311565b73ffffffffffffffffffffffffffffffffffffffff9092166000908152603f602052604090209190915550565b60008083116154c257600080fd5b73ffffffffffffffffffffffffffffffffffffffff84166000908152603f60205260409020546154f3906001615218565b73ffffffffffffffffffffffffffffffffffffffff949094166000818152603f6020908152604080832088905580518082018252968752868201958652928252603e8152828220968252959095529093209151825551600191820155919050565b600061556b6019544261533190919063ffffffff16565b600081815260296020526040902054909150801561558857600080fd5b602654615596906001615218565b6026818155604080516101008101825283815260208082018781526000838501818152606085018281526080860183815260a0870184815260c0880185815260e089018681529b8652602588528986209851895595516001808a0191909155935160028901559151600388015551600487015551600586015591516006850155955160079093019290925592548685526029909352922055602a5461563a91615218565b602a5560265461564990615ad3565b5060205460265461565b906001615311565b6156659190617686565b15801561567457506001602654115b1561568157615681615c3a565b6026546040518381527ff74223d764da704d974281758065d2eb6c9066dc940e3f549b72e894b0404aef9060200161293d565b60008083116156c257600080fd5b73ffffffffffffffffffffffffffffffffffffffff84166000908152603f60205260409020546156f3906001615218565b73ffffffffffffffffffffffffffffffffffffffff85166000908152603f6020908152604080832093909355829052205461572e9084615218565b73ffffffffffffffffffffffffffffffffffffffff85166000818152604060208181528183209490945580518082018252878152808501878152848452603e8652828420603f87528385205485529095529181902091518255925160019091015590517f42e99fbad9601d25ee3bb515eeee966f97c3c383adadbe5720f651df8c18989d906157c09086815260200190565b60405180910390a25060019392505050565b600082828183036157fd5780156157ea5760006157f4565b670de0b6b3a76400005b92505050611bb5565b670de0b6b3a7640000820361581e57670de0b6b3a764000092505050611bb5565b8060000361583857670de0b6b3a764000092505050611bb5565b670de0b6b3a76400008103615851578492505050611bb5565b670de0b6b3a76400008211156158825761587b61587661587087615db7565b86615f1d565b615f2c565b92506158dc565b60006158a06135ea846ec097ce7bc90715b34b9f1000000000617764565b905060006158b96158766158b384615db7565b88615f1d565b90506158d76135ea826ec097ce7bc90715b34b9f1000000000617764565b945050505b505092915050565b6158ee8282615fa3565b5073ffffffffffffffffffffffffffffffffffffffff82166000908152603d602052604090205461591f9082615218565b73ffffffffffffffffffffffffffffffffffffffff9092166000908152603d602052604090209190915550565b601154600c54600090615960904290615311565b9050600061597b610258600e5461534990919063ffffffff16565b905080821015615a1d57600061599783611d0a846103e8615349565b9050610fa08111156159a85750610fa05b6010546159b7906103e8615331565b60115410156159e3576159db81611d0a6103e860115461534990919063ffffffff16565b6011556159f4565b6010546159f09082615331565b6011555b6159ff846004615331565b6011541015615a1757615a13846004615331565b6011555b50615aa4565b6000615a2f82611d0a856103e8615349565b9050610fa0811115615a405750610fa05b601054615a4d9082615331565b60115411615a7857615a706103e8611d0a8360115461534990919063ffffffff16565b601155615a7f565b6010546011555b615a8a846004615349565b6011541115615aa257615a9e846004615349565b6011555b505b42600c55600f546011541015615abb57600f546011555b6010546011541115615ace576010546011555b505050565b60008060265411615ae357600080fd5b600082118015615af557506026548211155b615afe57600080fd5b60008281526025602052604081208054909103615b1a57600080fd5b80546000908152602760205260409020548015615b3657600080fd5b6000600254600a615b479190617247565b615b55906301406f40617253565b60035410615b8c57615b856c7e37be2022c0914b2680000000611d0a60045460035461534990919063ffffffff16565b9050615b91565b506005545b615baf64174876e800611d0a6006548461534990919063ffffffff16565b6004840155600754615bcd9064174876e80090611d0a908490615349565b6005840155600354615bdf9082615218565b60035530600090815260096020526040902054615bfc9082615218565b30600090815260096020908152604080832093909355855482526027905220819055602854615c2c906001615218565b602855506001949350505050565b600080600080615c5760205460265461531190919063ffffffff16565b90505b602654615c68906001615311565b8111615cbf57600081815260256020526040902060060154615c8b908490615218565b600082815260256020526040902060070154909350615cab908390615218565b915080615cb7816175e1565b915050615c5a565b50615cca8282615218565b600003615cdb576113889250615cf7565b615cf4615ce88383615218565b611d0a84612710615349565b92505b602354831015615d4957602354600090615d119085615311565b9050615d40615d37612710611d0a84611d83611194601f5461531190919063ffffffff16565b601f5490615311565b601f5550615d8d565b6000615d606023548561531190919063ffffffff16565b9050615d88615d7f612710611d0a84601f54612710611d8391906175ce565b601f5490615218565b601f55505b611194601f541015615da057611194601f555b6126ac601f541115615ace576126ac601f55505050565b600081670de0b6b3a7640000811015615dff576040517f36d32ef0000000000000000000000000000000000000000000000000000000008152600481018490526024016116f2565b6000615e8b670de0b6b3a7640000830460016fffffffffffffffffffffffffffffffff821160071b91821c67ffffffffffffffff811160061b90811c63ffffffff811160051b90811c61ffff811160041b90811c60ff8111600390811b91821c600f811160021b90811c918211871b91821c969096119490961792909217171791909117919091171790565b9050670de0b6b3a7640000810282821c7ffffffffffffffffffffffffffffffffffffffffffffffffff21f494c589c00008101615ece57815b9695505050505050565b671bc16d674ec800006706f05b59d3b200005b8015615f1157670de0b6b3a7640000838002049250818310615f09579283019260019290921c915b60011c615ee1565b50919695505050505050565b600061532a6135ea84846160e7565b600081680a688906bd8affffff811115615f75576040517fb3b6ba1f000000000000000000000000000000000000000000000000000000008152600481018490526024016116f2565b6000615f8d670de0b6b3a7640000604084901b617764565b9050615f9b6135ea826161ee565b949350505050565b6000808211615fb157600080fd5b73ffffffffffffffffffffffffffffffffffffffff83166000908152603f6020526040902054615fe2906001615218565b73ffffffffffffffffffffffffffffffffffffffff84166000908152603f6020908152604080832093909355829052205461601d9083615218565b73ffffffffffffffffffffffffffffffffffffffff8416600090815260406020819052812091909155601a54616054904290615218565b604080518082018252858152602080820184815273ffffffffffffffffffffffffffffffffffffffff89166000818152603e8452858120603f855286822054825284528590209351845590516001909301929092559151868152929350917f42e99fbad9601d25ee3bb515eeee966f97c3c383adadbe5720f651df8c18989d910160405180910390a25060019392505050565b600080807fffffffffffffffffffffffffffffffffffffffffffffffffffffffffffffffff848609848602925082811083820303915050806000036161395750670de0b6b3a764000090049050611bb5565b670de0b6b3a76400008110616184576040517f5173648d00000000000000000000000000000000000000000000000000000000815260048101869052602481018590526044016116f2565b6000670de0b6b3a7640000858709620400008185030493109091037d40000000000000000000000000000000000000000000000000000000000002919091177faccb18165bd6fe31ae1cf318dc5b51eee0e1ba569b88cd74c1773b91fac106690291505092915050565b7780000000000000000000000000000000000000000000000067ff0000000000000082161561630f576780000000000000008216156162365768016a09e667f3bcc9090260401c5b674000000000000000821615616255576801306fe0a31b7152df0260401c5b672000000000000000821615616274576801172b83c7d517adce0260401c5b6710000000000000008216156162935768010b5586cf9890f62a0260401c5b6708000000000000008216156162b2576801059b0d31585743ae0260401c5b6704000000000000008216156162d157680102c9a3e778060ee70260401c5b6702000000000000008216156162f05768010163da9fb33356d80260401c5b67010000000000000082161561630f57680100b1afa5abcbed610260401c5b66ff00000000000082161561640e57668000000000000082161561633c5768010058c86da1c09ea20260401c5b664000000000000082161561635a576801002c605e2e8cec500260401c5b662000000000000082161561637857680100162f3904051fa10260401c5b6610000000000000821615616396576801000b175effdc76ba0260401c5b66080000000000008216156163b457680100058ba01fb9f96d0260401c5b66040000000000008216156163d25768010002c5cc37da94920260401c5b66020000000000008216156163f0576801000162e525ee05470260401c5b660100000000000082161561640e5768010000b17255775c040260401c5b65ff00000000008216156165045765800000000000821615616439576801000058b91b5bc9ae0260401c5b6540000000000082161561645657680100002c5c89d5ec6d0260401c5b652000000000008216156164735768010000162e43f4f8310260401c5b6510000000000082161561649057680100000b1721bcfc9a0260401c5b650800000000008216156164ad5768010000058b90cf1e6e0260401c5b650400000000008216156164ca576801000002c5c863b73f0260401c5b650200000000008216156164e757680100000162e430e5a20260401c5b65010000000000821615616504576801000000b1721835510260401c5b64ff000000008216156165f15764800000000082161561652d57680100000058b90c0b490260401c5b6440000000008216156165495768010000002c5c8601cc0260401c5b642000000000821615616565576801000000162e42fff00260401c5b6410000000008216156165815768010000000b17217fbb0260401c5b64080000000082161561659d576801000000058b90bfce0260401c5b6404000000008216156165b957680100000002c5c85fe30260401c5b6402000000008216156165d55768010000000162e42ff10260401c5b6401000000008216156165f157680100000000b17217f80260401c5b63ff0000008216156166d55763800000008216156166185768010000000058b90bfc0260401c5b6340000000821615616633576801000000002c5c85fe0260401c5b632000000082161561664e57680100000000162e42ff0260401c5b6310000000821615616669576801000000000b17217f0260401c5b630800000082161561668457680100000000058b90c00260401c5b630400000082161561669f5768010000000002c5c8600260401c5b63020000008216156166ba576801000000000162e4300260401c5b63010000008216156166d55768010000000000b172180260401c5b62ff00008216156167b057628000008216156166fa576801000000000058b90c0260401c5b6240000082161561671457680100000000002c5c860260401c5b6220000082161561672e5768010000000000162e430260401c5b6210000082161561674857680100000000000b17210260401c5b620800008216156167625768010000000000058b910260401c5b6204000082161561677c576801000000000002c5c80260401c5b6202000082161561679657680100000000000162e40260401c5b620100008216156167b0576801000000000000b1720260401c5b61ff00821615616882576180008216156167d357680100000000000058b90260401c5b6140008216156167ec5768010000000000002c5d0260401c5b612000821615616805576801000000000000162e0260401c5b61100082161561681e5768010000000000000b170260401c5b610800821615616837576801000000000000058c0260401c5b61040082161561685057680100000000000002c60260401c5b61020082161561686957680100000000000001630260401c5b61010082161561688257680100000000000000b10260401c5b60ff82161561694b5760808216156168a357680100000000000000590260401c5b60408216156168bb576801000000000000002c0260401c5b60208216156168d357680100000000000000160260401c5b60108216156168eb576801000000000000000b0260401c5b600882161561690357680100000000000000060260401c5b600482161561691b57680100000000000000030260401c5b600282161561693357680100000000000000010260401c5b600182161561694b57680100000000000000010260401c5b670de0b6b3a76400000260409190911c60bf031c90565b7f4e487b7100000000000000000000000000000000000000000000000000000000600052604160045260246000fd5b600082601f8301126169a257600080fd5b813567ffffffffffffffff808211156169bd576169bd616962565b604051601f83017fffffffffffffffffffffffffffffffffffffffffffffffffffffffffffffffe0908116603f01168101908282118183101715616a0357616a03616962565b81604052838152866020858801011115616a1c57600080fd5b836020870160208301376000602085830101528094505050505092915050565b80357fffffffffffffffff00000000000000000000000000000000000000000000000081168114616a6c57600080fd5b919050565b600080600080600080600060e0888a031215616a8c57600080fd5b87357fffffffff0000000000000000000000000000000000000000000000000000000081168114616abc57600080fd5b9650602088013567ffffffffffffffff80821115616ad957600080fd5b616ae58b838c01616991565b975060408a0135965060608a0135915080821115616b0257600080fd5b616b0e8b838c01616991565b955060808a0135945060a08a0135915080821115616b2b57600080fd5b50616b388a828b01616991565b925050616b4760c08901616a3c565b905092959891949750929550565b60005b83811015616b70578181015183820152602001616b58565b50506000910152565b60008151808452616b91816020860160208601616b55565b601f017fffffffffffffffffffffffffffffffffffffffffffffffffffffffffffffffe0169290920160200192915050565b60208152600061532a6020830184616b79565b803573ffffffffffffffffffffffffffffffffffffffff81168114616a6c57600080fd5b60008060408385031215616c0d57600080fd5b616c1683616bd6565b946020939093013593505050565b600080600060608486031215616c3957600080fd5b8335925060208401358015158114616c5057600080fd5b9150604084013567ffffffffffffffff811115616c6c57600080fd5b616c7886828701616991565b9150509250925092565b600060208284031215616c9457600080fd5b5035919050565b60008060408385031215616cae57600080fd5b50508035926020909101359150565b60008060008060008060c08789031215616cd657600080fd5b86359550602087013567ffffffffffffffff80821115616cf557600080fd5b616d018a838b01616991565b96506040890135915080821115616d1757600080fd5b616d238a838b01616991565b95506060890135915080821115616d3957600080fd5b616d458a838b01616991565b94506080890135915080821115616d5b57600080fd5b50616d6889828a01616991565b92505060a087013590509295509295509295565b600080600060608486031215616d9157600080fd5b616d9a84616bd6565b9250616da860208501616bd6565b9150604084013590509250925092565b600060208284031215616dca57600080fd5b61532a82616bd6565b60006101408c83528b60208401528a604084015289606084015288608084015273ffffffffffffffffffffffffffffffffffffffff881660a08401528060c0840152616e2181840188616b79565b905082810360e0840152616e358187616b79565b9050828103610100840152616e4a8186616b79565b9050828103610120840152616e5f8185616b79565b9d9c50505050505050505050505050565b600080600060608486031215616e8557600080fd5b83359250602084013567ffffffffffffffff80821115616ea457600080fd5b616eb087838801616991565b93506040860135915080821115616ec657600080fd5b50616c7886828701616991565b828152604060208201526000615f9b6040830184616b79565b7f4e487b7100000000000000000000000000000000000000000000000000000000600052602160045260246000fd5b60048110616f52577f4e487b7100000000000000000000000000000000000000000000000000000000600052602160045260246000fd5b9052565b8d8152602081018d9052604081018c90526101a08101616f79606083018d616f1b565b616f86608083018c616f1b565b98151560a082015260c081019790975260e08701959095526101008601939093526101208501919091526101408401526101608301526101809091015295945050505050565b600080600060608486031215616fe157600080fd5b505081359360208301359350604090920135919050565b85815284602082015283604082015260a06060820152600061701d60a0830185616b79565b828103608084015261702f8185616b79565b98975050505050505050565b60006020828403121561704d57600080fd5b813567ffffffffffffffff81111561706457600080fd5b615f9b84828501616991565b6000806000806080858703121561708657600080fd5b5050823594602084013594506040840135936060013592509050565b600080604083850312156170b557600080fd5b823591506170c560208401616bd6565b90509250929050565b600080604083850312156170e157600080fd5b6170ea83616bd6565b91506170c560208401616bd6565b7f4e487b7100000000000000000000000000000000000000000000000000000000600052601160045260246000fd5b600181815b8085111561718057817fffffffffffffffffffffffffffffffffffffffffffffffffffffffffffffffff04821115617166576171666170f8565b8085161561717357918102915b93841c939080029061712c565b509250929050565b60008261719757506001611bb5565b816171a457506000611bb5565b81600181146171ba57600281146171c4576171e0565b6001915050611bb5565b60ff8411156171d5576171d56170f8565b50506001821b611bb5565b5060208310610133831016604e8410600b8410161715617203575081810a611bb5565b61720d8383617127565b807fffffffffffffffffffffffffffffffffffffffffffffffffffffffffffffffff0482111561723f5761723f6170f8565b029392505050565b600061532a8383617188565b8082028115828204841417611bb557611bb56170f8565b600181811c9082168061727e57607f821691505b6020821081036172b7577f4e487b7100000000000000000000000000000000000000000000000000000000600052602260045260246000fd5b50919050565b601f821115615ace576000816000526020600020601f850160051c810160208610156172e65750805b601f850160051c820191505b81811015617305578281556001016172f2565b505050505050565b815167ffffffffffffffff81111561732757617327616962565b61733b81617335845461726a565b846172bd565b602080601f83116001811461738e57600084156173585750858301515b7fffffffffffffffffffffffffffffffffffffffffffffffffffffffffffffffff600386901b1c1916600185901b178555617305565b6000858152602081207fffffffffffffffffffffffffffffffffffffffffffffffffffffffffffffffe08616915b828110156173db578886015182559484019460019091019084016173bc565b508582101561741757878501517fffffffffffffffffffffffffffffffffffffffffffffffffffffffffffffffff600388901b60f8161c191681555b5050505050600190811b01905550565b60008083546174358161726a565b6001828116801561744d5760018114617480576174af565b7fffffffffffffffffffffffffffffffffffffffffffffffffffffffffffffff00841687528215158302870194506174af565b8760005260208060002060005b858110156174a65781548a82015290840190820161748d565b50505082870194505b50929695505050505050565b805160208083015191908110156172b7577fffffffffffffffffffffffffffffffffffffffffffffffffffffffffffffffff60209190910360031b1b16919050565b7fffffffff00000000000000000000000000000000000000000000000000000000851681528360048201526000835161753d816024850160208801616b55565b835190830190617554816024840160208801616b55565b016024019695505050505050565b7f4e487b7100000000000000000000000000000000000000000000000000000000600052600160045260246000fd5b848152831515602082015273ffffffffffffffffffffffffffffffffffffffff83166040820152608060608201526000615ec46080830184616b79565b81810381811115611bb557611bb56170f8565b60007fffffffffffffffffffffffffffffffffffffffffffffffffffffffffffffffff8203617612576176126170f8565b5060010190565b60408152600061762c6040830185616b79565b90508260208301529392505050565b6000825161764d818460208701616b55565b9190910192915050565b7f4e487b7100000000000000000000000000000000000000000000000000000000600052601260045260246000fd5b60008261769557617695617657565b500690565b6060815260008085546176ac8161726a565b80606086015260806001808416600081146176ce57600181146177085761773a565b7fffffffffffffffffffffffffffffffffffffffffffffffffffffffffffffff0085166080890152608084151560051b890101955061773a565b8a60005260208060002060005b868110156177305781548b8201870152908401908201617715565b8a01608001975050505b505050505060208301949094525060400152919050565b80820180821115611bb557611bb56170f8565b60008261777357617773617657565b50049056fe446973636f766572696e67206f7572206265737420467574757265732e204e6f20496e74656c6c65637475616c2050726f70657274792c20416c6c2070726f706f73616c7320617265206d61646520756e64657220746865206c6963656e736520437265617469766520436f6d6d6f6e73204174747269627574696f6e20342e3020496e7465726e6174696f6e616c2028434320425920342e30292e205468697320736d61727420636f6e74726163742069732072756e6e696e6720477561726469616e2048617264666f726b2c2045746963612076332ea26469706673582212201f3a4eb3ae1a04a0d2c001282afbab4c61a656c0ae9f0eed41a077e7428f84f764736f6c63430008160033",
  "linkReferences": {},
  "deployedLinkReferences": {}
}